{"abi":[{"inputs":[{"internalType":"uint256","name":"minimum","type":"uint256"},{"internalType":"address","name":"creator","type":"address"},{"internalType":"string","name":"campaign_title","type":"string"},{"internalType":"string","name":"campaign_creator_name","type":"string"},{"internalType":"string","name":"campaign_story","type":"string"},{"internalType":"uint256","name":"campaign_goal","type":"uint256"},{"internalType":"uint256","name":"campaign_endDate","type":"uint256"},{"internalType":"string","name":"campaign_image","type":"string"},{"internalType":"string","name":"campaign_category","type":"string"}],"stateMutability":"nonpayable","type":"constructor"},{"anonymous":false,"inputs":[{"indexed":true,"internalType":"address","name":"donar","type":"address"},{"indexed":true,"internalType":"uint256","name":"amount","type":"uint256"},{"indexed":true,"internalType":"uint256","name":"timestamp","type":"uint256"}],"name":"contributed","type":"event"},{"inputs":[{"internalType":"uint256","name":"index","type":"uint256"}],"name":"approveRequest","outputs":[],"stateMutability":"nonpayable","type":"function"},{"inputs":[{"internalType":"address","name":"","type":"address"}],"name":"approvers","outputs":[{"internalType":"bool","name":"","type":"bool"}],"stateMutability":"view","type":"function"},{"inputs":[],"name":"approversCount","outputs":[{"internalType":"uint256","name":"","type":"uint256"}],"stateMutability":"view","type":"function"},{"inputs":[],"name":"campaignCategory","outputs":[{"internalType":"string","name":"","type":"string"}],"stateMutability":"view","type":"function"},{"inputs":[],"name":"campaignCreatorName","outputs":[{"internalType":"string","name":"","type":"string"}],"stateMutability":"view","type":"function"},{"inputs":[],"name":"campaignEndDate","outputs":[{"internalType":"uint256","name":"","type":"uint256"}],"stateMutability":"view","type":"function"},{"inputs":[],"name":"campaignGoal","outputs":[{"internalType":"uint256","name":"","type":"uint256"}],"stateMutability":"view","type":"function"},{"inputs":[],"name":"campaignImage","outputs":[{"internalType":"string","name":"","type":"string"}],"stateMutability":"view","type":"function"},{"inputs":[],"name":"campaignStory","outputs":[{"internalType":"string","name":"","type":"string"}],"stateMutability":"view","type":"function"},{"inputs":[],"name":"campaignTitle","outputs":[{"internalType":"string","name":"","type":"string"}],"stateMutability":"view","type":"function"},{"inputs":[],"name":"contribute","outputs":[],"stateMutability":"payable","type":"function"},{"inputs":[{"internalType":"string","name":"description","type":"string"},{"internalType":"uint256","name":"value","type":"uint256"},{"internalType":"address","name":"recipient","type":"address"}],"name":"createRequest","outputs":[],"stateMutability":"nonpayable","type":"function"},{"inputs":[{"internalType":"uint256","name":"index","type":"uint256"}],"name":"finalizeRequest","outputs":[],"stateMutability":"nonpayable","type":"function"},{"inputs":[],"name":"getDaysRemaining","outputs":[{"internalType":"uint256","name":"","type":"uint256"}],"stateMutability":"view","type":"function"},{"inputs":[],"name":"getRequestsCount","outputs":[{"internalType":"uint256","name":"","type":"uint256"}],"stateMutability":"view","type":"function"},{"inputs":[],"name":"getSummary","outputs":[{"internalType":"uint256","name":"","type":"uint256"},{"internalType":"uint256","name":"","type":"uint256"},{"internalType":"uint256","name":"","type":"uint256"},{"internalType":"uint256","name":"","type":"uint256"},{"internalType":"address","name":"","type":"address"},{"internalType":"string","name":"","type":"string"},{"internalType":"string","name":"","type":"string"},{"internalType":"string","name":"","type":"string"},{"internalType":"uint256","name":"","type":"uint256"},{"internalType":"uint256","name":"","type":"uint256"},{"internalType":"string","name":"","type":"string"},{"internalType":"string","name":"","type":"string"}],"stateMutability":"view","type":"function"},{"inputs":[],"name":"manager","outputs":[{"internalType":"address","name":"","type":"address"}],"stateMutability":"view","type":"function"},{"inputs":[],"name":"minimumContribution","outputs":[{"internalType":"uint256","name":"","type":"uint256"}],"stateMutability":"view","type":"function"},{"inputs":[],"name":"receivedAmount","outputs":[{"internalType":"uint256","name":"","type":"uint256"}],"stateMutability":"view","type":"function"},{"inputs":[{"internalType":"uint256","name":"","type":"uint256"}],"name":"requests","outputs":[{"internalType":"string","name":"description","type":"string"},{"internalType":"uint256","name":"value","type":"uint256"},{"internalType":"address","name":"recipient","type":"address"},{"internalType":"bool","name":"complete","type":"bool"},{"internalType":"uint256","name":"approvalCount","type":"uint256"}],"stateMutability":"view","type":"function"}],"devdoc":{"kind":"dev","methods":{},"version":1},"evm":{"assembly":"    /* \"Campaign.sol\":1332:5219  contract Campaign {... */\n  mstore(0x40, 0x80)\n    /* \"Campaign.sol\":2087:2709  constructor (uint minimum, address creator, string memory campaign_title, string memory campaign_creator_name, string memory campaign_story, uint campaign_goal, uint campaign_endDate, string memory campaign_image, string memory campaign_category) {... */\n  callvalue\n  dup1\n  iszero\n  tag_1\n  jumpi\n  0x00\n  dup1\n  revert\ntag_1:\n  pop\n  mload(0x40)\n  sub(codesize, bytecodeSize)\n  dup1\n  bytecodeSize\n  dup4\n  codecopy\n  dup2\n  dup2\n  add\n  0x40\n  mstore\n  dup2\n  add\n  swap1\n  tag_2\n  swap2\n  swap1\n  tag_3\n  jump\t// in\ntag_2:\n    /* \"Campaign.sol\":2354:2361  creator */\n  dup8\n    /* \"Campaign.sol\":2344:2351  manager */\n  0x01\n  0x00\n    /* \"Campaign.sol\":2344:2361  manager = creator */\n  0x0100\n  exp\n  dup2\n  sload\n  dup2\n  0xffffffffffffffffffffffffffffffffffffffff\n  mul\n  not\n  and\n  swap1\n  dup4\n  0xffffffffffffffffffffffffffffffffffffffff\n  and\n  mul\n  or\n  swap1\n  sstore\n  pop\n    /* \"Campaign.sol\":2393:2400  minimum */\n  dup9\n    /* \"Campaign.sol\":2371:2390  minimumContribution */\n  0x02\n    /* \"Campaign.sol\":2371:2400  minimumContribution = minimum */\n  dup2\n  swap1\n  sstore\n  pop\n    /* \"Campaign.sol\":2426:2440  campaign_title */\n  dup7\n    /* \"Campaign.sol\":2410:2423  campaignTitle */\n  0x05\n    /* \"Campaign.sol\":2410:2440  campaignTitle = campaign_title */\n  swap1\n  dup2\n  tag_6\n  swap2\n  swap1\n  tag_7\n  jump\t// in\ntag_6:\n  pop\n    /* \"Campaign.sol\":2472:2493  campaign_creator_name */\n  dup6\n    /* \"Campaign.sol\":2450:2469  campaignCreatorName */\n  0x06\n    /* \"Campaign.sol\":2450:2493  campaignCreatorName = campaign_creator_name */\n  swap1\n  dup2\n  tag_8\n  swap2\n  swap1\n  tag_7\n  jump\t// in\ntag_8:\n  pop\n    /* \"Campaign.sol\":2519:2533  campaign_story */\n  dup5\n    /* \"Campaign.sol\":2503:2516  campaignStory */\n  0x07\n    /* \"Campaign.sol\":2503:2533  campaignStory = campaign_story */\n  swap1\n  dup2\n  tag_9\n  swap2\n  swap1\n  tag_7\n  jump\t// in\ntag_9:\n  pop\n    /* \"Campaign.sol\":2558:2571  campaign_goal */\n  dup4\n    /* \"Campaign.sol\":2543:2555  campaignGoal */\n  0x08\n    /* \"Campaign.sol\":2543:2571  campaignGoal = campaign_goal */\n  dup2\n  swap1\n  sstore\n  pop\n    /* \"Campaign.sol\":2599:2615  campaign_endDate */\n  dup3\n    /* \"Campaign.sol\":2581:2596  campaignEndDate */\n  0x09\n    /* \"Campaign.sol\":2581:2615  campaignEndDate = campaign_endDate */\n  dup2\n  swap1\n  sstore\n  pop\n    /* \"Campaign.sol\":2641:2655  campaign_image */\n  dup2\n    /* \"Campaign.sol\":2625:2638  campaignImage */\n  0x0a\n    /* \"Campaign.sol\":2625:2655  campaignImage = campaign_image */\n  swap1\n  dup2\n  tag_10\n  swap2\n  swap1\n  tag_7\n  jump\t// in\ntag_10:\n  pop\n    /* \"Campaign.sol\":2684:2701  campaign_category */\n  dup1\n    /* \"Campaign.sol\":2665:2681  campaignCategory */\n  0x0c\n    /* \"Campaign.sol\":2665:2701  campaignCategory = campaign_category */\n  swap1\n  dup2\n  tag_11\n  swap2\n  swap1\n  tag_7\n  jump\t// in\ntag_11:\n  pop\n    /* \"Campaign.sol\":2087:2709  constructor (uint minimum, address creator, string memory campaign_title, string memory campaign_creator_name, string memory campaign_story, uint campaign_goal, uint campaign_endDate, string memory campaign_image, string memory campaign_category) {... */\n  pop\n  pop\n  pop\n  pop\n  pop\n  pop\n  pop\n  pop\n  pop\n    /* \"Campaign.sol\":1332:5219  contract Campaign {... */\n  jump(tag_12)\n    /* \"#utility.yul\":7:82   */\ntag_13:\n    /* \"#utility.yul\":40:46   */\n  0x00\n    /* \"#utility.yul\":73:75   */\n  0x40\n    /* \"#utility.yul\":67:76   */\n  mload\n    /* \"#utility.yul\":57:76   */\n  swap1\n  pop\n    /* \"#utility.yul\":7:82   */\n  swap1\n  jump\t// out\n    /* \"#utility.yul\":88:205   */\ntag_14:\n    /* \"#utility.yul\":197:198   */\n  0x00\n    /* \"#utility.yul\":194:195   */\n  dup1\n    /* \"#utility.yul\":187:199   */\n  revert\n    /* \"#utility.yul\":211:328   */\ntag_15:\n    /* \"#utility.yul\":320:321   */\n  0x00\n    /* \"#utility.yul\":317:318   */\n  dup1\n    /* \"#utility.yul\":310:322   */\n  revert\n    /* \"#utility.yul\":334:411   */\ntag_16:\n    /* \"#utility.yul\":371:378   */\n  0x00\n    /* \"#utility.yul\":400:405   */\n  dup2\n    /* \"#utility.yul\":389:405   */\n  swap1\n  pop\n    /* \"#utility.yul\":334:411   */\n  swap2\n  swap1\n  pop\n  jump\t// out\n    /* \"#utility.yul\":417:539   */\ntag_17:\n    /* \"#utility.yul\":490:514   */\n  tag_57\n    /* \"#utility.yul\":508:513   */\n  dup2\n    /* \"#utility.yul\":490:514   */\n  tag_16\n  jump\t// in\ntag_57:\n    /* \"#utility.yul\":483:488   */\n  dup2\n    /* \"#utility.yul\":480:515   */\n  eq\n    /* \"#utility.yul\":470:533   */\n  tag_58\n  jumpi\n    /* \"#utility.yul\":529:530   */\n  0x00\n    /* \"#utility.yul\":526:527   */\n  dup1\n    /* \"#utility.yul\":519:531   */\n  revert\n    /* \"#utility.yul\":470:533   */\ntag_58:\n    /* \"#utility.yul\":417:539   */\n  pop\n  jump\t// out\n    /* \"#utility.yul\":545:688   */\ntag_18:\n    /* \"#utility.yul\":602:607   */\n  0x00\n    /* \"#utility.yul\":633:639   */\n  dup2\n    /* \"#utility.yul\":627:640   */\n  mload\n    /* \"#utility.yul\":618:640   */\n  swap1\n  pop\n    /* \"#utility.yul\":649:682   */\n  tag_60\n    /* \"#utility.yul\":676:681   */\n  dup2\n    /* \"#utility.yul\":649:682   */\n  tag_17\n  jump\t// in\ntag_60:\n    /* \"#utility.yul\":545:688   */\n  swap3\n  swap2\n  pop\n  pop\n  jump\t// out\n    /* \"#utility.yul\":694:820   */\ntag_19:\n    /* \"#utility.yul\":731:738   */\n  0x00\n    /* \"#utility.yul\":771:813   */\n  0xffffffffffffffffffffffffffffffffffffffff\n    /* \"#utility.yul\":764:769   */\n  dup3\n    /* \"#utility.yul\":760:814   */\n  and\n    /* \"#utility.yul\":749:814   */\n  swap1\n  pop\n    /* \"#utility.yul\":694:820   */\n  swap2\n  swap1\n  pop\n  jump\t// out\n    /* \"#utility.yul\":826:922   */\ntag_20:\n    /* \"#utility.yul\":863:870   */\n  0x00\n    /* \"#utility.yul\":892:916   */\n  tag_63\n    /* \"#utility.yul\":910:915   */\n  dup3\n    /* \"#utility.yul\":892:916   */\n  tag_19\n  jump\t// in\ntag_63:\n    /* \"#utility.yul\":881:916   */\n  swap1\n  pop\n    /* \"#utility.yul\":826:922   */\n  swap2\n  swap1\n  pop\n  jump\t// out\n    /* \"#utility.yul\":928:1050   */\ntag_21:\n    /* \"#utility.yul\":1001:1025   */\n  tag_65\n    /* \"#utility.yul\":1019:1024   */\n  dup2\n    /* \"#utility.yul\":1001:1025   */\n  tag_20\n  jump\t// in\ntag_65:\n    /* \"#utility.yul\":994:999   */\n  dup2\n    /* \"#utility.yul\":991:1026   */\n  eq\n    /* \"#utility.yul\":981:1044   */\n  tag_66\n  jumpi\n    /* \"#utility.yul\":1040:1041   */\n  0x00\n    /* \"#utility.yul\":1037:1038   */\n  dup1\n    /* \"#utility.yul\":1030:1042   */\n  revert\n    /* \"#utility.yul\":981:1044   */\ntag_66:\n    /* \"#utility.yul\":928:1050   */\n  pop\n  jump\t// out\n    /* \"#utility.yul\":1056:1199   */\ntag_22:\n    /* \"#utility.yul\":1113:1118   */\n  0x00\n    /* \"#utility.yul\":1144:1150   */\n  dup2\n    /* \"#utility.yul\":1138:1151   */\n  mload\n    /* \"#utility.yul\":1129:1151   */\n  swap1\n  pop\n    /* \"#utility.yul\":1160:1193   */\n  tag_68\n    /* \"#utility.yul\":1187:1192   */\n  dup2\n    /* \"#utility.yul\":1160:1193   */\n  tag_21\n  jump\t// in\ntag_68:\n    /* \"#utility.yul\":1056:1199   */\n  swap3\n  swap2\n  pop\n  pop\n  jump\t// out\n    /* \"#utility.yul\":1205:1322   */\ntag_23:\n    /* \"#utility.yul\":1314:1315   */\n  0x00\n    /* \"#utility.yul\":1311:1312   */\n  dup1\n    /* \"#utility.yul\":1304:1316   */\n  revert\n    /* \"#utility.yul\":1328:1445   */\ntag_24:\n    /* \"#utility.yul\":1437:1438   */\n  0x00\n    /* \"#utility.yul\":1434:1435   */\n  dup1\n    /* \"#utility.yul\":1427:1439   */\n  revert\n    /* \"#utility.yul\":1451:1553   */\ntag_25:\n    /* \"#utility.yul\":1492:1498   */\n  0x00\n    /* \"#utility.yul\":1543:1545   */\n  0x1f\n    /* \"#utility.yul\":1539:1546   */\n  not\n    /* \"#utility.yul\":1534:1536   */\n  0x1f\n    /* \"#utility.yul\":1527:1532   */\n  dup4\n    /* \"#utility.yul\":1523:1537   */\n  add\n    /* \"#utility.yul\":1519:1547   */\n  and\n    /* \"#utility.yul\":1509:1547   */\n  swap1\n  pop\n    /* \"#utility.yul\":1451:1553   */\n  swap2\n  swap1\n  pop\n  jump\t// out\n    /* \"#utility.yul\":1559:1739   */\ntag_26:\n    /* \"#utility.yul\":1607:1684   */\n  0x4e487b7100000000000000000000000000000000000000000000000000000000\n    /* \"#utility.yul\":1604:1605   */\n  0x00\n    /* \"#utility.yul\":1597:1685   */\n  mstore\n    /* \"#utility.yul\":1704:1708   */\n  0x41\n    /* \"#utility.yul\":1701:1702   */\n  0x04\n    /* \"#utility.yul\":1694:1709   */\n  mstore\n    /* \"#utility.yul\":1728:1732   */\n  0x24\n    /* \"#utility.yul\":1725:1726   */\n  0x00\n    /* \"#utility.yul\":1718:1733   */\n  revert\n    /* \"#utility.yul\":1745:2026   */\ntag_27:\n    /* \"#utility.yul\":1828:1855   */\n  tag_74\n    /* \"#utility.yul\":1850:1854   */\n  dup3\n    /* \"#utility.yul\":1828:1855   */\n  tag_25\n  jump\t// in\ntag_74:\n    /* \"#utility.yul\":1820:1826   */\n  dup2\n    /* \"#utility.yul\":1816:1856   */\n  add\n    /* \"#utility.yul\":1958:1964   */\n  dup2\n    /* \"#utility.yul\":1946:1956   */\n  dup2\n    /* \"#utility.yul\":1943:1965   */\n  lt\n    /* \"#utility.yul\":1922:1940   */\n  0xffffffffffffffff\n    /* \"#utility.yul\":1910:1920   */\n  dup3\n    /* \"#utility.yul\":1907:1941   */\n  gt\n    /* \"#utility.yul\":1904:1966   */\n  or\n    /* \"#utility.yul\":1901:1989   */\n  iszero\n  tag_75\n  jumpi\n    /* \"#utility.yul\":1969:1987   */\n  tag_76\n  tag_26\n  jump\t// in\ntag_76:\n    /* \"#utility.yul\":1901:1989   */\ntag_75:\n    /* \"#utility.yul\":2009:2019   */\n  dup1\n    /* \"#utility.yul\":2005:2007   */\n  0x40\n    /* \"#utility.yul\":1998:2020   */\n  mstore\n    /* \"#utility.yul\":1788:2026   */\n  pop\n    /* \"#utility.yul\":1745:2026   */\n  pop\n  pop\n  jump\t// out\n    /* \"#utility.yul\":2032:2161   */\ntag_28:\n    /* \"#utility.yul\":2066:2072   */\n  0x00\n    /* \"#utility.yul\":2093:2113   */\n  tag_78\n  tag_13\n  jump\t// in\ntag_78:\n    /* \"#utility.yul\":2083:2113   */\n  swap1\n  pop\n    /* \"#utility.yul\":2122:2155   */\n  tag_79\n    /* \"#utility.yul\":2150:2154   */\n  dup3\n    /* \"#utility.yul\":2142:2148   */\n  dup3\n    /* \"#utility.yul\":2122:2155   */\n  tag_27\n  jump\t// in\ntag_79:\n    /* \"#utility.yul\":2032:2161   */\n  swap2\n  swap1\n  pop\n  jump\t// out\n    /* \"#utility.yul\":2167:2475   */\ntag_29:\n    /* \"#utility.yul\":2229:2233   */\n  0x00\n    /* \"#utility.yul\":2319:2337   */\n  0xffffffffffffffff\n    /* \"#utility.yul\":2311:2317   */\n  dup3\n    /* \"#utility.yul\":2308:2338   */\n  gt\n    /* \"#utility.yul\":2305:2361   */\n  iszero\n  tag_81\n  jumpi\n    /* \"#utility.yul\":2341:2359   */\n  tag_82\n  tag_26\n  jump\t// in\ntag_82:\n    /* \"#utility.yul\":2305:2361   */\ntag_81:\n    /* \"#utility.yul\":2379:2408   */\n  tag_83\n    /* \"#utility.yul\":2401:2407   */\n  dup3\n    /* \"#utility.yul\":2379:2408   */\n  tag_25\n  jump\t// in\ntag_83:\n    /* \"#utility.yul\":2371:2408   */\n  swap1\n  pop\n    /* \"#utility.yul\":2463:2467   */\n  0x20\n    /* \"#utility.yul\":2457:2461   */\n  dup2\n    /* \"#utility.yul\":2453:2468   */\n  add\n    /* \"#utility.yul\":2445:2468   */\n  swap1\n  pop\n    /* \"#utility.yul\":2167:2475   */\n  swap2\n  swap1\n  pop\n  jump\t// out\n    /* \"#utility.yul\":2481:2727   */\ntag_30:\n    /* \"#utility.yul\":2562:2563   */\n  0x00\n    /* \"#utility.yul\":2572:2685   */\ntag_85:\n    /* \"#utility.yul\":2586:2592   */\n  dup4\n    /* \"#utility.yul\":2583:2584   */\n  dup2\n    /* \"#utility.yul\":2580:2593   */\n  lt\n    /* \"#utility.yul\":2572:2685   */\n  iszero\n  tag_87\n  jumpi\n    /* \"#utility.yul\":2671:2672   */\n  dup1\n    /* \"#utility.yul\":2666:2669   */\n  dup3\n    /* \"#utility.yul\":2662:2673   */\n  add\n    /* \"#utility.yul\":2656:2674   */\n  mload\n    /* \"#utility.yul\":2652:2653   */\n  dup2\n    /* \"#utility.yul\":2647:2650   */\n  dup5\n    /* \"#utility.yul\":2643:2654   */\n  add\n    /* \"#utility.yul\":2636:2675   */\n  mstore\n    /* \"#utility.yul\":2608:2610   */\n  0x20\n    /* \"#utility.yul\":2605:2606   */\n  dup2\n    /* \"#utility.yul\":2601:2611   */\n  add\n    /* \"#utility.yul\":2596:2611   */\n  swap1\n  pop\n    /* \"#utility.yul\":2572:2685   */\n  jump(tag_85)\ntag_87:\n    /* \"#utility.yul\":2719:2720   */\n  0x00\n    /* \"#utility.yul\":2710:2716   */\n  dup5\n    /* \"#utility.yul\":2705:2708   */\n  dup5\n    /* \"#utility.yul\":2701:2717   */\n  add\n    /* \"#utility.yul\":2694:2721   */\n  mstore\n    /* \"#utility.yul\":2543:2727   */\n  pop\n    /* \"#utility.yul\":2481:2727   */\n  pop\n  pop\n  pop\n  jump\t// out\n    /* \"#utility.yul\":2733:3167   */\ntag_31:\n    /* \"#utility.yul\":2822:2827   */\n  0x00\n    /* \"#utility.yul\":2847:2913   */\n  tag_89\n    /* \"#utility.yul\":2863:2912   */\n  tag_90\n    /* \"#utility.yul\":2905:2911   */\n  dup5\n    /* \"#utility.yul\":2863:2912   */\n  tag_29\n  jump\t// in\ntag_90:\n    /* \"#utility.yul\":2847:2913   */\n  tag_28\n  jump\t// in\ntag_89:\n    /* \"#utility.yul\":2838:2913   */\n  swap1\n  pop\n    /* \"#utility.yul\":2936:2942   */\n  dup3\n    /* \"#utility.yul\":2929:2934   */\n  dup2\n    /* \"#utility.yul\":2922:2943   */\n  mstore\n    /* \"#utility.yul\":2974:2978   */\n  0x20\n    /* \"#utility.yul\":2967:2972   */\n  dup2\n    /* \"#utility.yul\":2963:2979   */\n  add\n    /* \"#utility.yul\":3012:3015   */\n  dup5\n    /* \"#utility.yul\":3003:3009   */\n  dup5\n    /* \"#utility.yul\":2998:3001   */\n  dup5\n    /* \"#utility.yul\":2994:3010   */\n  add\n    /* \"#utility.yul\":2991:3016   */\n  gt\n    /* \"#utility.yul\":2988:3100   */\n  iszero\n  tag_91\n  jumpi\n    /* \"#utility.yul\":3019:3098   */\n  tag_92\n  tag_24\n  jump\t// in\ntag_92:\n    /* \"#utility.yul\":2988:3100   */\ntag_91:\n    /* \"#utility.yul\":3109:3161   */\n  tag_93\n    /* \"#utility.yul\":3154:3160   */\n  dup5\n    /* \"#utility.yul\":3149:3152   */\n  dup3\n    /* \"#utility.yul\":3144:3147   */\n  dup6\n    /* \"#utility.yul\":3109:3161   */\n  tag_30\n  jump\t// in\ntag_93:\n    /* \"#utility.yul\":2828:3167   */\n  pop\n    /* \"#utility.yul\":2733:3167   */\n  swap4\n  swap3\n  pop\n  pop\n  pop\n  jump\t// out\n    /* \"#utility.yul\":3187:3542   */\ntag_32:\n    /* \"#utility.yul\":3254:3259   */\n  0x00\n    /* \"#utility.yul\":3303:3306   */\n  dup3\n    /* \"#utility.yul\":3296:3300   */\n  0x1f\n    /* \"#utility.yul\":3288:3294   */\n  dup4\n    /* \"#utility.yul\":3284:3301   */\n  add\n    /* \"#utility.yul\":3280:3307   */\n  slt\n    /* \"#utility.yul\":3270:3392   */\n  tag_95\n  jumpi\n    /* \"#utility.yul\":3311:3390   */\n  tag_96\n  tag_23\n  jump\t// in\ntag_96:\n    /* \"#utility.yul\":3270:3392   */\ntag_95:\n    /* \"#utility.yul\":3421:3427   */\n  dup2\n    /* \"#utility.yul\":3415:3428   */\n  mload\n    /* \"#utility.yul\":3446:3536   */\n  tag_97\n    /* \"#utility.yul\":3532:3535   */\n  dup5\n    /* \"#utility.yul\":3524:3530   */\n  dup3\n    /* \"#utility.yul\":3517:3521   */\n  0x20\n    /* \"#utility.yul\":3509:3515   */\n  dup7\n    /* \"#utility.yul\":3505:3522   */\n  add\n    /* \"#utility.yul\":3446:3536   */\n  tag_31\n  jump\t// in\ntag_97:\n    /* \"#utility.yul\":3437:3536   */\n  swap2\n  pop\n    /* \"#utility.yul\":3260:3542   */\n  pop\n    /* \"#utility.yul\":3187:3542   */\n  swap3\n  swap2\n  pop\n  pop\n  jump\t// out\n    /* \"#utility.yul\":3548:6018   */\ntag_3:\n    /* \"#utility.yul\":3740:3746   */\n  0x00\n    /* \"#utility.yul\":3748:3754   */\n  dup1\n    /* \"#utility.yul\":3756:3762   */\n  0x00\n    /* \"#utility.yul\":3764:3770   */\n  dup1\n    /* \"#utility.yul\":3772:3778   */\n  0x00\n    /* \"#utility.yul\":3780:3786   */\n  dup1\n    /* \"#utility.yul\":3788:3794   */\n  0x00\n    /* \"#utility.yul\":3796:3802   */\n  dup1\n    /* \"#utility.yul\":3804:3810   */\n  0x00\n    /* \"#utility.yul\":3853:3856   */\n  0x0120\n    /* \"#utility.yul\":3841:3850   */\n  dup11\n    /* \"#utility.yul\":3832:3839   */\n  dup13\n    /* \"#utility.yul\":3828:3851   */\n  sub\n    /* \"#utility.yul\":3824:3857   */\n  slt\n    /* \"#utility.yul\":3821:3941   */\n  iszero\n  tag_99\n  jumpi\n    /* \"#utility.yul\":3860:3939   */\n  tag_100\n  tag_14\n  jump\t// in\ntag_100:\n    /* \"#utility.yul\":3821:3941   */\ntag_99:\n    /* \"#utility.yul\":3980:3981   */\n  0x00\n    /* \"#utility.yul\":4005:4069   */\n  tag_101\n    /* \"#utility.yul\":4061:4068   */\n  dup13\n    /* \"#utility.yul\":4052:4058   */\n  dup3\n    /* \"#utility.yul\":4041:4050   */\n  dup14\n    /* \"#utility.yul\":4037:4059   */\n  add\n    /* \"#utility.yul\":4005:4069   */\n  tag_18\n  jump\t// in\ntag_101:\n    /* \"#utility.yul\":3995:4069   */\n  swap10\n  pop\n    /* \"#utility.yul\":3951:4079   */\n  pop\n    /* \"#utility.yul\":4118:4120   */\n  0x20\n    /* \"#utility.yul\":4144:4208   */\n  tag_102\n    /* \"#utility.yul\":4200:4207   */\n  dup13\n    /* \"#utility.yul\":4191:4197   */\n  dup3\n    /* \"#utility.yul\":4180:4189   */\n  dup14\n    /* \"#utility.yul\":4176:4198   */\n  add\n    /* \"#utility.yul\":4144:4208   */\n  tag_22\n  jump\t// in\ntag_102:\n    /* \"#utility.yul\":4134:4208   */\n  swap9\n  pop\n    /* \"#utility.yul\":4089:4218   */\n  pop\n    /* \"#utility.yul\":4278:4280   */\n  0x40\n    /* \"#utility.yul\":4267:4276   */\n  dup11\n    /* \"#utility.yul\":4263:4281   */\n  add\n    /* \"#utility.yul\":4257:4282   */\n  mload\n    /* \"#utility.yul\":4309:4327   */\n  0xffffffffffffffff\n    /* \"#utility.yul\":4301:4307   */\n  dup2\n    /* \"#utility.yul\":4298:4328   */\n  gt\n    /* \"#utility.yul\":4295:4412   */\n  iszero\n  tag_103\n  jumpi\n    /* \"#utility.yul\":4331:4410   */\n  tag_104\n  tag_15\n  jump\t// in\ntag_104:\n    /* \"#utility.yul\":4295:4412   */\ntag_103:\n    /* \"#utility.yul\":4436:4510   */\n  tag_105\n    /* \"#utility.yul\":4502:4509   */\n  dup13\n    /* \"#utility.yul\":4493:4499   */\n  dup3\n    /* \"#utility.yul\":4482:4491   */\n  dup14\n    /* \"#utility.yul\":4478:4500   */\n  add\n    /* \"#utility.yul\":4436:4510   */\n  tag_32\n  jump\t// in\ntag_105:\n    /* \"#utility.yul\":4426:4510   */\n  swap8\n  pop\n    /* \"#utility.yul\":4228:4520   */\n  pop\n    /* \"#utility.yul\":4580:4582   */\n  0x60\n    /* \"#utility.yul\":4569:4578   */\n  dup11\n    /* \"#utility.yul\":4565:4583   */\n  add\n    /* \"#utility.yul\":4559:4584   */\n  mload\n    /* \"#utility.yul\":4611:4629   */\n  0xffffffffffffffff\n    /* \"#utility.yul\":4603:4609   */\n  dup2\n    /* \"#utility.yul\":4600:4630   */\n  gt\n    /* \"#utility.yul\":4597:4714   */\n  iszero\n  tag_106\n  jumpi\n    /* \"#utility.yul\":4633:4712   */\n  tag_107\n  tag_15\n  jump\t// in\ntag_107:\n    /* \"#utility.yul\":4597:4714   */\ntag_106:\n    /* \"#utility.yul\":4738:4812   */\n  tag_108\n    /* \"#utility.yul\":4804:4811   */\n  dup13\n    /* \"#utility.yul\":4795:4801   */\n  dup3\n    /* \"#utility.yul\":4784:4793   */\n  dup14\n    /* \"#utility.yul\":4780:4802   */\n  add\n    /* \"#utility.yul\":4738:4812   */\n  tag_32\n  jump\t// in\ntag_108:\n    /* \"#utility.yul\":4728:4812   */\n  swap7\n  pop\n    /* \"#utility.yul\":4530:4822   */\n  pop\n    /* \"#utility.yul\":4882:4885   */\n  0x80\n    /* \"#utility.yul\":4871:4880   */\n  dup11\n    /* \"#utility.yul\":4867:4886   */\n  add\n    /* \"#utility.yul\":4861:4887   */\n  mload\n    /* \"#utility.yul\":4914:4932   */\n  0xffffffffffffffff\n    /* \"#utility.yul\":4906:4912   */\n  dup2\n    /* \"#utility.yul\":4903:4933   */\n  gt\n    /* \"#utility.yul\":4900:5017   */\n  iszero\n  tag_109\n  jumpi\n    /* \"#utility.yul\":4936:5015   */\n  tag_110\n  tag_15\n  jump\t// in\ntag_110:\n    /* \"#utility.yul\":4900:5017   */\ntag_109:\n    /* \"#utility.yul\":5041:5115   */\n  tag_111\n    /* \"#utility.yul\":5107:5114   */\n  dup13\n    /* \"#utility.yul\":5098:5104   */\n  dup3\n    /* \"#utility.yul\":5087:5096   */\n  dup14\n    /* \"#utility.yul\":5083:5105   */\n  add\n    /* \"#utility.yul\":5041:5115   */\n  tag_32\n  jump\t// in\ntag_111:\n    /* \"#utility.yul\":5031:5115   */\n  swap6\n  pop\n    /* \"#utility.yul\":4832:5125   */\n  pop\n    /* \"#utility.yul\":5164:5167   */\n  0xa0\n    /* \"#utility.yul\":5191:5255   */\n  tag_112\n    /* \"#utility.yul\":5247:5254   */\n  dup13\n    /* \"#utility.yul\":5238:5244   */\n  dup3\n    /* \"#utility.yul\":5227:5236   */\n  dup14\n    /* \"#utility.yul\":5223:5245   */\n  add\n    /* \"#utility.yul\":5191:5255   */\n  tag_18\n  jump\t// in\ntag_112:\n    /* \"#utility.yul\":5181:5255   */\n  swap5\n  pop\n    /* \"#utility.yul\":5135:5265   */\n  pop\n    /* \"#utility.yul\":5304:5307   */\n  0xc0\n    /* \"#utility.yul\":5331:5395   */\n  tag_113\n    /* \"#utility.yul\":5387:5394   */\n  dup13\n    /* \"#utility.yul\":5378:5384   */\n  dup3\n    /* \"#utility.yul\":5367:5376   */\n  dup14\n    /* \"#utility.yul\":5363:5385   */\n  add\n    /* \"#utility.yul\":5331:5395   */\n  tag_18\n  jump\t// in\ntag_113:\n    /* \"#utility.yul\":5321:5395   */\n  swap4\n  pop\n    /* \"#utility.yul\":5275:5405   */\n  pop\n    /* \"#utility.yul\":5465:5468   */\n  0xe0\n    /* \"#utility.yul\":5454:5463   */\n  dup11\n    /* \"#utility.yul\":5450:5469   */\n  add\n    /* \"#utility.yul\":5444:5470   */\n  mload\n    /* \"#utility.yul\":5497:5515   */\n  0xffffffffffffffff\n    /* \"#utility.yul\":5489:5495   */\n  dup2\n    /* \"#utility.yul\":5486:5516   */\n  gt\n    /* \"#utility.yul\":5483:5600   */\n  iszero\n  tag_114\n  jumpi\n    /* \"#utility.yul\":5519:5598   */\n  tag_115\n  tag_15\n  jump\t// in\ntag_115:\n    /* \"#utility.yul\":5483:5600   */\ntag_114:\n    /* \"#utility.yul\":5624:5698   */\n  tag_116\n    /* \"#utility.yul\":5690:5697   */\n  dup13\n    /* \"#utility.yul\":5681:5687   */\n  dup3\n    /* \"#utility.yul\":5670:5679   */\n  dup14\n    /* \"#utility.yul\":5666:5688   */\n  add\n    /* \"#utility.yul\":5624:5698   */\n  tag_32\n  jump\t// in\ntag_116:\n    /* \"#utility.yul\":5614:5698   */\n  swap3\n  pop\n    /* \"#utility.yul\":5415:5708   */\n  pop\n    /* \"#utility.yul\":5768:5771   */\n  0x0100\n    /* \"#utility.yul\":5757:5766   */\n  dup11\n    /* \"#utility.yul\":5753:5772   */\n  add\n    /* \"#utility.yul\":5747:5773   */\n  mload\n    /* \"#utility.yul\":5800:5818   */\n  0xffffffffffffffff\n    /* \"#utility.yul\":5792:5798   */\n  dup2\n    /* \"#utility.yul\":5789:5819   */\n  gt\n    /* \"#utility.yul\":5786:5903   */\n  iszero\n  tag_117\n  jumpi\n    /* \"#utility.yul\":5822:5901   */\n  tag_118\n  tag_15\n  jump\t// in\ntag_118:\n    /* \"#utility.yul\":5786:5903   */\ntag_117:\n    /* \"#utility.yul\":5927:6001   */\n  tag_119\n    /* \"#utility.yul\":5993:6000   */\n  dup13\n    /* \"#utility.yul\":5984:5990   */\n  dup3\n    /* \"#utility.yul\":5973:5982   */\n  dup14\n    /* \"#utility.yul\":5969:5991   */\n  add\n    /* \"#utility.yul\":5927:6001   */\n  tag_32\n  jump\t// in\ntag_119:\n    /* \"#utility.yul\":5917:6001   */\n  swap2\n  pop\n    /* \"#utility.yul\":5718:6011   */\n  pop\n    /* \"#utility.yul\":3548:6018   */\n  swap3\n  swap6\n  swap9\n  pop\n  swap3\n  swap6\n  swap9\n  pop\n  swap3\n  swap6\n  swap9\n  jump\t// out\n    /* \"#utility.yul\":6024:6123   */\ntag_33:\n    /* \"#utility.yul\":6076:6082   */\n  0x00\n    /* \"#utility.yul\":6110:6115   */\n  dup2\n    /* \"#utility.yul\":6104:6116   */\n  mload\n    /* \"#utility.yul\":6094:6116   */\n  swap1\n  pop\n    /* \"#utility.yul\":6024:6123   */\n  swap2\n  swap1\n  pop\n  jump\t// out\n    /* \"#utility.yul\":6129:6309   */\ntag_34:\n    /* \"#utility.yul\":6177:6254   */\n  0x4e487b7100000000000000000000000000000000000000000000000000000000\n    /* \"#utility.yul\":6174:6175   */\n  0x00\n    /* \"#utility.yul\":6167:6255   */\n  mstore\n    /* \"#utility.yul\":6274:6278   */\n  0x22\n    /* \"#utility.yul\":6271:6272   */\n  0x04\n    /* \"#utility.yul\":6264:6279   */\n  mstore\n    /* \"#utility.yul\":6298:6302   */\n  0x24\n    /* \"#utility.yul\":6295:6296   */\n  0x00\n    /* \"#utility.yul\":6288:6303   */\n  revert\n    /* \"#utility.yul\":6315:6635   */\ntag_35:\n    /* \"#utility.yul\":6359:6365   */\n  0x00\n    /* \"#utility.yul\":6396:6397   */\n  0x02\n    /* \"#utility.yul\":6390:6394   */\n  dup3\n    /* \"#utility.yul\":6386:6398   */\n  div\n    /* \"#utility.yul\":6376:6398   */\n  swap1\n  pop\n    /* \"#utility.yul\":6443:6444   */\n  0x01\n    /* \"#utility.yul\":6437:6441   */\n  dup3\n    /* \"#utility.yul\":6433:6445   */\n  and\n    /* \"#utility.yul\":6464:6482   */\n  dup1\n    /* \"#utility.yul\":6454:6535   */\n  tag_123\n  jumpi\n    /* \"#utility.yul\":6520:6524   */\n  0x7f\n    /* \"#utility.yul\":6512:6518   */\n  dup3\n    /* \"#utility.yul\":6508:6525   */\n  and\n    /* \"#utility.yul\":6498:6525   */\n  swap2\n  pop\n    /* \"#utility.yul\":6454:6535   */\ntag_123:\n    /* \"#utility.yul\":6582:6584   */\n  0x20\n    /* \"#utility.yul\":6574:6580   */\n  dup3\n    /* \"#utility.yul\":6571:6585   */\n  lt\n    /* \"#utility.yul\":6551:6569   */\n  dup2\n    /* \"#utility.yul\":6548:6586   */\n  sub\n    /* \"#utility.yul\":6545:6629   */\n  tag_124\n  jumpi\n    /* \"#utility.yul\":6601:6619   */\n  tag_125\n  tag_34\n  jump\t// in\ntag_125:\n    /* \"#utility.yul\":6545:6629   */\ntag_124:\n    /* \"#utility.yul\":6366:6635   */\n  pop\n    /* \"#utility.yul\":6315:6635   */\n  swap2\n  swap1\n  pop\n  jump\t// out\n    /* \"#utility.yul\":6641:6782   */\ntag_36:\n    /* \"#utility.yul\":6690:6694   */\n  0x00\n    /* \"#utility.yul\":6713:6716   */\n  dup2\n    /* \"#utility.yul\":6705:6716   */\n  swap1\n  pop\n    /* \"#utility.yul\":6736:6739   */\n  dup2\n    /* \"#utility.yul\":6733:6734   */\n  0x00\n    /* \"#utility.yul\":6726:6740   */\n  mstore\n    /* \"#utility.yul\":6770:6774   */\n  0x20\n    /* \"#utility.yul\":6767:6768   */\n  0x00\n    /* \"#utility.yul\":6757:6775   */\n  keccak256\n    /* \"#utility.yul\":6749:6775   */\n  swap1\n  pop\n    /* \"#utility.yul\":6641:6782   */\n  swap2\n  swap1\n  pop\n  jump\t// out\n    /* \"#utility.yul\":6788:6881   */\ntag_37:\n    /* \"#utility.yul\":6825:6831   */\n  0x00\n    /* \"#utility.yul\":6872:6874   */\n  0x20\n    /* \"#utility.yul\":6867:6869   */\n  0x1f\n    /* \"#utility.yul\":6860:6865   */\n  dup4\n    /* \"#utility.yul\":6856:6870   */\n  add\n    /* \"#utility.yul\":6852:6875   */\n  div\n    /* \"#utility.yul\":6842:6875   */\n  swap1\n  pop\n    /* \"#utility.yul\":6788:6881   */\n  swap2\n  swap1\n  pop\n  jump\t// out\n    /* \"#utility.yul\":6887:6994   */\ntag_38:\n    /* \"#utility.yul\":6931:6939   */\n  0x00\n    /* \"#utility.yul\":6981:6986   */\n  dup3\n    /* \"#utility.yul\":6975:6979   */\n  dup3\n    /* \"#utility.yul\":6971:6987   */\n  shl\n    /* \"#utility.yul\":6950:6987   */\n  swap1\n  pop\n    /* \"#utility.yul\":6887:6994   */\n  swap3\n  swap2\n  pop\n  pop\n  jump\t// out\n    /* \"#utility.yul\":7000:7393   */\ntag_39:\n    /* \"#utility.yul\":7069:7075   */\n  0x00\n    /* \"#utility.yul\":7119:7120   */\n  0x08\n    /* \"#utility.yul\":7107:7117   */\n  dup4\n    /* \"#utility.yul\":7103:7121   */\n  mul\n    /* \"#utility.yul\":7142:7239   */\n  tag_130\n    /* \"#utility.yul\":7172:7238   */\n  0xffffffffffffffffffffffffffffffffffffffffffffffffffffffffffffffff\n    /* \"#utility.yul\":7161:7170   */\n  dup3\n    /* \"#utility.yul\":7142:7239   */\n  tag_38\n  jump\t// in\ntag_130:\n    /* \"#utility.yul\":7260:7299   */\n  tag_131\n    /* \"#utility.yul\":7290:7298   */\n  dup7\n    /* \"#utility.yul\":7279:7288   */\n  dup4\n    /* \"#utility.yul\":7260:7299   */\n  tag_38\n  jump\t// in\ntag_131:\n    /* \"#utility.yul\":7248:7299   */\n  swap6\n  pop\n    /* \"#utility.yul\":7332:7336   */\n  dup1\n    /* \"#utility.yul\":7328:7337   */\n  not\n    /* \"#utility.yul\":7321:7326   */\n  dup5\n    /* \"#utility.yul\":7317:7338   */\n  and\n    /* \"#utility.yul\":7308:7338   */\n  swap4\n  pop\n    /* \"#utility.yul\":7381:7385   */\n  dup1\n    /* \"#utility.yul\":7371:7379   */\n  dup7\n    /* \"#utility.yul\":7367:7386   */\n  and\n    /* \"#utility.yul\":7360:7365   */\n  dup5\n    /* \"#utility.yul\":7357:7387   */\n  or\n    /* \"#utility.yul\":7347:7387   */\n  swap3\n  pop\n    /* \"#utility.yul\":7076:7393   */\n  pop\n  pop\n    /* \"#utility.yul\":7000:7393   */\n  swap4\n  swap3\n  pop\n  pop\n  pop\n  jump\t// out\n    /* \"#utility.yul\":7399:7459   */\ntag_40:\n    /* \"#utility.yul\":7427:7430   */\n  0x00\n    /* \"#utility.yul\":7448:7453   */\n  dup2\n    /* \"#utility.yul\":7441:7453   */\n  swap1\n  pop\n    /* \"#utility.yul\":7399:7459   */\n  swap2\n  swap1\n  pop\n  jump\t// out\n    /* \"#utility.yul\":7465:7607   */\ntag_41:\n    /* \"#utility.yul\":7515:7524   */\n  0x00\n    /* \"#utility.yul\":7548:7601   */\n  tag_134\n    /* \"#utility.yul\":7566:7600   */\n  tag_135\n    /* \"#utility.yul\":7575:7599   */\n  tag_136\n    /* \"#utility.yul\":7593:7598   */\n  dup5\n    /* \"#utility.yul\":7575:7599   */\n  tag_16\n  jump\t// in\ntag_136:\n    /* \"#utility.yul\":7566:7600   */\n  tag_40\n  jump\t// in\ntag_135:\n    /* \"#utility.yul\":7548:7601   */\n  tag_16\n  jump\t// in\ntag_134:\n    /* \"#utility.yul\":7535:7601   */\n  swap1\n  pop\n    /* \"#utility.yul\":7465:7607   */\n  swap2\n  swap1\n  pop\n  jump\t// out\n    /* \"#utility.yul\":7613:7688   */\ntag_42:\n    /* \"#utility.yul\":7656:7659   */\n  0x00\n    /* \"#utility.yul\":7677:7682   */\n  dup2\n    /* \"#utility.yul\":7670:7682   */\n  swap1\n  pop\n    /* \"#utility.yul\":7613:7688   */\n  swap2\n  swap1\n  pop\n  jump\t// out\n    /* \"#utility.yul\":7694:7963   */\ntag_43:\n    /* \"#utility.yul\":7804:7843   */\n  tag_139\n    /* \"#utility.yul\":7835:7842   */\n  dup4\n    /* \"#utility.yul\":7804:7843   */\n  tag_41\n  jump\t// in\ntag_139:\n    /* \"#utility.yul\":7865:7956   */\n  tag_140\n    /* \"#utility.yul\":7914:7955   */\n  tag_141\n    /* \"#utility.yul\":7938:7954   */\n  dup3\n    /* \"#utility.yul\":7914:7955   */\n  tag_42\n  jump\t// in\ntag_141:\n    /* \"#utility.yul\":7906:7912   */\n  dup5\n    /* \"#utility.yul\":7899:7903   */\n  dup5\n    /* \"#utility.yul\":7893:7904   */\n  sload\n    /* \"#utility.yul\":7865:7956   */\n  tag_39\n  jump\t// in\ntag_140:\n    /* \"#utility.yul\":7859:7863   */\n  dup3\n    /* \"#utility.yul\":7852:7957   */\n  sstore\n    /* \"#utility.yul\":7770:7963   */\n  pop\n    /* \"#utility.yul\":7694:7963   */\n  pop\n  pop\n  pop\n  jump\t// out\n    /* \"#utility.yul\":7969:8042   */\ntag_44:\n    /* \"#utility.yul\":8014:8017   */\n  0x00\n    /* \"#utility.yul\":7969:8042   */\n  swap1\n  jump\t// out\n    /* \"#utility.yul\":8048:8237   */\ntag_45:\n    /* \"#utility.yul\":8125:8157   */\n  tag_144\n  tag_44\n  jump\t// in\ntag_144:\n    /* \"#utility.yul\":8166:8231   */\n  tag_145\n    /* \"#utility.yul\":8224:8230   */\n  dup2\n    /* \"#utility.yul\":8216:8222   */\n  dup5\n    /* \"#utility.yul\":8210:8214   */\n  dup5\n    /* \"#utility.yul\":8166:8231   */\n  tag_43\n  jump\t// in\ntag_145:\n    /* \"#utility.yul\":8101:8237   */\n  pop\n    /* \"#utility.yul\":8048:8237   */\n  pop\n  pop\n  jump\t// out\n    /* \"#utility.yul\":8243:8429   */\ntag_46:\n    /* \"#utility.yul\":8303:8423   */\ntag_147:\n    /* \"#utility.yul\":8320:8323   */\n  dup2\n    /* \"#utility.yul\":8313:8318   */\n  dup2\n    /* \"#utility.yul\":8310:8324   */\n  lt\n    /* \"#utility.yul\":8303:8423   */\n  iszero\n  tag_149\n  jumpi\n    /* \"#utility.yul\":8374:8413   */\n  tag_150\n    /* \"#utility.yul\":8411:8412   */\n  0x00\n    /* \"#utility.yul\":8404:8409   */\n  dup3\n    /* \"#utility.yul\":8374:8413   */\n  tag_45\n  jump\t// in\ntag_150:\n    /* \"#utility.yul\":8347:8348   */\n  0x01\n    /* \"#utility.yul\":8340:8345   */\n  dup2\n    /* \"#utility.yul\":8336:8349   */\n  add\n    /* \"#utility.yul\":8327:8349   */\n  swap1\n  pop\n    /* \"#utility.yul\":8303:8423   */\n  jump(tag_147)\ntag_149:\n    /* \"#utility.yul\":8243:8429   */\n  pop\n  pop\n  jump\t// out\n    /* \"#utility.yul\":8435:8978   */\ntag_47:\n    /* \"#utility.yul\":8536:8538   */\n  0x1f\n    /* \"#utility.yul\":8531:8534   */\n  dup3\n    /* \"#utility.yul\":8528:8539   */\n  gt\n    /* \"#utility.yul\":8525:8971   */\n  iszero\n  tag_152\n  jumpi\n    /* \"#utility.yul\":8570:8608   */\n  tag_153\n    /* \"#utility.yul\":8602:8607   */\n  dup2\n    /* \"#utility.yul\":8570:8608   */\n  tag_36\n  jump\t// in\ntag_153:\n    /* \"#utility.yul\":8654:8683   */\n  tag_154\n    /* \"#utility.yul\":8672:8682   */\n  dup5\n    /* \"#utility.yul\":8654:8683   */\n  tag_37\n  jump\t// in\ntag_154:\n    /* \"#utility.yul\":8644:8652   */\n  dup2\n    /* \"#utility.yul\":8640:8684   */\n  add\n    /* \"#utility.yul\":8837:8839   */\n  0x20\n    /* \"#utility.yul\":8825:8835   */\n  dup6\n    /* \"#utility.yul\":8822:8840   */\n  lt\n    /* \"#utility.yul\":8819:8868   */\n  iszero\n  tag_155\n  jumpi\n    /* \"#utility.yul\":8858:8866   */\n  dup2\n    /* \"#utility.yul\":8843:8866   */\n  swap1\n  pop\n    /* \"#utility.yul\":8819:8868   */\ntag_155:\n    /* \"#utility.yul\":8881:8961   */\n  tag_156\n    /* \"#utility.yul\":8937:8959   */\n  tag_157\n    /* \"#utility.yul\":8955:8958   */\n  dup6\n    /* \"#utility.yul\":8937:8959   */\n  tag_37\n  jump\t// in\ntag_157:\n    /* \"#utility.yul\":8927:8935   */\n  dup4\n    /* \"#utility.yul\":8923:8960   */\n  add\n    /* \"#utility.yul\":8910:8921   */\n  dup3\n    /* \"#utility.yul\":8881:8961   */\n  tag_46\n  jump\t// in\ntag_156:\n    /* \"#utility.yul\":8540:8971   */\n  pop\n  pop\n    /* \"#utility.yul\":8525:8971   */\ntag_152:\n    /* \"#utility.yul\":8435:8978   */\n  pop\n  pop\n  pop\n  jump\t// out\n    /* \"#utility.yul\":8984:9101   */\ntag_48:\n    /* \"#utility.yul\":9038:9046   */\n  0x00\n    /* \"#utility.yul\":9088:9093   */\n  dup3\n    /* \"#utility.yul\":9082:9086   */\n  dup3\n    /* \"#utility.yul\":9078:9094   */\n  shr\n    /* \"#utility.yul\":9057:9094   */\n  swap1\n  pop\n    /* \"#utility.yul\":8984:9101   */\n  swap3\n  swap2\n  pop\n  pop\n  jump\t// out\n    /* \"#utility.yul\":9107:9276   */\ntag_49:\n    /* \"#utility.yul\":9151:9157   */\n  0x00\n    /* \"#utility.yul\":9184:9235   */\n  tag_160\n    /* \"#utility.yul\":9232:9233   */\n  0x00\n    /* \"#utility.yul\":9228:9234   */\n  not\n    /* \"#utility.yul\":9220:9225   */\n  dup5\n    /* \"#utility.yul\":9217:9218   */\n  0x08\n    /* \"#utility.yul\":9213:9226   */\n  mul\n    /* \"#utility.yul\":9184:9235   */\n  tag_48\n  jump\t// in\ntag_160:\n    /* \"#utility.yul\":9180:9236   */\n  not\n    /* \"#utility.yul\":9265:9269   */\n  dup1\n    /* \"#utility.yul\":9259:9263   */\n  dup4\n    /* \"#utility.yul\":9255:9270   */\n  and\n    /* \"#utility.yul\":9245:9270   */\n  swap2\n  pop\n    /* \"#utility.yul\":9158:9276   */\n  pop\n    /* \"#utility.yul\":9107:9276   */\n  swap3\n  swap2\n  pop\n  pop\n  jump\t// out\n    /* \"#utility.yul\":9281:9576   */\ntag_50:\n    /* \"#utility.yul\":9357:9361   */\n  0x00\n    /* \"#utility.yul\":9503:9532   */\n  tag_162\n    /* \"#utility.yul\":9528:9531   */\n  dup4\n    /* \"#utility.yul\":9522:9526   */\n  dup4\n    /* \"#utility.yul\":9503:9532   */\n  tag_49\n  jump\t// in\ntag_162:\n    /* \"#utility.yul\":9495:9532   */\n  swap2\n  pop\n    /* \"#utility.yul\":9565:9568   */\n  dup3\n    /* \"#utility.yul\":9562:9563   */\n  0x02\n    /* \"#utility.yul\":9558:9569   */\n  mul\n    /* \"#utility.yul\":9552:9556   */\n  dup3\n    /* \"#utility.yul\":9549:9570   */\n  or\n    /* \"#utility.yul\":9541:9570   */\n  swap1\n  pop\n    /* \"#utility.yul\":9281:9576   */\n  swap3\n  swap2\n  pop\n  pop\n  jump\t// out\n    /* \"#utility.yul\":9581:10976   */\ntag_7:\n    /* \"#utility.yul\":9698:9735   */\n  tag_164\n    /* \"#utility.yul\":9731:9734   */\n  dup3\n    /* \"#utility.yul\":9698:9735   */\n  tag_33\n  jump\t// in\ntag_164:\n    /* \"#utility.yul\":9800:9818   */\n  0xffffffffffffffff\n    /* \"#utility.yul\":9792:9798   */\n  dup2\n    /* \"#utility.yul\":9789:9819   */\n  gt\n    /* \"#utility.yul\":9786:9842   */\n  iszero\n  tag_165\n  jumpi\n    /* \"#utility.yul\":9822:9840   */\n  tag_166\n  tag_26\n  jump\t// in\ntag_166:\n    /* \"#utility.yul\":9786:9842   */\ntag_165:\n    /* \"#utility.yul\":9866:9904   */\n  tag_167\n    /* \"#utility.yul\":9898:9902   */\n  dup3\n    /* \"#utility.yul\":9892:9903   */\n  sload\n    /* \"#utility.yul\":9866:9904   */\n  tag_35\n  jump\t// in\ntag_167:\n    /* \"#utility.yul\":9951:10018   */\n  tag_168\n    /* \"#utility.yul\":10011:10017   */\n  dup3\n    /* \"#utility.yul\":10003:10009   */\n  dup3\n    /* \"#utility.yul\":9997:10001   */\n  dup6\n    /* \"#utility.yul\":9951:10018   */\n  tag_47\n  jump\t// in\ntag_168:\n    /* \"#utility.yul\":10045:10046   */\n  0x00\n    /* \"#utility.yul\":10069:10073   */\n  0x20\n    /* \"#utility.yul\":10056:10073   */\n  swap1\n  pop\n    /* \"#utility.yul\":10101:10103   */\n  0x1f\n    /* \"#utility.yul\":10093:10099   */\n  dup4\n    /* \"#utility.yul\":10090:10104   */\n  gt\n    /* \"#utility.yul\":10118:10119   */\n  0x01\n    /* \"#utility.yul\":10113:10731   */\n  dup2\n  eq\n  tag_170\n  jumpi\n    /* \"#utility.yul\":10775:10776   */\n  0x00\n    /* \"#utility.yul\":10792:10798   */\n  dup5\n    /* \"#utility.yul\":10789:10866   */\n  iszero\n  tag_171\n  jumpi\n    /* \"#utility.yul\":10841:10850   */\n  dup3\n    /* \"#utility.yul\":10836:10839   */\n  dup8\n    /* \"#utility.yul\":10832:10851   */\n  add\n    /* \"#utility.yul\":10826:10852   */\n  mload\n    /* \"#utility.yul\":10817:10852   */\n  swap1\n  pop\n    /* \"#utility.yul\":10789:10866   */\ntag_171:\n    /* \"#utility.yul\":10892:10959   */\n  tag_172\n    /* \"#utility.yul\":10952:10958   */\n  dup6\n    /* \"#utility.yul\":10945:10950   */\n  dup3\n    /* \"#utility.yul\":10892:10959   */\n  tag_50\n  jump\t// in\ntag_172:\n    /* \"#utility.yul\":10886:10890   */\n  dup7\n    /* \"#utility.yul\":10879:10960   */\n  sstore\n    /* \"#utility.yul\":10748:10970   */\n  pop\n    /* \"#utility.yul\":10083:10970   */\n  jump(tag_169)\n    /* \"#utility.yul\":10113:10731   */\ntag_170:\n    /* \"#utility.yul\":10165:10169   */\n  0x1f\n    /* \"#utility.yul\":10161:10170   */\n  not\n    /* \"#utility.yul\":10153:10159   */\n  dup5\n    /* \"#utility.yul\":10149:10171   */\n  and\n    /* \"#utility.yul\":10199:10236   */\n  tag_173\n    /* \"#utility.yul\":10231:10235   */\n  dup7\n    /* \"#utility.yul\":10199:10236   */\n  tag_36\n  jump\t// in\ntag_173:\n    /* \"#utility.yul\":10258:10259   */\n  0x00\n    /* \"#utility.yul\":10272:10480   */\ntag_174:\n    /* \"#utility.yul\":10286:10293   */\n  dup3\n    /* \"#utility.yul\":10283:10284   */\n  dup2\n    /* \"#utility.yul\":10280:10294   */\n  lt\n    /* \"#utility.yul\":10272:10480   */\n  iszero\n  tag_176\n  jumpi\n    /* \"#utility.yul\":10365:10374   */\n  dup5\n    /* \"#utility.yul\":10360:10363   */\n  dup10\n    /* \"#utility.yul\":10356:10375   */\n  add\n    /* \"#utility.yul\":10350:10376   */\n  mload\n    /* \"#utility.yul\":10342:10348   */\n  dup3\n    /* \"#utility.yul\":10335:10377   */\n  sstore\n    /* \"#utility.yul\":10416:10417   */\n  0x01\n    /* \"#utility.yul\":10408:10414   */\n  dup3\n    /* \"#utility.yul\":10404:10418   */\n  add\n    /* \"#utility.yul\":10394:10418   */\n  swap2\n  pop\n    /* \"#utility.yul\":10463:10465   */\n  0x20\n    /* \"#utility.yul\":10452:10461   */\n  dup6\n    /* \"#utility.yul\":10448:10466   */\n  add\n    /* \"#utility.yul\":10435:10466   */\n  swap5\n  pop\n    /* \"#utility.yul\":10309:10313   */\n  0x20\n    /* \"#utility.yul\":10306:10307   */\n  dup2\n    /* \"#utility.yul\":10302:10314   */\n  add\n    /* \"#utility.yul\":10297:10314   */\n  swap1\n  pop\n    /* \"#utility.yul\":10272:10480   */\n  jump(tag_174)\ntag_176:\n    /* \"#utility.yul\":10508:10514   */\n  dup7\n    /* \"#utility.yul\":10499:10506   */\n  dup4\n    /* \"#utility.yul\":10496:10515   */\n  lt\n    /* \"#utility.yul\":10493:10672   */\n  iszero\n  tag_177\n  jumpi\n    /* \"#utility.yul\":10566:10575   */\n  dup5\n    /* \"#utility.yul\":10561:10564   */\n  dup10\n    /* \"#utility.yul\":10557:10576   */\n  add\n    /* \"#utility.yul\":10551:10577   */\n  mload\n    /* \"#utility.yul\":10609:10657   */\n  tag_178\n    /* \"#utility.yul\":10651:10655   */\n  0x1f\n    /* \"#utility.yul\":10643:10649   */\n  dup10\n    /* \"#utility.yul\":10639:10656   */\n  and\n    /* \"#utility.yul\":10628:10637   */\n  dup3\n    /* \"#utility.yul\":10609:10657   */\n  tag_49\n  jump\t// in\ntag_178:\n    /* \"#utility.yul\":10601:10607   */\n  dup4\n    /* \"#utility.yul\":10594:10658   */\n  sstore\n    /* \"#utility.yul\":10516:10672   */\n  pop\n    /* \"#utility.yul\":10493:10672   */\ntag_177:\n    /* \"#utility.yul\":10718:10719   */\n  0x01\n    /* \"#utility.yul\":10714:10715   */\n  0x02\n    /* \"#utility.yul\":10706:10712   */\n  dup9\n    /* \"#utility.yul\":10702:10716   */\n  mul\n    /* \"#utility.yul\":10698:10720   */\n  add\n    /* \"#utility.yul\":10692:10696   */\n  dup9\n    /* \"#utility.yul\":10685:10721   */\n  sstore\n    /* \"#utility.yul\":10120:10731   */\n  pop\n  pop\n  pop\n    /* \"#utility.yul\":10083:10970   */\ntag_169:\n  pop\n    /* \"#utility.yul\":9673:10976   */\n  pop\n  pop\n  pop\n    /* \"#utility.yul\":9581:10976   */\n  pop\n  pop\n  jump\t// out\n    /* \"Campaign.sol\":1332:5219  contract Campaign {... */\ntag_12:\n  dataSize(sub_0)\n  dup1\n  dataOffset(sub_0)\n  0x00\n  codecopy\n  0x00\n  return\nstop\n\nsub_0: assembly {\n        /* \"Campaign.sol\":1332:5219  contract Campaign {... */\n      mstore(0x40, 0x80)\n      jumpi(tag_1, lt(calldatasize, 0x04))\n      shr(0xe0, calldataload(0x00))\n      dup1\n      0x835a6172\n      gt\n      tag_22\n      jumpi\n      dup1\n      0xc40bec2b\n      gt\n      tag_23\n      jumpi\n      dup1\n      0xc40bec2b\n      eq\n      tag_17\n      jumpi\n      dup1\n      0xd7bb99ba\n      eq\n      tag_18\n      jumpi\n      dup1\n      0xd7d1bbdb\n      eq\n      tag_19\n      jumpi\n      dup1\n      0xef068a7f\n      eq\n      tag_20\n      jumpi\n      dup1\n      0xf2621741\n      eq\n      tag_21\n      jumpi\n      jump(tag_1)\n    tag_23:\n      dup1\n      0x835a6172\n      eq\n      tag_12\n      jumpi\n      dup1\n      0x8a9cfd55\n      eq\n      tag_13\n      jumpi\n      dup1\n      0x937e09b1\n      eq\n      tag_14\n      jumpi\n      dup1\n      0x9632e720\n      eq\n      tag_15\n      jumpi\n      dup1\n      0xad1d1c15\n      eq\n      tag_16\n      jumpi\n      jump(tag_1)\n    tag_22:\n      dup1\n      0x481c6a75\n      gt\n      tag_24\n      jumpi\n      dup1\n      0x481c6a75\n      eq\n      tag_7\n      jumpi\n      dup1\n      0x6779d145\n      eq\n      tag_8\n      jumpi\n      dup1\n      0x7e509220\n      eq\n      tag_9\n      jumpi\n      dup1\n      0x81d12c58\n      eq\n      tag_10\n      jumpi\n      dup1\n      0x82fde093\n      eq\n      tag_11\n      jumpi\n      jump(tag_1)\n    tag_24:\n      dup1\n      0x03441006\n      eq\n      tag_2\n      jumpi\n      dup1\n      0x04192ed5\n      eq\n      tag_3\n      jumpi\n      dup1\n      0x0a144391\n      eq\n      tag_4\n      jumpi\n      dup1\n      0x3410452a\n      eq\n      tag_5\n      jumpi\n      dup1\n      0x4051ddac\n      eq\n      tag_6\n      jumpi\n    tag_1:\n      0x00\n      dup1\n      revert\n        /* \"Campaign.sol\":3848:4155  function finalizeRequest(uint index) public restricted {... */\n    tag_2:\n      callvalue\n      dup1\n      iszero\n      tag_25\n      jumpi\n      0x00\n      dup1\n      revert\n    tag_25:\n      pop\n      tag_26\n      0x04\n      dup1\n      calldatasize\n      sub\n      dup2\n      add\n      swap1\n      tag_27\n      swap2\n      swap1\n      tag_28\n      jump\t// in\n    tag_27:\n      tag_29\n      jump\t// in\n    tag_26:\n      stop\n        /* \"Campaign.sol\":1762:1795  string public campaignCreatorName */\n    tag_3:\n      callvalue\n      dup1\n      iszero\n      tag_30\n      jumpi\n      0x00\n      dup1\n      revert\n    tag_30:\n      pop\n      tag_31\n      tag_32\n      jump\t// in\n    tag_31:\n      mload(0x40)\n      tag_33\n      swap2\n      swap1\n      tag_34\n      jump\t// in\n    tag_33:\n      mload(0x40)\n      dup1\n      swap2\n      sub\n      swap1\n      return\n        /* \"Campaign.sol\":1650:1691  mapping(address => bool) public approvers */\n    tag_4:\n      callvalue\n      dup1\n      iszero\n      tag_35\n      jumpi\n      0x00\n      dup1\n      revert\n    tag_35:\n      pop\n      tag_36\n      0x04\n      dup1\n      calldatasize\n      sub\n      dup2\n      add\n      swap1\n      tag_37\n      swap2\n      swap1\n      tag_38\n      jump\t// in\n    tag_37:\n      tag_39\n      jump\t// in\n    tag_36:\n      mload(0x40)\n      tag_40\n      swap2\n      swap1\n      tag_41\n      jump\t// in\n    tag_40:\n      mload(0x40)\n      dup1\n      swap2\n      sub\n      swap1\n      return\n        /* \"Campaign.sol\":4707:4801  function getRequestsCount() public view returns (uint) {... */\n    tag_5:\n      callvalue\n      dup1\n      iszero\n      tag_42\n      jumpi\n      0x00\n      dup1\n      revert\n    tag_42:\n      pop\n      tag_43\n      tag_44\n      jump\t// in\n    tag_43:\n      mload(0x40)\n      tag_45\n      swap2\n      swap1\n      tag_46\n      jump\t// in\n    tag_45:\n      mload(0x40)\n      dup1\n      swap2\n      sub\n      swap1\n      return\n        /* \"Campaign.sol\":4165:4697  function getSummary() public view returns (... */\n    tag_6:\n      callvalue\n      dup1\n      iszero\n      tag_47\n      jumpi\n      0x00\n      dup1\n      revert\n    tag_47:\n      pop\n      tag_48\n      tag_49\n      jump\t// in\n    tag_48:\n      mload(0x40)\n      tag_50\n      swap13\n      swap12\n      swap11\n      swap10\n      swap9\n      swap8\n      swap7\n      swap6\n      swap5\n      swap4\n      swap3\n      swap2\n      swap1\n      tag_51\n      jump\t// in\n    tag_50:\n      mload(0x40)\n      dup1\n      swap2\n      sub\n      swap1\n      return\n        /* \"Campaign.sol\":1585:1607  address public manager */\n    tag_7:\n      callvalue\n      dup1\n      iszero\n      tag_52\n      jumpi\n      0x00\n      dup1\n      revert\n    tag_52:\n      pop\n      tag_53\n      tag_54\n      jump\t// in\n    tag_53:\n      mload(0x40)\n      tag_55\n      swap2\n      swap1\n      tag_56\n      jump\t// in\n    tag_55:\n      mload(0x40)\n      dup1\n      swap2\n      sub\n      swap1\n      return\n        /* \"Campaign.sol\":1866:1893  uint public campaignEndDate */\n    tag_8:\n      callvalue\n      dup1\n      iszero\n      tag_57\n      jumpi\n      0x00\n      dup1\n      revert\n    tag_57:\n      pop\n      tag_58\n      tag_59\n      jump\t// in\n    tag_58:\n      mload(0x40)\n      tag_60\n      swap2\n      swap1\n      tag_46\n      jump\t// in\n    tag_60:\n      mload(0x40)\n      dup1\n      swap2\n      sub\n      swap1\n      return\n        /* \"Campaign.sol\":1899:1926  string public campaignImage */\n    tag_9:\n      callvalue\n      dup1\n      iszero\n      tag_61\n      jumpi\n      0x00\n      dup1\n      revert\n    tag_61:\n      pop\n      tag_62\n      tag_63\n      jump\t// in\n    tag_62:\n      mload(0x40)\n      tag_64\n      swap2\n      swap1\n      tag_34\n      jump\t// in\n    tag_64:\n      mload(0x40)\n      dup1\n      swap2\n      sub\n      swap1\n      return\n        /* \"Campaign.sol\":1554:1579  Request[] public requests */\n    tag_10:\n      callvalue\n      dup1\n      iszero\n      tag_65\n      jumpi\n      0x00\n      dup1\n      revert\n    tag_65:\n      pop\n      tag_66\n      0x04\n      dup1\n      calldatasize\n      sub\n      dup2\n      add\n      swap1\n      tag_67\n      swap2\n      swap1\n      tag_28\n      jump\t// in\n    tag_67:\n      tag_68\n      jump\t// in\n    tag_66:\n      mload(0x40)\n      tag_69\n      swap6\n      swap5\n      swap4\n      swap3\n      swap2\n      swap1\n      tag_70\n      jump\t// in\n    tag_69:\n      mload(0x40)\n      dup1\n      swap2\n      sub\n      swap1\n      return\n        /* \"Campaign.sol\":1697:1723  uint public approversCount */\n    tag_11:\n      callvalue\n      dup1\n      iszero\n      tag_71\n      jumpi\n      0x00\n      dup1\n      revert\n    tag_71:\n      pop\n      tag_72\n      tag_73\n      jump\t// in\n    tag_72:\n      mload(0x40)\n      tag_74\n      swap2\n      swap1\n      tag_46\n      jump\t// in\n    tag_74:\n      mload(0x40)\n      dup1\n      swap2\n      sub\n      swap1\n      return\n        /* \"Campaign.sol\":1729:1756  string public campaignTitle */\n    tag_12:\n      callvalue\n      dup1\n      iszero\n      tag_75\n      jumpi\n      0x00\n      dup1\n      revert\n    tag_75:\n      pop\n      tag_76\n      tag_77\n      jump\t// in\n    tag_76:\n      mload(0x40)\n      tag_78\n      swap2\n      swap1\n      tag_34\n      jump\t// in\n    tag_78:\n      mload(0x40)\n      dup1\n      swap2\n      sub\n      swap1\n      return\n        /* \"Campaign.sol\":3211:3565  function createRequest(string memory description, uint value, address recipient) public restricted {... */\n    tag_13:\n      callvalue\n      dup1\n      iszero\n      tag_79\n      jumpi\n      0x00\n      dup1\n      revert\n    tag_79:\n      pop\n      tag_80\n      0x04\n      dup1\n      calldatasize\n      sub\n      dup2\n      add\n      swap1\n      tag_81\n      swap2\n      swap1\n      tag_82\n      jump\t// in\n    tag_81:\n      tag_83\n      jump\t// in\n    tag_80:\n      stop\n        /* \"Campaign.sol\":1613:1644  uint public minimumContribution */\n    tag_14:\n      callvalue\n      dup1\n      iszero\n      tag_84\n      jumpi\n      0x00\n      dup1\n      revert\n    tag_84:\n      pop\n      tag_85\n      tag_86\n      jump\t// in\n    tag_85:\n      mload(0x40)\n      tag_87\n      swap2\n      swap1\n      tag_46\n      jump\t// in\n    tag_87:\n      mload(0x40)\n      dup1\n      swap2\n      sub\n      swap1\n      return\n        /* \"Campaign.sol\":1932:1958  uint public receivedAmount */\n    tag_15:\n      callvalue\n      dup1\n      iszero\n      tag_88\n      jumpi\n      0x00\n      dup1\n      revert\n    tag_88:\n      pop\n      tag_89\n      tag_90\n      jump\t// in\n    tag_89:\n      mload(0x40)\n      tag_91\n      swap2\n      swap1\n      tag_46\n      jump\t// in\n    tag_91:\n      mload(0x40)\n      dup1\n      swap2\n      sub\n      swap1\n      return\n        /* \"Campaign.sol\":1801:1828  string public campaignStory */\n    tag_16:\n      callvalue\n      dup1\n      iszero\n      tag_92\n      jumpi\n      0x00\n      dup1\n      revert\n    tag_92:\n      pop\n      tag_93\n      tag_94\n      jump\t// in\n    tag_93:\n      mload(0x40)\n      tag_95\n      swap2\n      swap1\n      tag_34\n      jump\t// in\n    tag_95:\n      mload(0x40)\n      dup1\n      swap2\n      sub\n      swap1\n      return\n        /* \"Campaign.sol\":1964:1994  string public campaignCategory */\n    tag_17:\n      callvalue\n      dup1\n      iszero\n      tag_96\n      jumpi\n      0x00\n      dup1\n      revert\n    tag_96:\n      pop\n      tag_97\n      tag_98\n      jump\t// in\n    tag_97:\n      mload(0x40)\n      tag_99\n      swap2\n      swap1\n      tag_34\n      jump\t// in\n    tag_99:\n      mload(0x40)\n      dup1\n      swap2\n      sub\n      swap1\n      return\n        /* \"Campaign.sol\":2807:3205  function contribute() public payable {... */\n    tag_18:\n      tag_100\n      tag_101\n      jump\t// in\n    tag_100:\n      stop\n        /* \"Campaign.sol\":3571:3842  function approveRequest(uint index) public {... */\n    tag_19:\n      callvalue\n      dup1\n      iszero\n      tag_102\n      jumpi\n      0x00\n      dup1\n      revert\n    tag_102:\n      pop\n      tag_103\n      0x04\n      dup1\n      calldatasize\n      sub\n      dup2\n      add\n      swap1\n      tag_104\n      swap2\n      swap1\n      tag_28\n      jump\t// in\n    tag_104:\n      tag_105\n      jump\t// in\n    tag_103:\n      stop\n        /* \"Campaign.sol\":1835:1859  uint public campaignGoal */\n    tag_20:\n      callvalue\n      dup1\n      iszero\n      tag_106\n      jumpi\n      0x00\n      dup1\n      revert\n    tag_106:\n      pop\n      tag_107\n      tag_108\n      jump\t// in\n    tag_107:\n      mload(0x40)\n      tag_109\n      swap2\n      swap1\n      tag_46\n      jump\t// in\n    tag_109:\n      mload(0x40)\n      dup1\n      swap2\n      sub\n      swap1\n      return\n        /* \"Campaign.sol\":4807:5216  function getDaysRemaining() public view returns (uint) {... */\n    tag_21:\n      callvalue\n      dup1\n      iszero\n      tag_110\n      jumpi\n      0x00\n      dup1\n      revert\n    tag_110:\n      pop\n      tag_111\n      tag_112\n      jump\t// in\n    tag_111:\n      mload(0x40)\n      tag_113\n      swap2\n      swap1\n      tag_46\n      jump\t// in\n    tag_113:\n      mload(0x40)\n      dup1\n      swap2\n      sub\n      swap1\n      return\n        /* \"Campaign.sol\":3848:4155  function finalizeRequest(uint index) public restricted {... */\n    tag_29:\n        /* \"Campaign.sol\":2055:2062  manager */\n      0x01\n      0x00\n      swap1\n      sload\n      swap1\n      0x0100\n      exp\n      swap1\n      div\n      0xffffffffffffffffffffffffffffffffffffffff\n      and\n        /* \"Campaign.sol\":2041:2062  msg.sender == manager */\n      0xffffffffffffffffffffffffffffffffffffffff\n      and\n        /* \"Campaign.sol\":2041:2051  msg.sender */\n      caller\n        /* \"Campaign.sol\":2041:2062  msg.sender == manager */\n      0xffffffffffffffffffffffffffffffffffffffff\n      and\n      eq\n        /* \"Campaign.sol\":2033:2063  require(msg.sender == manager) */\n      tag_115\n      jumpi\n      0x00\n      dup1\n      revert\n    tag_115:\n        /* \"Campaign.sol\":3913:3936  Request storage request */\n      0x00\n        /* \"Campaign.sol\":3939:3947  requests */\n      dup1\n        /* \"Campaign.sol\":3948:3953  index */\n      dup3\n        /* \"Campaign.sol\":3939:3954  requests[index] */\n      dup2\n      sload\n      dup2\n      lt\n      tag_117\n      jumpi\n      tag_118\n      tag_119\n      jump\t// in\n    tag_118:\n    tag_117:\n      swap1\n      0x00\n      mstore\n      keccak256(0x00, 0x20)\n      swap1\n      0x05\n      mul\n      add\n        /* \"Campaign.sol\":3913:3954  Request storage request = requests[index] */\n      swap1\n      pop\n        /* \"Campaign.sol\":4015:4016  2 */\n      0x02\n        /* \"Campaign.sol\":3998:4012  approversCount */\n      sload(0x04)\n        /* \"Campaign.sol\":3998:4016  approversCount / 2 */\n      tag_121\n      swap2\n      swap1\n      tag_122\n      jump\t// in\n    tag_121:\n        /* \"Campaign.sol\":3973:3980  request */\n      dup2\n        /* \"Campaign.sol\":3973:3994  request.approvalCount */\n      0x03\n      add\n      sload\n        /* \"Campaign.sol\":3973:4017  request.approvalCount > (approversCount / 2) */\n      gt\n        /* \"Campaign.sol\":3965:4018  require(request.approvalCount > (approversCount / 2)) */\n      tag_123\n      jumpi\n      0x00\n      dup1\n      revert\n    tag_123:\n        /* \"Campaign.sol\":4037:4044  request */\n      dup1\n        /* \"Campaign.sol\":4037:4053  request.complete */\n      0x02\n      add\n      0x14\n      swap1\n      sload\n      swap1\n      0x0100\n      exp\n      swap1\n      div\n      0xff\n      and\n        /* \"Campaign.sol\":4036:4053  !request.complete */\n      iszero\n        /* \"Campaign.sol\":4028:4054  require(!request.complete) */\n      tag_124\n      jumpi\n      0x00\n      dup1\n      revert\n    tag_124:\n        /* \"Campaign.sol\":4073:4080  request */\n      dup1\n        /* \"Campaign.sol\":4073:4090  request.recipient */\n      0x02\n      add\n      0x00\n      swap1\n      sload\n      swap1\n      0x0100\n      exp\n      swap1\n      div\n      0xffffffffffffffffffffffffffffffffffffffff\n      and\n        /* \"Campaign.sol\":4065:4100  payable(request.recipient).transfer */\n      0xffffffffffffffffffffffffffffffffffffffff\n      and\n        /* \"Campaign.sol\":4065:4115  payable(request.recipient).transfer(request.value) */\n      0x08fc\n        /* \"Campaign.sol\":4101:4108  request */\n      dup3\n        /* \"Campaign.sol\":4101:4114  request.value */\n      0x01\n      add\n      sload\n        /* \"Campaign.sol\":4065:4115  payable(request.recipient).transfer(request.value) */\n      swap1\n      dup2\n      iszero\n      mul\n      swap1\n      mload(0x40)\n      0x00\n      mload(0x40)\n      dup1\n      dup4\n      sub\n      dup2\n      dup6\n      dup9\n      dup9\n      call\n      swap4\n      pop\n      pop\n      pop\n      pop\n      iszero\n      dup1\n      iszero\n      tag_126\n      jumpi\n      returndatasize\n      0x00\n      dup1\n      returndatacopy\n      revert(0x00, returndatasize)\n    tag_126:\n      pop\n        /* \"Campaign.sol\":4144:4148  true */\n      0x01\n        /* \"Campaign.sol\":4125:4132  request */\n      dup2\n        /* \"Campaign.sol\":4125:4141  request.complete */\n      0x02\n      add\n      0x14\n        /* \"Campaign.sol\":4125:4148  request.complete = true */\n      0x0100\n      exp\n      dup2\n      sload\n      dup2\n      0xff\n      mul\n      not\n      and\n      swap1\n      dup4\n      iszero\n      iszero\n      mul\n      or\n      swap1\n      sstore\n      pop\n        /* \"Campaign.sol\":3903:4155  {... */\n      pop\n        /* \"Campaign.sol\":3848:4155  function finalizeRequest(uint index) public restricted {... */\n      pop\n      jump\t// out\n        /* \"Campaign.sol\":1762:1795  string public campaignCreatorName */\n    tag_32:\n      0x06\n      dup1\n      sload\n      tag_127\n      swap1\n      tag_128\n      jump\t// in\n    tag_127:\n      dup1\n      0x1f\n      add\n      0x20\n      dup1\n      swap2\n      div\n      mul\n      0x20\n      add\n      mload(0x40)\n      swap1\n      dup2\n      add\n      0x40\n      mstore\n      dup1\n      swap3\n      swap2\n      swap1\n      dup2\n      dup2\n      mstore\n      0x20\n      add\n      dup3\n      dup1\n      sload\n      tag_129\n      swap1\n      tag_128\n      jump\t// in\n    tag_129:\n      dup1\n      iszero\n      tag_130\n      jumpi\n      dup1\n      0x1f\n      lt\n      tag_131\n      jumpi\n      0x0100\n      dup1\n      dup4\n      sload\n      div\n      mul\n      dup4\n      mstore\n      swap2\n      0x20\n      add\n      swap2\n      jump(tag_130)\n    tag_131:\n      dup3\n      add\n      swap2\n      swap1\n      0x00\n      mstore\n      keccak256(0x00, 0x20)\n      swap1\n    tag_132:\n      dup2\n      sload\n      dup2\n      mstore\n      swap1\n      0x01\n      add\n      swap1\n      0x20\n      add\n      dup1\n      dup4\n      gt\n      tag_132\n      jumpi\n      dup3\n      swap1\n      sub\n      0x1f\n      and\n      dup3\n      add\n      swap2\n    tag_130:\n      pop\n      pop\n      pop\n      pop\n      pop\n      dup2\n      jump\t// out\n        /* \"Campaign.sol\":1650:1691  mapping(address => bool) public approvers */\n    tag_39:\n      mstore(0x20, 0x03)\n      dup1\n      0x00\n      mstore\n      keccak256(0x00, 0x40)\n      0x00\n      swap2\n      pop\n      sload\n      swap1\n      0x0100\n      exp\n      swap1\n      div\n      0xff\n      and\n      dup2\n      jump\t// out\n        /* \"Campaign.sol\":4707:4801  function getRequestsCount() public view returns (uint) {... */\n    tag_44:\n        /* \"Campaign.sol\":4756:4760  uint */\n      0x00\n        /* \"Campaign.sol\":4779:4787  requests */\n      dup1\n        /* \"Campaign.sol\":4779:4794  requests.length */\n      dup1\n      sload\n      swap1\n      pop\n        /* \"Campaign.sol\":4772:4794  return requests.length */\n      swap1\n      pop\n        /* \"Campaign.sol\":4707:4801  function getRequestsCount() public view returns (uint) {... */\n      swap1\n      jump\t// out\n        /* \"Campaign.sol\":4165:4697  function getSummary() public view returns (... */\n    tag_49:\n        /* \"Campaign.sol\":4215:4219  uint */\n      0x00\n        /* \"Campaign.sol\":4221:4225  uint */\n      dup1\n        /* \"Campaign.sol\":4227:4231  uint */\n      0x00\n        /* \"Campaign.sol\":4233:4237  uint */\n      dup1\n        /* \"Campaign.sol\":4239:4246  address */\n      0x00\n        /* \"Campaign.sol\":4248:4261  string memory */\n      0x60\n        /* \"Campaign.sol\":4263:4276  string memory */\n      dup1\n        /* \"Campaign.sol\":4278:4291  string memory */\n      0x60\n        /* \"Campaign.sol\":4293:4297  uint */\n      0x00\n        /* \"Campaign.sol\":4299:4303  uint */\n      dup1\n        /* \"Campaign.sol\":4305:4318  string memory */\n      0x60\n        /* \"Campaign.sol\":4320:4333  string memory */\n      dup1\n        /* \"Campaign.sol\":4371:4390  minimumContribution */\n      sload(0x02)\n        /* \"Campaign.sol\":4402:4423  address(this).balance */\n      selfbalance\n        /* \"Campaign.sol\":4435:4443  requests */\n      0x00\n        /* \"Campaign.sol\":4435:4450  requests.length */\n      dup1\n      sload\n      swap1\n      pop\n        /* \"Campaign.sol\":4462:4476  approversCount */\n      sload(0x04)\n        /* \"Campaign.sol\":4488:4495  manager */\n      0x01\n      0x00\n      swap1\n      sload\n      swap1\n      0x0100\n      exp\n      swap1\n      div\n      0xffffffffffffffffffffffffffffffffffffffff\n      and\n        /* \"Campaign.sol\":4507:4520  campaignTitle */\n      0x05\n        /* \"Campaign.sol\":4532:4551  campaignCreatorName */\n      0x06\n        /* \"Campaign.sol\":4563:4576  campaignStory */\n      0x07\n        /* \"Campaign.sol\":4588:4600  campaignGoal */\n      sload(0x08)\n        /* \"Campaign.sol\":4612:4627  campaignEndDate */\n      sload(0x09)\n        /* \"Campaign.sol\":4639:4652  campaignImage */\n      0x0a\n        /* \"Campaign.sol\":4664:4680  campaignCategory */\n      0x0c\n        /* \"Campaign.sol\":4352:4690  return (... */\n      dup7\n      dup1\n      sload\n      tag_135\n      swap1\n      tag_128\n      jump\t// in\n    tag_135:\n      dup1\n      0x1f\n      add\n      0x20\n      dup1\n      swap2\n      div\n      mul\n      0x20\n      add\n      mload(0x40)\n      swap1\n      dup2\n      add\n      0x40\n      mstore\n      dup1\n      swap3\n      swap2\n      swap1\n      dup2\n      dup2\n      mstore\n      0x20\n      add\n      dup3\n      dup1\n      sload\n      tag_136\n      swap1\n      tag_128\n      jump\t// in\n    tag_136:\n      dup1\n      iszero\n      tag_137\n      jumpi\n      dup1\n      0x1f\n      lt\n      tag_138\n      jumpi\n      0x0100\n      dup1\n      dup4\n      sload\n      div\n      mul\n      dup4\n      mstore\n      swap2\n      0x20\n      add\n      swap2\n      jump(tag_137)\n    tag_138:\n      dup3\n      add\n      swap2\n      swap1\n      0x00\n      mstore\n      keccak256(0x00, 0x20)\n      swap1\n    tag_139:\n      dup2\n      sload\n      dup2\n      mstore\n      swap1\n      0x01\n      add\n      swap1\n      0x20\n      add\n      dup1\n      dup4\n      gt\n      tag_139\n      jumpi\n      dup3\n      swap1\n      sub\n      0x1f\n      and\n      dup3\n      add\n      swap2\n    tag_137:\n      pop\n      pop\n      pop\n      pop\n      pop\n      swap7\n      pop\n      dup6\n      dup1\n      sload\n      tag_140\n      swap1\n      tag_128\n      jump\t// in\n    tag_140:\n      dup1\n      0x1f\n      add\n      0x20\n      dup1\n      swap2\n      div\n      mul\n      0x20\n      add\n      mload(0x40)\n      swap1\n      dup2\n      add\n      0x40\n      mstore\n      dup1\n      swap3\n      swap2\n      swap1\n      dup2\n      dup2\n      mstore\n      0x20\n      add\n      dup3\n      dup1\n      sload\n      tag_141\n      swap1\n      tag_128\n      jump\t// in\n    tag_141:\n      dup1\n      iszero\n      tag_142\n      jumpi\n      dup1\n      0x1f\n      lt\n      tag_143\n      jumpi\n      0x0100\n      dup1\n      dup4\n      sload\n      div\n      mul\n      dup4\n      mstore\n      swap2\n      0x20\n      add\n      swap2\n      jump(tag_142)\n    tag_143:\n      dup3\n      add\n      swap2\n      swap1\n      0x00\n      mstore\n      keccak256(0x00, 0x20)\n      swap1\n    tag_144:\n      dup2\n      sload\n      dup2\n      mstore\n      swap1\n      0x01\n      add\n      swap1\n      0x20\n      add\n      dup1\n      dup4\n      gt\n      tag_144\n      jumpi\n      dup3\n      swap1\n      sub\n      0x1f\n      and\n      dup3\n      add\n      swap2\n    tag_142:\n      pop\n      pop\n      pop\n      pop\n      pop\n      swap6\n      pop\n      dup5\n      dup1\n      sload\n      tag_145\n      swap1\n      tag_128\n      jump\t// in\n    tag_145:\n      dup1\n      0x1f\n      add\n      0x20\n      dup1\n      swap2\n      div\n      mul\n      0x20\n      add\n      mload(0x40)\n      swap1\n      dup2\n      add\n      0x40\n      mstore\n      dup1\n      swap3\n      swap2\n      swap1\n      dup2\n      dup2\n      mstore\n      0x20\n      add\n      dup3\n      dup1\n      sload\n      tag_146\n      swap1\n      tag_128\n      jump\t// in\n    tag_146:\n      dup1\n      iszero\n      tag_147\n      jumpi\n      dup1\n      0x1f\n      lt\n      tag_148\n      jumpi\n      0x0100\n      dup1\n      dup4\n      sload\n      div\n      mul\n      dup4\n      mstore\n      swap2\n      0x20\n      add\n      swap2\n      jump(tag_147)\n    tag_148:\n      dup3\n      add\n      swap2\n      swap1\n      0x00\n      mstore\n      keccak256(0x00, 0x20)\n      swap1\n    tag_149:\n      dup2\n      sload\n      dup2\n      mstore\n      swap1\n      0x01\n      add\n      swap1\n      0x20\n      add\n      dup1\n      dup4\n      gt\n      tag_149\n      jumpi\n      dup3\n      swap1\n      sub\n      0x1f\n      and\n      dup3\n      add\n      swap2\n    tag_147:\n      pop\n      pop\n      pop\n      pop\n      pop\n      swap5\n      pop\n      dup2\n      dup1\n      sload\n      tag_150\n      swap1\n      tag_128\n      jump\t// in\n    tag_150:\n      dup1\n      0x1f\n      add\n      0x20\n      dup1\n      swap2\n      div\n      mul\n      0x20\n      add\n      mload(0x40)\n      swap1\n      dup2\n      add\n      0x40\n      mstore\n      dup1\n      swap3\n      swap2\n      swap1\n      dup2\n      dup2\n      mstore\n      0x20\n      add\n      dup3\n      dup1\n      sload\n      tag_151\n      swap1\n      tag_128\n      jump\t// in\n    tag_151:\n      dup1\n      iszero\n      tag_152\n      jumpi\n      dup1\n      0x1f\n      lt\n      tag_153\n      jumpi\n      0x0100\n      dup1\n      dup4\n      sload\n      div\n      mul\n      dup4\n      mstore\n      swap2\n      0x20\n      add\n      swap2\n      jump(tag_152)\n    tag_153:\n      dup3\n      add\n      swap2\n      swap1\n      0x00\n      mstore\n      keccak256(0x00, 0x20)\n      swap1\n    tag_154:\n      dup2\n      sload\n      dup2\n      mstore\n      swap1\n      0x01\n      add\n      swap1\n      0x20\n      add\n      dup1\n      dup4\n      gt\n      tag_154\n      jumpi\n      dup3\n      swap1\n      sub\n      0x1f\n      and\n      dup3\n      add\n      swap2\n    tag_152:\n      pop\n      pop\n      pop\n      pop\n      pop\n      swap2\n      pop\n      dup1\n      dup1\n      sload\n      tag_155\n      swap1\n      tag_128\n      jump\t// in\n    tag_155:\n      dup1\n      0x1f\n      add\n      0x20\n      dup1\n      swap2\n      div\n      mul\n      0x20\n      add\n      mload(0x40)\n      swap1\n      dup2\n      add\n      0x40\n      mstore\n      dup1\n      swap3\n      swap2\n      swap1\n      dup2\n      dup2\n      mstore\n      0x20\n      add\n      dup3\n      dup1\n      sload\n      tag_156\n      swap1\n      tag_128\n      jump\t// in\n    tag_156:\n      dup1\n      iszero\n      tag_157\n      jumpi\n      dup1\n      0x1f\n      lt\n      tag_158\n      jumpi\n      0x0100\n      dup1\n      dup4\n      sload\n      div\n      mul\n      dup4\n      mstore\n      swap2\n      0x20\n      add\n      swap2\n      jump(tag_157)\n    tag_158:\n      dup3\n      add\n      swap2\n      swap1\n      0x00\n      mstore\n      keccak256(0x00, 0x20)\n      swap1\n    tag_159:\n      dup2\n      sload\n      dup2\n      mstore\n      swap1\n      0x01\n      add\n      swap1\n      0x20\n      add\n      dup1\n      dup4\n      gt\n      tag_159\n      jumpi\n      dup3\n      swap1\n      sub\n      0x1f\n      and\n      dup3\n      add\n      swap2\n    tag_157:\n      pop\n      pop\n      pop\n      pop\n      pop\n      swap1\n      pop\n      swap12\n      pop\n      swap12\n      pop\n      swap12\n      pop\n      swap12\n      pop\n      swap12\n      pop\n      swap12\n      pop\n      swap12\n      pop\n      swap12\n      pop\n      swap12\n      pop\n      swap12\n      pop\n      swap12\n      pop\n      swap12\n      pop\n        /* \"Campaign.sol\":4165:4697  function getSummary() public view returns (... */\n      swap1\n      swap2\n      swap3\n      swap4\n      swap5\n      swap6\n      swap7\n      swap8\n      swap9\n      swap10\n      swap11\n      swap12\n      jump\t// out\n        /* \"Campaign.sol\":1585:1607  address public manager */\n    tag_54:\n      0x01\n      0x00\n      swap1\n      sload\n      swap1\n      0x0100\n      exp\n      swap1\n      div\n      0xffffffffffffffffffffffffffffffffffffffff\n      and\n      dup2\n      jump\t// out\n        /* \"Campaign.sol\":1866:1893  uint public campaignEndDate */\n    tag_59:\n      sload(0x09)\n      dup2\n      jump\t// out\n        /* \"Campaign.sol\":1899:1926  string public campaignImage */\n    tag_63:\n      0x0a\n      dup1\n      sload\n      tag_160\n      swap1\n      tag_128\n      jump\t// in\n    tag_160:\n      dup1\n      0x1f\n      add\n      0x20\n      dup1\n      swap2\n      div\n      mul\n      0x20\n      add\n      mload(0x40)\n      swap1\n      dup2\n      add\n      0x40\n      mstore\n      dup1\n      swap3\n      swap2\n      swap1\n      dup2\n      dup2\n      mstore\n      0x20\n      add\n      dup3\n      dup1\n      sload\n      tag_161\n      swap1\n      tag_128\n      jump\t// in\n    tag_161:\n      dup1\n      iszero\n      tag_162\n      jumpi\n      dup1\n      0x1f\n      lt\n      tag_163\n      jumpi\n      0x0100\n      dup1\n      dup4\n      sload\n      div\n      mul\n      dup4\n      mstore\n      swap2\n      0x20\n      add\n      swap2\n      jump(tag_162)\n    tag_163:\n      dup3\n      add\n      swap2\n      swap1\n      0x00\n      mstore\n      keccak256(0x00, 0x20)\n      swap1\n    tag_164:\n      dup2\n      sload\n      dup2\n      mstore\n      swap1\n      0x01\n      add\n      swap1\n      0x20\n      add\n      dup1\n      dup4\n      gt\n      tag_164\n      jumpi\n      dup3\n      swap1\n      sub\n      0x1f\n      and\n      dup3\n      add\n      swap2\n    tag_162:\n      pop\n      pop\n      pop\n      pop\n      pop\n      dup2\n      jump\t// out\n        /* \"Campaign.sol\":1554:1579  Request[] public requests */\n    tag_68:\n      0x00\n      dup2\n      dup2\n      sload\n      dup2\n      lt\n      tag_165\n      jumpi\n      0x00\n      dup1\n      revert\n    tag_165:\n      swap1\n      0x00\n      mstore\n      keccak256(0x00, 0x20)\n      swap1\n      0x05\n      mul\n      add\n      0x00\n      swap2\n      pop\n      swap1\n      pop\n      dup1\n      0x00\n      add\n      dup1\n      sload\n      tag_167\n      swap1\n      tag_128\n      jump\t// in\n    tag_167:\n      dup1\n      0x1f\n      add\n      0x20\n      dup1\n      swap2\n      div\n      mul\n      0x20\n      add\n      mload(0x40)\n      swap1\n      dup2\n      add\n      0x40\n      mstore\n      dup1\n      swap3\n      swap2\n      swap1\n      dup2\n      dup2\n      mstore\n      0x20\n      add\n      dup3\n      dup1\n      sload\n      tag_168\n      swap1\n      tag_128\n      jump\t// in\n    tag_168:\n      dup1\n      iszero\n      tag_169\n      jumpi\n      dup1\n      0x1f\n      lt\n      tag_170\n      jumpi\n      0x0100\n      dup1\n      dup4\n      sload\n      div\n      mul\n      dup4\n      mstore\n      swap2\n      0x20\n      add\n      swap2\n      jump(tag_169)\n    tag_170:\n      dup3\n      add\n      swap2\n      swap1\n      0x00\n      mstore\n      keccak256(0x00, 0x20)\n      swap1\n    tag_171:\n      dup2\n      sload\n      dup2\n      mstore\n      swap1\n      0x01\n      add\n      swap1\n      0x20\n      add\n      dup1\n      dup4\n      gt\n      tag_171\n      jumpi\n      dup3\n      swap1\n      sub\n      0x1f\n      and\n      dup3\n      add\n      swap2\n    tag_169:\n      pop\n      pop\n      pop\n      pop\n      pop\n      swap1\n      dup1\n      0x01\n      add\n      sload\n      swap1\n      dup1\n      0x02\n      add\n      0x00\n      swap1\n      sload\n      swap1\n      0x0100\n      exp\n      swap1\n      div\n      0xffffffffffffffffffffffffffffffffffffffff\n      and\n      swap1\n      dup1\n      0x02\n      add\n      0x14\n      swap1\n      sload\n      swap1\n      0x0100\n      exp\n      swap1\n      div\n      0xff\n      and\n      swap1\n      dup1\n      0x03\n      add\n      sload\n      swap1\n      pop\n      dup6\n      jump\t// out\n        /* \"Campaign.sol\":1697:1723  uint public approversCount */\n    tag_73:\n      sload(0x04)\n      dup2\n      jump\t// out\n        /* \"Campaign.sol\":1729:1756  string public campaignTitle */\n    tag_77:\n      0x05\n      dup1\n      sload\n      tag_172\n      swap1\n      tag_128\n      jump\t// in\n    tag_172:\n      dup1\n      0x1f\n      add\n      0x20\n      dup1\n      swap2\n      div\n      mul\n      0x20\n      add\n      mload(0x40)\n      swap1\n      dup2\n      add\n      0x40\n      mstore\n      dup1\n      swap3\n      swap2\n      swap1\n      dup2\n      dup2\n      mstore\n      0x20\n      add\n      dup3\n      dup1\n      sload\n      tag_173\n      swap1\n      tag_128\n      jump\t// in\n    tag_173:\n      dup1\n      iszero\n      tag_174\n      jumpi\n      dup1\n      0x1f\n      lt\n      tag_175\n      jumpi\n      0x0100\n      dup1\n      dup4\n      sload\n      div\n      mul\n      dup4\n      mstore\n      swap2\n      0x20\n      add\n      swap2\n      jump(tag_174)\n    tag_175:\n      dup3\n      add\n      swap2\n      swap1\n      0x00\n      mstore\n      keccak256(0x00, 0x20)\n      swap1\n    tag_176:\n      dup2\n      sload\n      dup2\n      mstore\n      swap1\n      0x01\n      add\n      swap1\n      0x20\n      add\n      dup1\n      dup4\n      gt\n      tag_176\n      jumpi\n      dup3\n      swap1\n      sub\n      0x1f\n      and\n      dup3\n      add\n      swap2\n    tag_174:\n      pop\n      pop\n      pop\n      pop\n      pop\n      dup2\n      jump\t// out\n        /* \"Campaign.sol\":3211:3565  function createRequest(string memory description, uint value, address recipient) public restricted {... */\n    tag_83:\n        /* \"Campaign.sol\":2055:2062  manager */\n      0x01\n      0x00\n      swap1\n      sload\n      swap1\n      0x0100\n      exp\n      swap1\n      div\n      0xffffffffffffffffffffffffffffffffffffffff\n      and\n        /* \"Campaign.sol\":2041:2062  msg.sender == manager */\n      0xffffffffffffffffffffffffffffffffffffffff\n      and\n        /* \"Campaign.sol\":2041:2051  msg.sender */\n      caller\n        /* \"Campaign.sol\":2041:2062  msg.sender == manager */\n      0xffffffffffffffffffffffffffffffffffffffff\n      and\n      eq\n        /* \"Campaign.sol\":2033:2063  require(msg.sender == manager) */\n      tag_178\n      jumpi\n      0x00\n      dup1\n      revert\n    tag_178:\n        /* \"Campaign.sol\":3320:3346  Request storage newRequest */\n      0x00\n        /* \"Campaign.sol\":3349:3357  requests */\n      dup1\n        /* \"Campaign.sol\":3349:3364  requests.push() */\n      0x01\n      dup2\n      0x01\n      dup2\n      sload\n      add\n      dup1\n      dup3\n      sstore\n      dup1\n      swap2\n      pop\n      pop\n      sub\n      swap1\n      0x00\n      mstore\n      keccak256(0x00, 0x20)\n      swap1\n      0x05\n      mul\n      add\n        /* \"Campaign.sol\":3320:3364  Request storage newRequest = requests.push() */\n      swap1\n      pop\n        /* \"Campaign.sol\":3400:3411  description */\n      dup4\n        /* \"Campaign.sol\":3375:3385  newRequest */\n      dup2\n        /* \"Campaign.sol\":3375:3397  newRequest.description */\n      0x00\n      add\n        /* \"Campaign.sol\":3375:3411  newRequest.description = description */\n      swap1\n      dup2\n      tag_181\n      swap2\n      swap1\n      tag_182\n      jump\t// in\n    tag_181:\n      pop\n        /* \"Campaign.sol\":3439:3444  value */\n      dup3\n        /* \"Campaign.sol\":3421:3431  newRequest */\n      dup2\n        /* \"Campaign.sol\":3421:3437  newRequest.value */\n      0x01\n      add\n        /* \"Campaign.sol\":3421:3444  newRequest.value= value */\n      dup2\n      swap1\n      sstore\n      pop\n        /* \"Campaign.sol\":3476:3485  recipient */\n      dup2\n        /* \"Campaign.sol\":3454:3464  newRequest */\n      dup2\n        /* \"Campaign.sol\":3454:3474  newRequest.recipient */\n      0x02\n      add\n      0x00\n        /* \"Campaign.sol\":3454:3485  newRequest.recipient= recipient */\n      0x0100\n      exp\n      dup2\n      sload\n      dup2\n      0xffffffffffffffffffffffffffffffffffffffff\n      mul\n      not\n      and\n      swap1\n      dup4\n      0xffffffffffffffffffffffffffffffffffffffff\n      and\n      mul\n      or\n      swap1\n      sstore\n      pop\n        /* \"Campaign.sol\":3516:3521  false */\n      0x00\n        /* \"Campaign.sol\":3495:3505  newRequest */\n      dup2\n        /* \"Campaign.sol\":3495:3514  newRequest.complete */\n      0x02\n      add\n      0x14\n        /* \"Campaign.sol\":3495:3521  newRequest.complete= false */\n      0x0100\n      exp\n      dup2\n      sload\n      dup2\n      0xff\n      mul\n      not\n      and\n      swap1\n      dup4\n      iszero\n      iszero\n      mul\n      or\n      swap1\n      sstore\n      pop\n        /* \"Campaign.sol\":3557:3558  0 */\n      0x00\n        /* \"Campaign.sol\":3531:3541  newRequest */\n      dup2\n        /* \"Campaign.sol\":3531:3555  newRequest.approvalCount */\n      0x03\n      add\n        /* \"Campaign.sol\":3531:3558  newRequest.approvalCount= 0 */\n      dup2\n      swap1\n      sstore\n      pop\n        /* \"Campaign.sol\":3310:3565  {... */\n      pop\n        /* \"Campaign.sol\":3211:3565  function createRequest(string memory description, uint value, address recipient) public restricted {... */\n      pop\n      pop\n      pop\n      jump\t// out\n        /* \"Campaign.sol\":1613:1644  uint public minimumContribution */\n    tag_86:\n      sload(0x02)\n      dup2\n      jump\t// out\n        /* \"Campaign.sol\":1932:1958  uint public receivedAmount */\n    tag_90:\n      sload(0x0b)\n      dup2\n      jump\t// out\n        /* \"Campaign.sol\":1801:1828  string public campaignStory */\n    tag_94:\n      0x07\n      dup1\n      sload\n      tag_183\n      swap1\n      tag_128\n      jump\t// in\n    tag_183:\n      dup1\n      0x1f\n      add\n      0x20\n      dup1\n      swap2\n      div\n      mul\n      0x20\n      add\n      mload(0x40)\n      swap1\n      dup2\n      add\n      0x40\n      mstore\n      dup1\n      swap3\n      swap2\n      swap1\n      dup2\n      dup2\n      mstore\n      0x20\n      add\n      dup3\n      dup1\n      sload\n      tag_184\n      swap1\n      tag_128\n      jump\t// in\n    tag_184:\n      dup1\n      iszero\n      tag_185\n      jumpi\n      dup1\n      0x1f\n      lt\n      tag_186\n      jumpi\n      0x0100\n      dup1\n      dup4\n      sload\n      div\n      mul\n      dup4\n      mstore\n      swap2\n      0x20\n      add\n      swap2\n      jump(tag_185)\n    tag_186:\n      dup3\n      add\n      swap2\n      swap1\n      0x00\n      mstore\n      keccak256(0x00, 0x20)\n      swap1\n    tag_187:\n      dup2\n      sload\n      dup2\n      mstore\n      swap1\n      0x01\n      add\n      swap1\n      0x20\n      add\n      dup1\n      dup4\n      gt\n      tag_187\n      jumpi\n      dup3\n      swap1\n      sub\n      0x1f\n      and\n      dup3\n      add\n      swap2\n    tag_185:\n      pop\n      pop\n      pop\n      pop\n      pop\n      dup2\n      jump\t// out\n        /* \"Campaign.sol\":1964:1994  string public campaignCategory */\n    tag_98:\n      0x0c\n      dup1\n      sload\n      tag_188\n      swap1\n      tag_128\n      jump\t// in\n    tag_188:\n      dup1\n      0x1f\n      add\n      0x20\n      dup1\n      swap2\n      div\n      mul\n      0x20\n      add\n      mload(0x40)\n      swap1\n      dup2\n      add\n      0x40\n      mstore\n      dup1\n      swap3\n      swap2\n      swap1\n      dup2\n      dup2\n      mstore\n      0x20\n      add\n      dup3\n      dup1\n      sload\n      tag_189\n      swap1\n      tag_128\n      jump\t// in\n    tag_189:\n      dup1\n      iszero\n      tag_190\n      jumpi\n      dup1\n      0x1f\n      lt\n      tag_191\n      jumpi\n      0x0100\n      dup1\n      dup4\n      sload\n      div\n      mul\n      dup4\n      mstore\n      swap2\n      0x20\n      add\n      swap2\n      jump(tag_190)\n    tag_191:\n      dup3\n      add\n      swap2\n      swap1\n      0x00\n      mstore\n      keccak256(0x00, 0x20)\n      swap1\n    tag_192:\n      dup2\n      sload\n      dup2\n      mstore\n      swap1\n      0x01\n      add\n      swap1\n      0x20\n      add\n      dup1\n      dup4\n      gt\n      tag_192\n      jumpi\n      dup3\n      swap1\n      sub\n      0x1f\n      and\n      dup3\n      add\n      swap2\n    tag_190:\n      pop\n      pop\n      pop\n      pop\n      pop\n      dup2\n      jump\t// out\n        /* \"Campaign.sol\":2807:3205  function contribute() public payable {... */\n    tag_101:\n        /* \"Campaign.sol\":2874:2893  minimumContribution */\n      sload(0x02)\n        /* \"Campaign.sol\":2862:2871  msg.value */\n      callvalue\n        /* \"Campaign.sol\":2862:2893  msg.value > minimumContribution */\n      gt\n        /* \"Campaign.sol\":2854:2894  require(msg.value > minimumContribution) */\n      tag_194\n      jumpi\n      0x00\n      dup1\n      revert\n    tag_194:\n        /* \"Campaign.sol\":2927:2941  receivedAmount */\n      sload(0x0b)\n        /* \"Campaign.sol\":2912:2924  campaignGoal */\n      sload(0x08)\n        /* \"Campaign.sol\":2912:2941  campaignGoal > receivedAmount */\n      gt\n        /* \"Campaign.sol\":2904:2972  require(campaignGoal > receivedAmount, \"required amount fullfilled\") */\n      tag_195\n      jumpi\n      mload(0x40)\n      0x08c379a000000000000000000000000000000000000000000000000000000000\n      dup2\n      mstore\n      0x04\n      add\n      tag_196\n      swap1\n      tag_197\n      jump\t// in\n    tag_196:\n      mload(0x40)\n      dup1\n      swap2\n      sub\n      swap1\n      revert\n    tag_195:\n        /* \"Campaign.sol\":2988:2997  approvers */\n      0x03\n        /* \"Campaign.sol\":2988:3009  approvers[msg.sender] */\n      0x00\n        /* \"Campaign.sol\":2998:3008  msg.sender */\n      caller\n        /* \"Campaign.sol\":2988:3009  approvers[msg.sender] */\n      0xffffffffffffffffffffffffffffffffffffffff\n      and\n      0xffffffffffffffffffffffffffffffffffffffff\n      and\n      dup2\n      mstore\n      0x20\n      add\n      swap1\n      dup2\n      mstore\n      0x20\n      add\n      0x00\n      keccak256\n      0x00\n      swap1\n      sload\n      swap1\n      0x0100\n      exp\n      swap1\n      div\n      0xff\n      and\n        /* \"Campaign.sol\":2983:3086  if (!approvers[msg.sender]) {... */\n      tag_198\n      jumpi\n        /* \"Campaign.sol\":3045:3049  true */\n      0x01\n        /* \"Campaign.sol\":3021:3030  approvers */\n      0x03\n        /* \"Campaign.sol\":3021:3042  approvers[msg.sender] */\n      0x00\n        /* \"Campaign.sol\":3031:3041  msg.sender */\n      caller\n        /* \"Campaign.sol\":3021:3042  approvers[msg.sender] */\n      0xffffffffffffffffffffffffffffffffffffffff\n      and\n      0xffffffffffffffffffffffffffffffffffffffff\n      and\n      dup2\n      mstore\n      0x20\n      add\n      swap1\n      dup2\n      mstore\n      0x20\n      add\n      0x00\n      keccak256\n      0x00\n        /* \"Campaign.sol\":3021:3049  approvers[msg.sender] = true */\n      0x0100\n      exp\n      dup2\n      sload\n      dup2\n      0xff\n      mul\n      not\n      and\n      swap1\n      dup4\n      iszero\n      iszero\n      mul\n      or\n      swap1\n      sstore\n      pop\n        /* \"Campaign.sol\":3059:3073  approversCount */\n      0x04\n      0x00\n        /* \"Campaign.sol\":3059:3075  approversCount++ */\n      dup2\n      sload\n      dup1\n      swap3\n      swap2\n      swap1\n      tag_199\n      swap1\n      tag_200\n      jump\t// in\n    tag_199:\n      swap2\n      swap1\n      pop\n      sstore\n      pop\n        /* \"Campaign.sol\":2983:3086  if (!approvers[msg.sender]) {... */\n    tag_198:\n        /* \"Campaign.sol\":3122:3131  msg.value */\n      callvalue\n        /* \"Campaign.sol\":3104:3118  receivedAmount */\n      0x0b\n      0x00\n        /* \"Campaign.sol\":3104:3131  receivedAmount += msg.value */\n      dup3\n      dup3\n      sload\n      tag_201\n      swap2\n      swap1\n      tag_202\n      jump\t// in\n    tag_201:\n      swap3\n      pop\n      pop\n      dup2\n      swap1\n      sstore\n      pop\n        /* \"Campaign.sol\":3182:3197  block.timestamp */\n      timestamp\n        /* \"Campaign.sol\":3171:3180  msg.value */\n      callvalue\n        /* \"Campaign.sol\":3159:3169  msg.sender */\n      caller\n        /* \"Campaign.sol\":3147:3198  contributed(msg.sender, msg.value, block.timestamp) */\n      0xffffffffffffffffffffffffffffffffffffffff\n      and\n      0x377c50534b14698395ed573ff5b8d4841c6618456737de44217436ada6817cc7\n      mload(0x40)\n      mload(0x40)\n      dup1\n      swap2\n      sub\n      swap1\n      log4\n        /* \"Campaign.sol\":2807:3205  function contribute() public payable {... */\n      jump\t// out\n        /* \"Campaign.sol\":3571:3842  function approveRequest(uint index) public {... */\n    tag_105:\n        /* \"Campaign.sol\":3624:3647  Request storage request */\n      0x00\n        /* \"Campaign.sol\":3650:3658  requests */\n      dup1\n        /* \"Campaign.sol\":3659:3664  index */\n      dup3\n        /* \"Campaign.sol\":3650:3665  requests[index] */\n      dup2\n      sload\n      dup2\n      lt\n      tag_204\n      jumpi\n      tag_205\n      tag_119\n      jump\t// in\n    tag_205:\n    tag_204:\n      swap1\n      0x00\n      mstore\n      keccak256(0x00, 0x20)\n      swap1\n      0x05\n      mul\n      add\n        /* \"Campaign.sol\":3624:3665  Request storage request = requests[index] */\n      swap1\n      pop\n        /* \"Campaign.sol\":3684:3693  approvers */\n      0x03\n        /* \"Campaign.sol\":3684:3705  approvers[msg.sender] */\n      0x00\n        /* \"Campaign.sol\":3694:3704  msg.sender */\n      caller\n        /* \"Campaign.sol\":3684:3705  approvers[msg.sender] */\n      0xffffffffffffffffffffffffffffffffffffffff\n      and\n      0xffffffffffffffffffffffffffffffffffffffff\n      and\n      dup2\n      mstore\n      0x20\n      add\n      swap1\n      dup2\n      mstore\n      0x20\n      add\n      0x00\n      keccak256\n      0x00\n      swap1\n      sload\n      swap1\n      0x0100\n      exp\n      swap1\n      div\n      0xff\n      and\n        /* \"Campaign.sol\":3676:3706  require(approvers[msg.sender]) */\n      tag_207\n      jumpi\n      0x00\n      dup1\n      revert\n    tag_207:\n        /* \"Campaign.sol\":3725:3732  request */\n      dup1\n        /* \"Campaign.sol\":3725:3742  request.approvals */\n      0x04\n      add\n        /* \"Campaign.sol\":3725:3754  request.approvals[msg.sender] */\n      0x00\n        /* \"Campaign.sol\":3743:3753  msg.sender */\n      caller\n        /* \"Campaign.sol\":3725:3754  request.approvals[msg.sender] */\n      0xffffffffffffffffffffffffffffffffffffffff\n      and\n      0xffffffffffffffffffffffffffffffffffffffff\n      and\n      dup2\n      mstore\n      0x20\n      add\n      swap1\n      dup2\n      mstore\n      0x20\n      add\n      0x00\n      keccak256\n      0x00\n      swap1\n      sload\n      swap1\n      0x0100\n      exp\n      swap1\n      div\n      0xff\n      and\n        /* \"Campaign.sol\":3724:3754  !request.approvals[msg.sender] */\n      iszero\n        /* \"Campaign.sol\":3716:3755  require(!request.approvals[msg.sender]) */\n      tag_208\n      jumpi\n      0x00\n      dup1\n      revert\n    tag_208:\n        /* \"Campaign.sol\":3798:3802  true */\n      0x01\n        /* \"Campaign.sol\":3766:3773  request */\n      dup2\n        /* \"Campaign.sol\":3766:3783  request.approvals */\n      0x04\n      add\n        /* \"Campaign.sol\":3766:3795  request.approvals[msg.sender] */\n      0x00\n        /* \"Campaign.sol\":3784:3794  msg.sender */\n      caller\n        /* \"Campaign.sol\":3766:3795  request.approvals[msg.sender] */\n      0xffffffffffffffffffffffffffffffffffffffff\n      and\n      0xffffffffffffffffffffffffffffffffffffffff\n      and\n      dup2\n      mstore\n      0x20\n      add\n      swap1\n      dup2\n      mstore\n      0x20\n      add\n      0x00\n      keccak256\n      0x00\n        /* \"Campaign.sol\":3766:3802  request.approvals[msg.sender] = true */\n      0x0100\n      exp\n      dup2\n      sload\n      dup2\n      0xff\n      mul\n      not\n      and\n      swap1\n      dup4\n      iszero\n      iszero\n      mul\n      or\n      swap1\n      sstore\n      pop\n        /* \"Campaign.sol\":3812:3819  request */\n      dup1\n        /* \"Campaign.sol\":3812:3833  request.approvalCount */\n      0x03\n      add\n      0x00\n        /* \"Campaign.sol\":3812:3835  request.approvalCount++ */\n      dup2\n      sload\n      dup1\n      swap3\n      swap2\n      swap1\n      tag_209\n      swap1\n      tag_200\n      jump\t// in\n    tag_209:\n      swap2\n      swap1\n      pop\n      sstore\n      pop\n        /* \"Campaign.sol\":3614:3842  {... */\n      pop\n        /* \"Campaign.sol\":3571:3842  function approveRequest(uint index) public {... */\n      pop\n      jump\t// out\n        /* \"Campaign.sol\":1835:1859  uint public campaignGoal */\n    tag_108:\n      sload(0x08)\n      dup2\n      jump\t// out\n        /* \"Campaign.sol\":4807:5216  function getDaysRemaining() public view returns (uint) {... */\n    tag_112:\n        /* \"Campaign.sol\":4856:4860  uint */\n      0x00\n        /* \"Campaign.sol\":4872:4888  uint currentTime */\n      dup1\n        /* \"Campaign.sol\":4891:4906  block.timestamp */\n      timestamp\n        /* \"Campaign.sol\":4872:4906  uint currentTime = block.timestamp */\n      swap1\n      pop\n        /* \"Campaign.sol\":5015:5026  currentTime */\n      dup1\n        /* \"Campaign.sol\":4997:5012  campaignEndDate */\n      sload(0x09)\n        /* \"Campaign.sol\":4997:5026  campaignEndDate > currentTime */\n      gt\n        /* \"Campaign.sol\":4989:5058  require(campaignEndDate > currentTime, \"Campaign has already ended.\") */\n      tag_211\n      jumpi\n      mload(0x40)\n      0x08c379a000000000000000000000000000000000000000000000000000000000\n      dup2\n      mstore\n      0x04\n      add\n      tag_212\n      swap1\n      tag_213\n      jump\t// in\n    tag_212:\n      mload(0x40)\n      dup1\n      swap2\n      sub\n      swap1\n      revert\n    tag_211:\n        /* \"Campaign.sol\":5113:5131  uint daysRemaining */\n      0x00\n        /* \"Campaign.sol\":5169:5175  1 days */\n      0x015180\n        /* \"Campaign.sol\":5153:5164  currentTime */\n      dup3\n        /* \"Campaign.sol\":5135:5150  campaignEndDate */\n      sload(0x09)\n        /* \"Campaign.sol\":5135:5164  campaignEndDate - currentTime */\n      tag_214\n      swap2\n      swap1\n      tag_215\n      jump\t// in\n    tag_214:\n        /* \"Campaign.sol\":5134:5176  (campaignEndDate - currentTime) / (1 days) */\n      tag_216\n      swap2\n      swap1\n      tag_122\n      jump\t// in\n    tag_216:\n        /* \"Campaign.sol\":5113:5176  uint daysRemaining = (campaignEndDate - currentTime) / (1 days) */\n      swap1\n      pop\n        /* \"Campaign.sol\":5208:5209  1 */\n      0x01\n        /* \"Campaign.sol\":5194:5207  daysRemaining */\n      dup2\n        /* \"Campaign.sol\":5194:5209  daysRemaining+1 */\n      tag_217\n      swap2\n      swap1\n      tag_202\n      jump\t// in\n    tag_217:\n        /* \"Campaign.sol\":5187:5209  return daysRemaining+1 */\n      swap3\n      pop\n      pop\n      pop\n        /* \"Campaign.sol\":4807:5216  function getDaysRemaining() public view returns (uint) {... */\n      swap1\n      jump\t// out\n        /* \"#utility.yul\":7:82   */\n    tag_218:\n        /* \"#utility.yul\":40:46   */\n      0x00\n        /* \"#utility.yul\":73:75   */\n      0x40\n        /* \"#utility.yul\":67:76   */\n      mload\n        /* \"#utility.yul\":57:76   */\n      swap1\n      pop\n        /* \"#utility.yul\":7:82   */\n      swap1\n      jump\t// out\n        /* \"#utility.yul\":88:205   */\n    tag_219:\n        /* \"#utility.yul\":197:198   */\n      0x00\n        /* \"#utility.yul\":194:195   */\n      dup1\n        /* \"#utility.yul\":187:199   */\n      revert\n        /* \"#utility.yul\":211:328   */\n    tag_220:\n        /* \"#utility.yul\":320:321   */\n      0x00\n        /* \"#utility.yul\":317:318   */\n      dup1\n        /* \"#utility.yul\":310:322   */\n      revert\n        /* \"#utility.yul\":334:411   */\n    tag_221:\n        /* \"#utility.yul\":371:378   */\n      0x00\n        /* \"#utility.yul\":400:405   */\n      dup2\n        /* \"#utility.yul\":389:405   */\n      swap1\n      pop\n        /* \"#utility.yul\":334:411   */\n      swap2\n      swap1\n      pop\n      jump\t// out\n        /* \"#utility.yul\":417:539   */\n    tag_222:\n        /* \"#utility.yul\":490:514   */\n      tag_274\n        /* \"#utility.yul\":508:513   */\n      dup2\n        /* \"#utility.yul\":490:514   */\n      tag_221\n      jump\t// in\n    tag_274:\n        /* \"#utility.yul\":483:488   */\n      dup2\n        /* \"#utility.yul\":480:515   */\n      eq\n        /* \"#utility.yul\":470:533   */\n      tag_275\n      jumpi\n        /* \"#utility.yul\":529:530   */\n      0x00\n        /* \"#utility.yul\":526:527   */\n      dup1\n        /* \"#utility.yul\":519:531   */\n      revert\n        /* \"#utility.yul\":470:533   */\n    tag_275:\n        /* \"#utility.yul\":417:539   */\n      pop\n      jump\t// out\n        /* \"#utility.yul\":545:684   */\n    tag_223:\n        /* \"#utility.yul\":591:596   */\n      0x00\n        /* \"#utility.yul\":629:635   */\n      dup2\n        /* \"#utility.yul\":616:636   */\n      calldataload\n        /* \"#utility.yul\":607:636   */\n      swap1\n      pop\n        /* \"#utility.yul\":645:678   */\n      tag_277\n        /* \"#utility.yul\":672:677   */\n      dup2\n        /* \"#utility.yul\":645:678   */\n      tag_222\n      jump\t// in\n    tag_277:\n        /* \"#utility.yul\":545:684   */\n      swap3\n      swap2\n      pop\n      pop\n      jump\t// out\n        /* \"#utility.yul\":690:1019   */\n    tag_28:\n        /* \"#utility.yul\":749:755   */\n      0x00\n        /* \"#utility.yul\":798:800   */\n      0x20\n        /* \"#utility.yul\":786:795   */\n      dup3\n        /* \"#utility.yul\":777:784   */\n      dup5\n        /* \"#utility.yul\":773:796   */\n      sub\n        /* \"#utility.yul\":769:801   */\n      slt\n        /* \"#utility.yul\":766:885   */\n      iszero\n      tag_279\n      jumpi\n        /* \"#utility.yul\":804:883   */\n      tag_280\n      tag_219\n      jump\t// in\n    tag_280:\n        /* \"#utility.yul\":766:885   */\n    tag_279:\n        /* \"#utility.yul\":924:925   */\n      0x00\n        /* \"#utility.yul\":949:1002   */\n      tag_281\n        /* \"#utility.yul\":994:1001   */\n      dup5\n        /* \"#utility.yul\":985:991   */\n      dup3\n        /* \"#utility.yul\":974:983   */\n      dup6\n        /* \"#utility.yul\":970:992   */\n      add\n        /* \"#utility.yul\":949:1002   */\n      tag_223\n      jump\t// in\n    tag_281:\n        /* \"#utility.yul\":939:1002   */\n      swap2\n      pop\n        /* \"#utility.yul\":895:1012   */\n      pop\n        /* \"#utility.yul\":690:1019   */\n      swap3\n      swap2\n      pop\n      pop\n      jump\t// out\n        /* \"#utility.yul\":1025:1124   */\n    tag_224:\n        /* \"#utility.yul\":1077:1083   */\n      0x00\n        /* \"#utility.yul\":1111:1116   */\n      dup2\n        /* \"#utility.yul\":1105:1117   */\n      mload\n        /* \"#utility.yul\":1095:1117   */\n      swap1\n      pop\n        /* \"#utility.yul\":1025:1124   */\n      swap2\n      swap1\n      pop\n      jump\t// out\n        /* \"#utility.yul\":1130:1299   */\n    tag_225:\n        /* \"#utility.yul\":1214:1225   */\n      0x00\n        /* \"#utility.yul\":1248:1254   */\n      dup3\n        /* \"#utility.yul\":1243:1246   */\n      dup3\n        /* \"#utility.yul\":1236:1255   */\n      mstore\n        /* \"#utility.yul\":1288:1292   */\n      0x20\n        /* \"#utility.yul\":1283:1286   */\n      dup3\n        /* \"#utility.yul\":1279:1293   */\n      add\n        /* \"#utility.yul\":1264:1293   */\n      swap1\n      pop\n        /* \"#utility.yul\":1130:1299   */\n      swap3\n      swap2\n      pop\n      pop\n      jump\t// out\n        /* \"#utility.yul\":1305:1551   */\n    tag_226:\n        /* \"#utility.yul\":1386:1387   */\n      0x00\n        /* \"#utility.yul\":1396:1509   */\n    tag_285:\n        /* \"#utility.yul\":1410:1416   */\n      dup4\n        /* \"#utility.yul\":1407:1408   */\n      dup2\n        /* \"#utility.yul\":1404:1417   */\n      lt\n        /* \"#utility.yul\":1396:1509   */\n      iszero\n      tag_287\n      jumpi\n        /* \"#utility.yul\":1495:1496   */\n      dup1\n        /* \"#utility.yul\":1490:1493   */\n      dup3\n        /* \"#utility.yul\":1486:1497   */\n      add\n        /* \"#utility.yul\":1480:1498   */\n      mload\n        /* \"#utility.yul\":1476:1477   */\n      dup2\n        /* \"#utility.yul\":1471:1474   */\n      dup5\n        /* \"#utility.yul\":1467:1478   */\n      add\n        /* \"#utility.yul\":1460:1499   */\n      mstore\n        /* \"#utility.yul\":1432:1434   */\n      0x20\n        /* \"#utility.yul\":1429:1430   */\n      dup2\n        /* \"#utility.yul\":1425:1435   */\n      add\n        /* \"#utility.yul\":1420:1435   */\n      swap1\n      pop\n        /* \"#utility.yul\":1396:1509   */\n      jump(tag_285)\n    tag_287:\n        /* \"#utility.yul\":1543:1544   */\n      0x00\n        /* \"#utility.yul\":1534:1540   */\n      dup5\n        /* \"#utility.yul\":1529:1532   */\n      dup5\n        /* \"#utility.yul\":1525:1541   */\n      add\n        /* \"#utility.yul\":1518:1545   */\n      mstore\n        /* \"#utility.yul\":1367:1551   */\n      pop\n        /* \"#utility.yul\":1305:1551   */\n      pop\n      pop\n      pop\n      jump\t// out\n        /* \"#utility.yul\":1557:1659   */\n    tag_227:\n        /* \"#utility.yul\":1598:1604   */\n      0x00\n        /* \"#utility.yul\":1649:1651   */\n      0x1f\n        /* \"#utility.yul\":1645:1652   */\n      not\n        /* \"#utility.yul\":1640:1642   */\n      0x1f\n        /* \"#utility.yul\":1633:1638   */\n      dup4\n        /* \"#utility.yul\":1629:1643   */\n      add\n        /* \"#utility.yul\":1625:1653   */\n      and\n        /* \"#utility.yul\":1615:1653   */\n      swap1\n      pop\n        /* \"#utility.yul\":1557:1659   */\n      swap2\n      swap1\n      pop\n      jump\t// out\n        /* \"#utility.yul\":1665:2042   */\n    tag_228:\n        /* \"#utility.yul\":1753:1756   */\n      0x00\n        /* \"#utility.yul\":1781:1820   */\n      tag_290\n        /* \"#utility.yul\":1814:1819   */\n      dup3\n        /* \"#utility.yul\":1781:1820   */\n      tag_224\n      jump\t// in\n    tag_290:\n        /* \"#utility.yul\":1836:1907   */\n      tag_291\n        /* \"#utility.yul\":1900:1906   */\n      dup2\n        /* \"#utility.yul\":1895:1898   */\n      dup6\n        /* \"#utility.yul\":1836:1907   */\n      tag_225\n      jump\t// in\n    tag_291:\n        /* \"#utility.yul\":1829:1907   */\n      swap4\n      pop\n        /* \"#utility.yul\":1916:1981   */\n      tag_292\n        /* \"#utility.yul\":1974:1980   */\n      dup2\n        /* \"#utility.yul\":1969:1972   */\n      dup6\n        /* \"#utility.yul\":1962:1966   */\n      0x20\n        /* \"#utility.yul\":1955:1960   */\n      dup7\n        /* \"#utility.yul\":1951:1967   */\n      add\n        /* \"#utility.yul\":1916:1981   */\n      tag_226\n      jump\t// in\n    tag_292:\n        /* \"#utility.yul\":2006:2035   */\n      tag_293\n        /* \"#utility.yul\":2028:2034   */\n      dup2\n        /* \"#utility.yul\":2006:2035   */\n      tag_227\n      jump\t// in\n    tag_293:\n        /* \"#utility.yul\":2001:2004   */\n      dup5\n        /* \"#utility.yul\":1997:2036   */\n      add\n        /* \"#utility.yul\":1990:2036   */\n      swap2\n      pop\n        /* \"#utility.yul\":1757:2042   */\n      pop\n        /* \"#utility.yul\":1665:2042   */\n      swap3\n      swap2\n      pop\n      pop\n      jump\t// out\n        /* \"#utility.yul\":2048:2361   */\n    tag_34:\n        /* \"#utility.yul\":2161:2165   */\n      0x00\n        /* \"#utility.yul\":2199:2201   */\n      0x20\n        /* \"#utility.yul\":2188:2197   */\n      dup3\n        /* \"#utility.yul\":2184:2202   */\n      add\n        /* \"#utility.yul\":2176:2202   */\n      swap1\n      pop\n        /* \"#utility.yul\":2248:2257   */\n      dup2\n        /* \"#utility.yul\":2242:2246   */\n      dup2\n        /* \"#utility.yul\":2238:2258   */\n      sub\n        /* \"#utility.yul\":2234:2235   */\n      0x00\n        /* \"#utility.yul\":2223:2232   */\n      dup4\n        /* \"#utility.yul\":2219:2236   */\n      add\n        /* \"#utility.yul\":2212:2259   */\n      mstore\n        /* \"#utility.yul\":2276:2354   */\n      tag_295\n        /* \"#utility.yul\":2349:2353   */\n      dup2\n        /* \"#utility.yul\":2340:2346   */\n      dup5\n        /* \"#utility.yul\":2276:2354   */\n      tag_228\n      jump\t// in\n    tag_295:\n        /* \"#utility.yul\":2268:2354   */\n      swap1\n      pop\n        /* \"#utility.yul\":2048:2361   */\n      swap3\n      swap2\n      pop\n      pop\n      jump\t// out\n        /* \"#utility.yul\":2367:2493   */\n    tag_229:\n        /* \"#utility.yul\":2404:2411   */\n      0x00\n        /* \"#utility.yul\":2444:2486   */\n      0xffffffffffffffffffffffffffffffffffffffff\n        /* \"#utility.yul\":2437:2442   */\n      dup3\n        /* \"#utility.yul\":2433:2487   */\n      and\n        /* \"#utility.yul\":2422:2487   */\n      swap1\n      pop\n        /* \"#utility.yul\":2367:2493   */\n      swap2\n      swap1\n      pop\n      jump\t// out\n        /* \"#utility.yul\":2499:2595   */\n    tag_230:\n        /* \"#utility.yul\":2536:2543   */\n      0x00\n        /* \"#utility.yul\":2565:2589   */\n      tag_298\n        /* \"#utility.yul\":2583:2588   */\n      dup3\n        /* \"#utility.yul\":2565:2589   */\n      tag_229\n      jump\t// in\n    tag_298:\n        /* \"#utility.yul\":2554:2589   */\n      swap1\n      pop\n        /* \"#utility.yul\":2499:2595   */\n      swap2\n      swap1\n      pop\n      jump\t// out\n        /* \"#utility.yul\":2601:2723   */\n    tag_231:\n        /* \"#utility.yul\":2674:2698   */\n      tag_300\n        /* \"#utility.yul\":2692:2697   */\n      dup2\n        /* \"#utility.yul\":2674:2698   */\n      tag_230\n      jump\t// in\n    tag_300:\n        /* \"#utility.yul\":2667:2672   */\n      dup2\n        /* \"#utility.yul\":2664:2699   */\n      eq\n        /* \"#utility.yul\":2654:2717   */\n      tag_301\n      jumpi\n        /* \"#utility.yul\":2713:2714   */\n      0x00\n        /* \"#utility.yul\":2710:2711   */\n      dup1\n        /* \"#utility.yul\":2703:2715   */\n      revert\n        /* \"#utility.yul\":2654:2717   */\n    tag_301:\n        /* \"#utility.yul\":2601:2723   */\n      pop\n      jump\t// out\n        /* \"#utility.yul\":2729:2868   */\n    tag_232:\n        /* \"#utility.yul\":2775:2780   */\n      0x00\n        /* \"#utility.yul\":2813:2819   */\n      dup2\n        /* \"#utility.yul\":2800:2820   */\n      calldataload\n        /* \"#utility.yul\":2791:2820   */\n      swap1\n      pop\n        /* \"#utility.yul\":2829:2862   */\n      tag_303\n        /* \"#utility.yul\":2856:2861   */\n      dup2\n        /* \"#utility.yul\":2829:2862   */\n      tag_231\n      jump\t// in\n    tag_303:\n        /* \"#utility.yul\":2729:2868   */\n      swap3\n      swap2\n      pop\n      pop\n      jump\t// out\n        /* \"#utility.yul\":2874:3203   */\n    tag_38:\n        /* \"#utility.yul\":2933:2939   */\n      0x00\n        /* \"#utility.yul\":2982:2984   */\n      0x20\n        /* \"#utility.yul\":2970:2979   */\n      dup3\n        /* \"#utility.yul\":2961:2968   */\n      dup5\n        /* \"#utility.yul\":2957:2980   */\n      sub\n        /* \"#utility.yul\":2953:2985   */\n      slt\n        /* \"#utility.yul\":2950:3069   */\n      iszero\n      tag_305\n      jumpi\n        /* \"#utility.yul\":2988:3067   */\n      tag_306\n      tag_219\n      jump\t// in\n    tag_306:\n        /* \"#utility.yul\":2950:3069   */\n    tag_305:\n        /* \"#utility.yul\":3108:3109   */\n      0x00\n        /* \"#utility.yul\":3133:3186   */\n      tag_307\n        /* \"#utility.yul\":3178:3185   */\n      dup5\n        /* \"#utility.yul\":3169:3175   */\n      dup3\n        /* \"#utility.yul\":3158:3167   */\n      dup6\n        /* \"#utility.yul\":3154:3176   */\n      add\n        /* \"#utility.yul\":3133:3186   */\n      tag_232\n      jump\t// in\n    tag_307:\n        /* \"#utility.yul\":3123:3186   */\n      swap2\n      pop\n        /* \"#utility.yul\":3079:3196   */\n      pop\n        /* \"#utility.yul\":2874:3203   */\n      swap3\n      swap2\n      pop\n      pop\n      jump\t// out\n        /* \"#utility.yul\":3209:3299   */\n    tag_233:\n        /* \"#utility.yul\":3243:3250   */\n      0x00\n        /* \"#utility.yul\":3286:3291   */\n      dup2\n        /* \"#utility.yul\":3279:3292   */\n      iszero\n        /* \"#utility.yul\":3272:3293   */\n      iszero\n        /* \"#utility.yul\":3261:3293   */\n      swap1\n      pop\n        /* \"#utility.yul\":3209:3299   */\n      swap2\n      swap1\n      pop\n      jump\t// out\n        /* \"#utility.yul\":3305:3414   */\n    tag_234:\n        /* \"#utility.yul\":3386:3407   */\n      tag_310\n        /* \"#utility.yul\":3401:3406   */\n      dup2\n        /* \"#utility.yul\":3386:3407   */\n      tag_233\n      jump\t// in\n    tag_310:\n        /* \"#utility.yul\":3381:3384   */\n      dup3\n        /* \"#utility.yul\":3374:3408   */\n      mstore\n        /* \"#utility.yul\":3305:3414   */\n      pop\n      pop\n      jump\t// out\n        /* \"#utility.yul\":3420:3630   */\n    tag_41:\n        /* \"#utility.yul\":3507:3511   */\n      0x00\n        /* \"#utility.yul\":3545:3547   */\n      0x20\n        /* \"#utility.yul\":3534:3543   */\n      dup3\n        /* \"#utility.yul\":3530:3548   */\n      add\n        /* \"#utility.yul\":3522:3548   */\n      swap1\n      pop\n        /* \"#utility.yul\":3558:3623   */\n      tag_312\n        /* \"#utility.yul\":3620:3621   */\n      0x00\n        /* \"#utility.yul\":3609:3618   */\n      dup4\n        /* \"#utility.yul\":3605:3622   */\n      add\n        /* \"#utility.yul\":3596:3602   */\n      dup5\n        /* \"#utility.yul\":3558:3623   */\n      tag_234\n      jump\t// in\n    tag_312:\n        /* \"#utility.yul\":3420:3630   */\n      swap3\n      swap2\n      pop\n      pop\n      jump\t// out\n        /* \"#utility.yul\":3636:3754   */\n    tag_235:\n        /* \"#utility.yul\":3723:3747   */\n      tag_314\n        /* \"#utility.yul\":3741:3746   */\n      dup2\n        /* \"#utility.yul\":3723:3747   */\n      tag_221\n      jump\t// in\n    tag_314:\n        /* \"#utility.yul\":3718:3721   */\n      dup3\n        /* \"#utility.yul\":3711:3748   */\n      mstore\n        /* \"#utility.yul\":3636:3754   */\n      pop\n      pop\n      jump\t// out\n        /* \"#utility.yul\":3760:3982   */\n    tag_46:\n        /* \"#utility.yul\":3853:3857   */\n      0x00\n        /* \"#utility.yul\":3891:3893   */\n      0x20\n        /* \"#utility.yul\":3880:3889   */\n      dup3\n        /* \"#utility.yul\":3876:3894   */\n      add\n        /* \"#utility.yul\":3868:3894   */\n      swap1\n      pop\n        /* \"#utility.yul\":3904:3975   */\n      tag_316\n        /* \"#utility.yul\":3972:3973   */\n      0x00\n        /* \"#utility.yul\":3961:3970   */\n      dup4\n        /* \"#utility.yul\":3957:3974   */\n      add\n        /* \"#utility.yul\":3948:3954   */\n      dup5\n        /* \"#utility.yul\":3904:3975   */\n      tag_235\n      jump\t// in\n    tag_316:\n        /* \"#utility.yul\":3760:3982   */\n      swap3\n      swap2\n      pop\n      pop\n      jump\t// out\n        /* \"#utility.yul\":3988:4106   */\n    tag_236:\n        /* \"#utility.yul\":4075:4099   */\n      tag_318\n        /* \"#utility.yul\":4093:4098   */\n      dup2\n        /* \"#utility.yul\":4075:4099   */\n      tag_230\n      jump\t// in\n    tag_318:\n        /* \"#utility.yul\":4070:4073   */\n      dup3\n        /* \"#utility.yul\":4063:4100   */\n      mstore\n        /* \"#utility.yul\":3988:4106   */\n      pop\n      pop\n      jump\t// out\n        /* \"#utility.yul\":4112:6012   */\n    tag_51:\n        /* \"#utility.yul\":4615:4619   */\n      0x00\n        /* \"#utility.yul\":4653:4656   */\n      0x0180\n        /* \"#utility.yul\":4642:4651   */\n      dup3\n        /* \"#utility.yul\":4638:4657   */\n      add\n        /* \"#utility.yul\":4630:4657   */\n      swap1\n      pop\n        /* \"#utility.yul\":4667:4738   */\n      tag_320\n        /* \"#utility.yul\":4735:4736   */\n      0x00\n        /* \"#utility.yul\":4724:4733   */\n      dup4\n        /* \"#utility.yul\":4720:4737   */\n      add\n        /* \"#utility.yul\":4711:4717   */\n      dup16\n        /* \"#utility.yul\":4667:4738   */\n      tag_235\n      jump\t// in\n    tag_320:\n        /* \"#utility.yul\":4748:4820   */\n      tag_321\n        /* \"#utility.yul\":4816:4818   */\n      0x20\n        /* \"#utility.yul\":4805:4814   */\n      dup4\n        /* \"#utility.yul\":4801:4819   */\n      add\n        /* \"#utility.yul\":4792:4798   */\n      dup15\n        /* \"#utility.yul\":4748:4820   */\n      tag_235\n      jump\t// in\n    tag_321:\n        /* \"#utility.yul\":4830:4902   */\n      tag_322\n        /* \"#utility.yul\":4898:4900   */\n      0x40\n        /* \"#utility.yul\":4887:4896   */\n      dup4\n        /* \"#utility.yul\":4883:4901   */\n      add\n        /* \"#utility.yul\":4874:4880   */\n      dup14\n        /* \"#utility.yul\":4830:4902   */\n      tag_235\n      jump\t// in\n    tag_322:\n        /* \"#utility.yul\":4912:4984   */\n      tag_323\n        /* \"#utility.yul\":4980:4982   */\n      0x60\n        /* \"#utility.yul\":4969:4978   */\n      dup4\n        /* \"#utility.yul\":4965:4983   */\n      add\n        /* \"#utility.yul\":4956:4962   */\n      dup13\n        /* \"#utility.yul\":4912:4984   */\n      tag_235\n      jump\t// in\n    tag_323:\n        /* \"#utility.yul\":4994:5067   */\n      tag_324\n        /* \"#utility.yul\":5062:5065   */\n      0x80\n        /* \"#utility.yul\":5051:5060   */\n      dup4\n        /* \"#utility.yul\":5047:5066   */\n      add\n        /* \"#utility.yul\":5038:5044   */\n      dup12\n        /* \"#utility.yul\":4994:5067   */\n      tag_236\n      jump\t// in\n    tag_324:\n        /* \"#utility.yul\":5115:5124   */\n      dup2\n        /* \"#utility.yul\":5109:5113   */\n      dup2\n        /* \"#utility.yul\":5105:5125   */\n      sub\n        /* \"#utility.yul\":5099:5102   */\n      0xa0\n        /* \"#utility.yul\":5088:5097   */\n      dup4\n        /* \"#utility.yul\":5084:5103   */\n      add\n        /* \"#utility.yul\":5077:5126   */\n      mstore\n        /* \"#utility.yul\":5143:5221   */\n      tag_325\n        /* \"#utility.yul\":5216:5220   */\n      dup2\n        /* \"#utility.yul\":5207:5213   */\n      dup11\n        /* \"#utility.yul\":5143:5221   */\n      tag_228\n      jump\t// in\n    tag_325:\n        /* \"#utility.yul\":5135:5221   */\n      swap1\n      pop\n        /* \"#utility.yul\":5269:5278   */\n      dup2\n        /* \"#utility.yul\":5263:5267   */\n      dup2\n        /* \"#utility.yul\":5259:5279   */\n      sub\n        /* \"#utility.yul\":5253:5256   */\n      0xc0\n        /* \"#utility.yul\":5242:5251   */\n      dup4\n        /* \"#utility.yul\":5238:5257   */\n      add\n        /* \"#utility.yul\":5231:5280   */\n      mstore\n        /* \"#utility.yul\":5297:5375   */\n      tag_326\n        /* \"#utility.yul\":5370:5374   */\n      dup2\n        /* \"#utility.yul\":5361:5367   */\n      dup10\n        /* \"#utility.yul\":5297:5375   */\n      tag_228\n      jump\t// in\n    tag_326:\n        /* \"#utility.yul\":5289:5375   */\n      swap1\n      pop\n        /* \"#utility.yul\":5423:5432   */\n      dup2\n        /* \"#utility.yul\":5417:5421   */\n      dup2\n        /* \"#utility.yul\":5413:5433   */\n      sub\n        /* \"#utility.yul\":5407:5410   */\n      0xe0\n        /* \"#utility.yul\":5396:5405   */\n      dup4\n        /* \"#utility.yul\":5392:5411   */\n      add\n        /* \"#utility.yul\":5385:5434   */\n      mstore\n        /* \"#utility.yul\":5451:5529   */\n      tag_327\n        /* \"#utility.yul\":5524:5528   */\n      dup2\n        /* \"#utility.yul\":5515:5521   */\n      dup9\n        /* \"#utility.yul\":5451:5529   */\n      tag_228\n      jump\t// in\n    tag_327:\n        /* \"#utility.yul\":5443:5529   */\n      swap1\n      pop\n        /* \"#utility.yul\":5539:5612   */\n      tag_328\n        /* \"#utility.yul\":5607:5610   */\n      0x0100\n        /* \"#utility.yul\":5596:5605   */\n      dup4\n        /* \"#utility.yul\":5592:5611   */\n      add\n        /* \"#utility.yul\":5583:5589   */\n      dup8\n        /* \"#utility.yul\":5539:5612   */\n      tag_235\n      jump\t// in\n    tag_328:\n        /* \"#utility.yul\":5622:5695   */\n      tag_329\n        /* \"#utility.yul\":5690:5693   */\n      0x0120\n        /* \"#utility.yul\":5679:5688   */\n      dup4\n        /* \"#utility.yul\":5675:5694   */\n      add\n        /* \"#utility.yul\":5666:5672   */\n      dup7\n        /* \"#utility.yul\":5622:5695   */\n      tag_235\n      jump\t// in\n    tag_329:\n        /* \"#utility.yul\":5743:5752   */\n      dup2\n        /* \"#utility.yul\":5737:5741   */\n      dup2\n        /* \"#utility.yul\":5733:5753   */\n      sub\n        /* \"#utility.yul\":5727:5730   */\n      0x0140\n        /* \"#utility.yul\":5716:5725   */\n      dup4\n        /* \"#utility.yul\":5712:5731   */\n      add\n        /* \"#utility.yul\":5705:5754   */\n      mstore\n        /* \"#utility.yul\":5771:5850   */\n      tag_330\n        /* \"#utility.yul\":5845:5849   */\n      dup2\n        /* \"#utility.yul\":5835:5842   */\n      dup6\n        /* \"#utility.yul\":5771:5850   */\n      tag_228\n      jump\t// in\n    tag_330:\n        /* \"#utility.yul\":5763:5850   */\n      swap1\n      pop\n        /* \"#utility.yul\":5898:5907   */\n      dup2\n        /* \"#utility.yul\":5892:5896   */\n      dup2\n        /* \"#utility.yul\":5888:5908   */\n      sub\n        /* \"#utility.yul\":5882:5885   */\n      0x0160\n        /* \"#utility.yul\":5871:5880   */\n      dup4\n        /* \"#utility.yul\":5867:5886   */\n      add\n        /* \"#utility.yul\":5860:5909   */\n      mstore\n        /* \"#utility.yul\":5926:6005   */\n      tag_331\n        /* \"#utility.yul\":6000:6004   */\n      dup2\n        /* \"#utility.yul\":5990:5997   */\n      dup5\n        /* \"#utility.yul\":5926:6005   */\n      tag_228\n      jump\t// in\n    tag_331:\n        /* \"#utility.yul\":5918:6005   */\n      swap1\n      pop\n        /* \"#utility.yul\":4112:6012   */\n      swap14\n      swap13\n      pop\n      pop\n      pop\n      pop\n      pop\n      pop\n      pop\n      pop\n      pop\n      pop\n      pop\n      pop\n      pop\n      jump\t// out\n        /* \"#utility.yul\":6018:6240   */\n    tag_56:\n        /* \"#utility.yul\":6111:6115   */\n      0x00\n        /* \"#utility.yul\":6149:6151   */\n      0x20\n        /* \"#utility.yul\":6138:6147   */\n      dup3\n        /* \"#utility.yul\":6134:6152   */\n      add\n        /* \"#utility.yul\":6126:6152   */\n      swap1\n      pop\n        /* \"#utility.yul\":6162:6233   */\n      tag_333\n        /* \"#utility.yul\":6230:6231   */\n      0x00\n        /* \"#utility.yul\":6219:6228   */\n      dup4\n        /* \"#utility.yul\":6215:6232   */\n      add\n        /* \"#utility.yul\":6206:6212   */\n      dup5\n        /* \"#utility.yul\":6162:6233   */\n      tag_236\n      jump\t// in\n    tag_333:\n        /* \"#utility.yul\":6018:6240   */\n      swap3\n      swap2\n      pop\n      pop\n      jump\t// out\n        /* \"#utility.yul\":6246:6989   */\n    tag_70:\n        /* \"#utility.yul\":6465:6469   */\n      0x00\n        /* \"#utility.yul\":6503:6506   */\n      0xa0\n        /* \"#utility.yul\":6492:6501   */\n      dup3\n        /* \"#utility.yul\":6488:6507   */\n      add\n        /* \"#utility.yul\":6480:6507   */\n      swap1\n      pop\n        /* \"#utility.yul\":6553:6562   */\n      dup2\n        /* \"#utility.yul\":6547:6551   */\n      dup2\n        /* \"#utility.yul\":6543:6563   */\n      sub\n        /* \"#utility.yul\":6539:6540   */\n      0x00\n        /* \"#utility.yul\":6528:6537   */\n      dup4\n        /* \"#utility.yul\":6524:6541   */\n      add\n        /* \"#utility.yul\":6517:6564   */\n      mstore\n        /* \"#utility.yul\":6581:6659   */\n      tag_335\n        /* \"#utility.yul\":6654:6658   */\n      dup2\n        /* \"#utility.yul\":6645:6651   */\n      dup9\n        /* \"#utility.yul\":6581:6659   */\n      tag_228\n      jump\t// in\n    tag_335:\n        /* \"#utility.yul\":6573:6659   */\n      swap1\n      pop\n        /* \"#utility.yul\":6669:6741   */\n      tag_336\n        /* \"#utility.yul\":6737:6739   */\n      0x20\n        /* \"#utility.yul\":6726:6735   */\n      dup4\n        /* \"#utility.yul\":6722:6740   */\n      add\n        /* \"#utility.yul\":6713:6719   */\n      dup8\n        /* \"#utility.yul\":6669:6741   */\n      tag_235\n      jump\t// in\n    tag_336:\n        /* \"#utility.yul\":6751:6823   */\n      tag_337\n        /* \"#utility.yul\":6819:6821   */\n      0x40\n        /* \"#utility.yul\":6808:6817   */\n      dup4\n        /* \"#utility.yul\":6804:6822   */\n      add\n        /* \"#utility.yul\":6795:6801   */\n      dup7\n        /* \"#utility.yul\":6751:6823   */\n      tag_236\n      jump\t// in\n    tag_337:\n        /* \"#utility.yul\":6833:6899   */\n      tag_338\n        /* \"#utility.yul\":6895:6897   */\n      0x60\n        /* \"#utility.yul\":6884:6893   */\n      dup4\n        /* \"#utility.yul\":6880:6898   */\n      add\n        /* \"#utility.yul\":6871:6877   */\n      dup6\n        /* \"#utility.yul\":6833:6899   */\n      tag_234\n      jump\t// in\n    tag_338:\n        /* \"#utility.yul\":6909:6982   */\n      tag_339\n        /* \"#utility.yul\":6977:6980   */\n      0x80\n        /* \"#utility.yul\":6966:6975   */\n      dup4\n        /* \"#utility.yul\":6962:6981   */\n      add\n        /* \"#utility.yul\":6953:6959   */\n      dup5\n        /* \"#utility.yul\":6909:6982   */\n      tag_235\n      jump\t// in\n    tag_339:\n        /* \"#utility.yul\":6246:6989   */\n      swap7\n      swap6\n      pop\n      pop\n      pop\n      pop\n      pop\n      pop\n      jump\t// out\n        /* \"#utility.yul\":6995:7112   */\n    tag_237:\n        /* \"#utility.yul\":7104:7105   */\n      0x00\n        /* \"#utility.yul\":7101:7102   */\n      dup1\n        /* \"#utility.yul\":7094:7106   */\n      revert\n        /* \"#utility.yul\":7118:7235   */\n    tag_238:\n        /* \"#utility.yul\":7227:7228   */\n      0x00\n        /* \"#utility.yul\":7224:7225   */\n      dup1\n        /* \"#utility.yul\":7217:7229   */\n      revert\n        /* \"#utility.yul\":7241:7421   */\n    tag_239:\n        /* \"#utility.yul\":7289:7366   */\n      0x4e487b7100000000000000000000000000000000000000000000000000000000\n        /* \"#utility.yul\":7286:7287   */\n      0x00\n        /* \"#utility.yul\":7279:7367   */\n      mstore\n        /* \"#utility.yul\":7386:7390   */\n      0x41\n        /* \"#utility.yul\":7383:7384   */\n      0x04\n        /* \"#utility.yul\":7376:7391   */\n      mstore\n        /* \"#utility.yul\":7410:7414   */\n      0x24\n        /* \"#utility.yul\":7407:7408   */\n      0x00\n        /* \"#utility.yul\":7400:7415   */\n      revert\n        /* \"#utility.yul\":7427:7708   */\n    tag_240:\n        /* \"#utility.yul\":7510:7537   */\n      tag_344\n        /* \"#utility.yul\":7532:7536   */\n      dup3\n        /* \"#utility.yul\":7510:7537   */\n      tag_227\n      jump\t// in\n    tag_344:\n        /* \"#utility.yul\":7502:7508   */\n      dup2\n        /* \"#utility.yul\":7498:7538   */\n      add\n        /* \"#utility.yul\":7640:7646   */\n      dup2\n        /* \"#utility.yul\":7628:7638   */\n      dup2\n        /* \"#utility.yul\":7625:7647   */\n      lt\n        /* \"#utility.yul\":7604:7622   */\n      0xffffffffffffffff\n        /* \"#utility.yul\":7592:7602   */\n      dup3\n        /* \"#utility.yul\":7589:7623   */\n      gt\n        /* \"#utility.yul\":7586:7648   */\n      or\n        /* \"#utility.yul\":7583:7671   */\n      iszero\n      tag_345\n      jumpi\n        /* \"#utility.yul\":7651:7669   */\n      tag_346\n      tag_239\n      jump\t// in\n    tag_346:\n        /* \"#utility.yul\":7583:7671   */\n    tag_345:\n        /* \"#utility.yul\":7691:7701   */\n      dup1\n        /* \"#utility.yul\":7687:7689   */\n      0x40\n        /* \"#utility.yul\":7680:7702   */\n      mstore\n        /* \"#utility.yul\":7470:7708   */\n      pop\n        /* \"#utility.yul\":7427:7708   */\n      pop\n      pop\n      jump\t// out\n        /* \"#utility.yul\":7714:7843   */\n    tag_241:\n        /* \"#utility.yul\":7748:7754   */\n      0x00\n        /* \"#utility.yul\":7775:7795   */\n      tag_348\n      tag_218\n      jump\t// in\n    tag_348:\n        /* \"#utility.yul\":7765:7795   */\n      swap1\n      pop\n        /* \"#utility.yul\":7804:7837   */\n      tag_349\n        /* \"#utility.yul\":7832:7836   */\n      dup3\n        /* \"#utility.yul\":7824:7830   */\n      dup3\n        /* \"#utility.yul\":7804:7837   */\n      tag_240\n      jump\t// in\n    tag_349:\n        /* \"#utility.yul\":7714:7843   */\n      swap2\n      swap1\n      pop\n      jump\t// out\n        /* \"#utility.yul\":7849:8157   */\n    tag_242:\n        /* \"#utility.yul\":7911:7915   */\n      0x00\n        /* \"#utility.yul\":8001:8019   */\n      0xffffffffffffffff\n        /* \"#utility.yul\":7993:7999   */\n      dup3\n        /* \"#utility.yul\":7990:8020   */\n      gt\n        /* \"#utility.yul\":7987:8043   */\n      iszero\n      tag_351\n      jumpi\n        /* \"#utility.yul\":8023:8041   */\n      tag_352\n      tag_239\n      jump\t// in\n    tag_352:\n        /* \"#utility.yul\":7987:8043   */\n    tag_351:\n        /* \"#utility.yul\":8061:8090   */\n      tag_353\n        /* \"#utility.yul\":8083:8089   */\n      dup3\n        /* \"#utility.yul\":8061:8090   */\n      tag_227\n      jump\t// in\n    tag_353:\n        /* \"#utility.yul\":8053:8090   */\n      swap1\n      pop\n        /* \"#utility.yul\":8145:8149   */\n      0x20\n        /* \"#utility.yul\":8139:8143   */\n      dup2\n        /* \"#utility.yul\":8135:8150   */\n      add\n        /* \"#utility.yul\":8127:8150   */\n      swap1\n      pop\n        /* \"#utility.yul\":7849:8157   */\n      swap2\n      swap1\n      pop\n      jump\t// out\n        /* \"#utility.yul\":8163:8309   */\n    tag_243:\n        /* \"#utility.yul\":8260:8266   */\n      dup3\n        /* \"#utility.yul\":8255:8258   */\n      dup2\n        /* \"#utility.yul\":8250:8253   */\n      dup4\n        /* \"#utility.yul\":8237:8267   */\n      calldatacopy\n        /* \"#utility.yul\":8301:8302   */\n      0x00\n        /* \"#utility.yul\":8292:8298   */\n      dup4\n        /* \"#utility.yul\":8287:8290   */\n      dup4\n        /* \"#utility.yul\":8283:8299   */\n      add\n        /* \"#utility.yul\":8276:8303   */\n      mstore\n        /* \"#utility.yul\":8163:8309   */\n      pop\n      pop\n      pop\n      jump\t// out\n        /* \"#utility.yul\":8315:8740   */\n    tag_244:\n        /* \"#utility.yul\":8393:8398   */\n      0x00\n        /* \"#utility.yul\":8418:8484   */\n      tag_356\n        /* \"#utility.yul\":8434:8483   */\n      tag_357\n        /* \"#utility.yul\":8476:8482   */\n      dup5\n        /* \"#utility.yul\":8434:8483   */\n      tag_242\n      jump\t// in\n    tag_357:\n        /* \"#utility.yul\":8418:8484   */\n      tag_241\n      jump\t// in\n    tag_356:\n        /* \"#utility.yul\":8409:8484   */\n      swap1\n      pop\n        /* \"#utility.yul\":8507:8513   */\n      dup3\n        /* \"#utility.yul\":8500:8505   */\n      dup2\n        /* \"#utility.yul\":8493:8514   */\n      mstore\n        /* \"#utility.yul\":8545:8549   */\n      0x20\n        /* \"#utility.yul\":8538:8543   */\n      dup2\n        /* \"#utility.yul\":8534:8550   */\n      add\n        /* \"#utility.yul\":8583:8586   */\n      dup5\n        /* \"#utility.yul\":8574:8580   */\n      dup5\n        /* \"#utility.yul\":8569:8572   */\n      dup5\n        /* \"#utility.yul\":8565:8581   */\n      add\n        /* \"#utility.yul\":8562:8587   */\n      gt\n        /* \"#utility.yul\":8559:8671   */\n      iszero\n      tag_358\n      jumpi\n        /* \"#utility.yul\":8590:8669   */\n      tag_359\n      tag_238\n      jump\t// in\n    tag_359:\n        /* \"#utility.yul\":8559:8671   */\n    tag_358:\n        /* \"#utility.yul\":8680:8734   */\n      tag_360\n        /* \"#utility.yul\":8727:8733   */\n      dup5\n        /* \"#utility.yul\":8722:8725   */\n      dup3\n        /* \"#utility.yul\":8717:8720   */\n      dup6\n        /* \"#utility.yul\":8680:8734   */\n      tag_243\n      jump\t// in\n    tag_360:\n        /* \"#utility.yul\":8399:8740   */\n      pop\n        /* \"#utility.yul\":8315:8740   */\n      swap4\n      swap3\n      pop\n      pop\n      pop\n      jump\t// out\n        /* \"#utility.yul\":8760:9100   */\n    tag_245:\n        /* \"#utility.yul\":8816:8821   */\n      0x00\n        /* \"#utility.yul\":8865:8868   */\n      dup3\n        /* \"#utility.yul\":8858:8862   */\n      0x1f\n        /* \"#utility.yul\":8850:8856   */\n      dup4\n        /* \"#utility.yul\":8846:8863   */\n      add\n        /* \"#utility.yul\":8842:8869   */\n      slt\n        /* \"#utility.yul\":8832:8954   */\n      tag_362\n      jumpi\n        /* \"#utility.yul\":8873:8952   */\n      tag_363\n      tag_237\n      jump\t// in\n    tag_363:\n        /* \"#utility.yul\":8832:8954   */\n    tag_362:\n        /* \"#utility.yul\":8990:8996   */\n      dup2\n        /* \"#utility.yul\":8977:8997   */\n      calldataload\n        /* \"#utility.yul\":9015:9094   */\n      tag_364\n        /* \"#utility.yul\":9090:9093   */\n      dup5\n        /* \"#utility.yul\":9082:9088   */\n      dup3\n        /* \"#utility.yul\":9075:9079   */\n      0x20\n        /* \"#utility.yul\":9067:9073   */\n      dup7\n        /* \"#utility.yul\":9063:9080   */\n      add\n        /* \"#utility.yul\":9015:9094   */\n      tag_244\n      jump\t// in\n    tag_364:\n        /* \"#utility.yul\":9006:9094   */\n      swap2\n      pop\n        /* \"#utility.yul\":8822:9100   */\n      pop\n        /* \"#utility.yul\":8760:9100   */\n      swap3\n      swap2\n      pop\n      pop\n      jump\t// out\n        /* \"#utility.yul\":9106:9905   */\n    tag_82:\n        /* \"#utility.yul\":9193:9199   */\n      0x00\n        /* \"#utility.yul\":9201:9207   */\n      dup1\n        /* \"#utility.yul\":9209:9215   */\n      0x00\n        /* \"#utility.yul\":9258:9260   */\n      0x60\n        /* \"#utility.yul\":9246:9255   */\n      dup5\n        /* \"#utility.yul\":9237:9244   */\n      dup7\n        /* \"#utility.yul\":9233:9256   */\n      sub\n        /* \"#utility.yul\":9229:9261   */\n      slt\n        /* \"#utility.yul\":9226:9345   */\n      iszero\n      tag_366\n      jumpi\n        /* \"#utility.yul\":9264:9343   */\n      tag_367\n      tag_219\n      jump\t// in\n    tag_367:\n        /* \"#utility.yul\":9226:9345   */\n    tag_366:\n        /* \"#utility.yul\":9412:9413   */\n      0x00\n        /* \"#utility.yul\":9401:9410   */\n      dup5\n        /* \"#utility.yul\":9397:9414   */\n      add\n        /* \"#utility.yul\":9384:9415   */\n      calldataload\n        /* \"#utility.yul\":9442:9460   */\n      0xffffffffffffffff\n        /* \"#utility.yul\":9434:9440   */\n      dup2\n        /* \"#utility.yul\":9431:9461   */\n      gt\n        /* \"#utility.yul\":9428:9545   */\n      iszero\n      tag_368\n      jumpi\n        /* \"#utility.yul\":9464:9543   */\n      tag_369\n      tag_220\n      jump\t// in\n    tag_369:\n        /* \"#utility.yul\":9428:9545   */\n    tag_368:\n        /* \"#utility.yul\":9569:9632   */\n      tag_370\n        /* \"#utility.yul\":9624:9631   */\n      dup7\n        /* \"#utility.yul\":9615:9621   */\n      dup3\n        /* \"#utility.yul\":9604:9613   */\n      dup8\n        /* \"#utility.yul\":9600:9622   */\n      add\n        /* \"#utility.yul\":9569:9632   */\n      tag_245\n      jump\t// in\n    tag_370:\n        /* \"#utility.yul\":9559:9632   */\n      swap4\n      pop\n        /* \"#utility.yul\":9355:9642   */\n      pop\n        /* \"#utility.yul\":9681:9683   */\n      0x20\n        /* \"#utility.yul\":9707:9760   */\n      tag_371\n        /* \"#utility.yul\":9752:9759   */\n      dup7\n        /* \"#utility.yul\":9743:9749   */\n      dup3\n        /* \"#utility.yul\":9732:9741   */\n      dup8\n        /* \"#utility.yul\":9728:9750   */\n      add\n        /* \"#utility.yul\":9707:9760   */\n      tag_223\n      jump\t// in\n    tag_371:\n        /* \"#utility.yul\":9697:9760   */\n      swap3\n      pop\n        /* \"#utility.yul\":9652:9770   */\n      pop\n        /* \"#utility.yul\":9809:9811   */\n      0x40\n        /* \"#utility.yul\":9835:9888   */\n      tag_372\n        /* \"#utility.yul\":9880:9887   */\n      dup7\n        /* \"#utility.yul\":9871:9877   */\n      dup3\n        /* \"#utility.yul\":9860:9869   */\n      dup8\n        /* \"#utility.yul\":9856:9878   */\n      add\n        /* \"#utility.yul\":9835:9888   */\n      tag_232\n      jump\t// in\n    tag_372:\n        /* \"#utility.yul\":9825:9888   */\n      swap2\n      pop\n        /* \"#utility.yul\":9780:9898   */\n      pop\n        /* \"#utility.yul\":9106:9905   */\n      swap3\n      pop\n      swap3\n      pop\n      swap3\n      jump\t// out\n        /* \"#utility.yul\":9911:10091   */\n    tag_119:\n        /* \"#utility.yul\":9959:10036   */\n      0x4e487b7100000000000000000000000000000000000000000000000000000000\n        /* \"#utility.yul\":9956:9957   */\n      0x00\n        /* \"#utility.yul\":9949:10037   */\n      mstore\n        /* \"#utility.yul\":10056:10060   */\n      0x32\n        /* \"#utility.yul\":10053:10054   */\n      0x04\n        /* \"#utility.yul\":10046:10061   */\n      mstore\n        /* \"#utility.yul\":10080:10084   */\n      0x24\n        /* \"#utility.yul\":10077:10078   */\n      0x00\n        /* \"#utility.yul\":10070:10085   */\n      revert\n        /* \"#utility.yul\":10097:10277   */\n    tag_246:\n        /* \"#utility.yul\":10145:10222   */\n      0x4e487b7100000000000000000000000000000000000000000000000000000000\n        /* \"#utility.yul\":10142:10143   */\n      0x00\n        /* \"#utility.yul\":10135:10223   */\n      mstore\n        /* \"#utility.yul\":10242:10246   */\n      0x12\n        /* \"#utility.yul\":10239:10240   */\n      0x04\n        /* \"#utility.yul\":10232:10247   */\n      mstore\n        /* \"#utility.yul\":10266:10270   */\n      0x24\n        /* \"#utility.yul\":10263:10264   */\n      0x00\n        /* \"#utility.yul\":10256:10271   */\n      revert\n        /* \"#utility.yul\":10283:10463   */\n    tag_247:\n        /* \"#utility.yul\":10331:10408   */\n      0x4e487b7100000000000000000000000000000000000000000000000000000000\n        /* \"#utility.yul\":10328:10329   */\n      0x00\n        /* \"#utility.yul\":10321:10409   */\n      mstore\n        /* \"#utility.yul\":10428:10432   */\n      0x11\n        /* \"#utility.yul\":10425:10426   */\n      0x04\n        /* \"#utility.yul\":10418:10433   */\n      mstore\n        /* \"#utility.yul\":10452:10456   */\n      0x24\n        /* \"#utility.yul\":10449:10450   */\n      0x00\n        /* \"#utility.yul\":10442:10457   */\n      revert\n        /* \"#utility.yul\":10469:10654   */\n    tag_122:\n        /* \"#utility.yul\":10509:10510   */\n      0x00\n        /* \"#utility.yul\":10526:10546   */\n      tag_377\n        /* \"#utility.yul\":10544:10545   */\n      dup3\n        /* \"#utility.yul\":10526:10546   */\n      tag_221\n      jump\t// in\n    tag_377:\n        /* \"#utility.yul\":10521:10546   */\n      swap2\n      pop\n        /* \"#utility.yul\":10560:10580   */\n      tag_378\n        /* \"#utility.yul\":10578:10579   */\n      dup4\n        /* \"#utility.yul\":10560:10580   */\n      tag_221\n      jump\t// in\n    tag_378:\n        /* \"#utility.yul\":10555:10580   */\n      swap3\n      pop\n        /* \"#utility.yul\":10599:10600   */\n      dup3\n        /* \"#utility.yul\":10589:10624   */\n      tag_379\n      jumpi\n        /* \"#utility.yul\":10604:10622   */\n      tag_380\n      tag_246\n      jump\t// in\n    tag_380:\n        /* \"#utility.yul\":10589:10624   */\n    tag_379:\n        /* \"#utility.yul\":10646:10647   */\n      dup3\n        /* \"#utility.yul\":10643:10644   */\n      dup3\n        /* \"#utility.yul\":10639:10648   */\n      div\n        /* \"#utility.yul\":10634:10648   */\n      swap1\n      pop\n        /* \"#utility.yul\":10469:10654   */\n      swap3\n      swap2\n      pop\n      pop\n      jump\t// out\n        /* \"#utility.yul\":10660:10840   */\n    tag_248:\n        /* \"#utility.yul\":10708:10785   */\n      0x4e487b7100000000000000000000000000000000000000000000000000000000\n        /* \"#utility.yul\":10705:10706   */\n      0x00\n        /* \"#utility.yul\":10698:10786   */\n      mstore\n        /* \"#utility.yul\":10805:10809   */\n      0x22\n        /* \"#utility.yul\":10802:10803   */\n      0x04\n        /* \"#utility.yul\":10795:10810   */\n      mstore\n        /* \"#utility.yul\":10829:10833   */\n      0x24\n        /* \"#utility.yul\":10826:10827   */\n      0x00\n        /* \"#utility.yul\":10819:10834   */\n      revert\n        /* \"#utility.yul\":10846:11166   */\n    tag_128:\n        /* \"#utility.yul\":10890:10896   */\n      0x00\n        /* \"#utility.yul\":10927:10928   */\n      0x02\n        /* \"#utility.yul\":10921:10925   */\n      dup3\n        /* \"#utility.yul\":10917:10929   */\n      div\n        /* \"#utility.yul\":10907:10929   */\n      swap1\n      pop\n        /* \"#utility.yul\":10974:10975   */\n      0x01\n        /* \"#utility.yul\":10968:10972   */\n      dup3\n        /* \"#utility.yul\":10964:10976   */\n      and\n        /* \"#utility.yul\":10995:11013   */\n      dup1\n        /* \"#utility.yul\":10985:11066   */\n      tag_383\n      jumpi\n        /* \"#utility.yul\":11051:11055   */\n      0x7f\n        /* \"#utility.yul\":11043:11049   */\n      dup3\n        /* \"#utility.yul\":11039:11056   */\n      and\n        /* \"#utility.yul\":11029:11056   */\n      swap2\n      pop\n        /* \"#utility.yul\":10985:11066   */\n    tag_383:\n        /* \"#utility.yul\":11113:11115   */\n      0x20\n        /* \"#utility.yul\":11105:11111   */\n      dup3\n        /* \"#utility.yul\":11102:11116   */\n      lt\n        /* \"#utility.yul\":11082:11100   */\n      dup2\n        /* \"#utility.yul\":11079:11117   */\n      sub\n        /* \"#utility.yul\":11076:11160   */\n      tag_384\n      jumpi\n        /* \"#utility.yul\":11132:11150   */\n      tag_385\n      tag_248\n      jump\t// in\n    tag_385:\n        /* \"#utility.yul\":11076:11160   */\n    tag_384:\n        /* \"#utility.yul\":10897:11166   */\n      pop\n        /* \"#utility.yul\":10846:11166   */\n      swap2\n      swap1\n      pop\n      jump\t// out\n        /* \"#utility.yul\":11172:11313   */\n    tag_249:\n        /* \"#utility.yul\":11221:11225   */\n      0x00\n        /* \"#utility.yul\":11244:11247   */\n      dup2\n        /* \"#utility.yul\":11236:11247   */\n      swap1\n      pop\n        /* \"#utility.yul\":11267:11270   */\n      dup2\n        /* \"#utility.yul\":11264:11265   */\n      0x00\n        /* \"#utility.yul\":11257:11271   */\n      mstore\n        /* \"#utility.yul\":11301:11305   */\n      0x20\n        /* \"#utility.yul\":11298:11299   */\n      0x00\n        /* \"#utility.yul\":11288:11306   */\n      keccak256\n        /* \"#utility.yul\":11280:11306   */\n      swap1\n      pop\n        /* \"#utility.yul\":11172:11313   */\n      swap2\n      swap1\n      pop\n      jump\t// out\n        /* \"#utility.yul\":11319:11412   */\n    tag_250:\n        /* \"#utility.yul\":11356:11362   */\n      0x00\n        /* \"#utility.yul\":11403:11405   */\n      0x20\n        /* \"#utility.yul\":11398:11400   */\n      0x1f\n        /* \"#utility.yul\":11391:11396   */\n      dup4\n        /* \"#utility.yul\":11387:11401   */\n      add\n        /* \"#utility.yul\":11383:11406   */\n      div\n        /* \"#utility.yul\":11373:11406   */\n      swap1\n      pop\n        /* \"#utility.yul\":11319:11412   */\n      swap2\n      swap1\n      pop\n      jump\t// out\n        /* \"#utility.yul\":11418:11525   */\n    tag_251:\n        /* \"#utility.yul\":11462:11470   */\n      0x00\n        /* \"#utility.yul\":11512:11517   */\n      dup3\n        /* \"#utility.yul\":11506:11510   */\n      dup3\n        /* \"#utility.yul\":11502:11518   */\n      shl\n        /* \"#utility.yul\":11481:11518   */\n      swap1\n      pop\n        /* \"#utility.yul\":11418:11525   */\n      swap3\n      swap2\n      pop\n      pop\n      jump\t// out\n        /* \"#utility.yul\":11531:11924   */\n    tag_252:\n        /* \"#utility.yul\":11600:11606   */\n      0x00\n        /* \"#utility.yul\":11650:11651   */\n      0x08\n        /* \"#utility.yul\":11638:11648   */\n      dup4\n        /* \"#utility.yul\":11634:11652   */\n      mul\n        /* \"#utility.yul\":11673:11770   */\n      tag_390\n        /* \"#utility.yul\":11703:11769   */\n      0xffffffffffffffffffffffffffffffffffffffffffffffffffffffffffffffff\n        /* \"#utility.yul\":11692:11701   */\n      dup3\n        /* \"#utility.yul\":11673:11770   */\n      tag_251\n      jump\t// in\n    tag_390:\n        /* \"#utility.yul\":11791:11830   */\n      tag_391\n        /* \"#utility.yul\":11821:11829   */\n      dup7\n        /* \"#utility.yul\":11810:11819   */\n      dup4\n        /* \"#utility.yul\":11791:11830   */\n      tag_251\n      jump\t// in\n    tag_391:\n        /* \"#utility.yul\":11779:11830   */\n      swap6\n      pop\n        /* \"#utility.yul\":11863:11867   */\n      dup1\n        /* \"#utility.yul\":11859:11868   */\n      not\n        /* \"#utility.yul\":11852:11857   */\n      dup5\n        /* \"#utility.yul\":11848:11869   */\n      and\n        /* \"#utility.yul\":11839:11869   */\n      swap4\n      pop\n        /* \"#utility.yul\":11912:11916   */\n      dup1\n        /* \"#utility.yul\":11902:11910   */\n      dup7\n        /* \"#utility.yul\":11898:11917   */\n      and\n        /* \"#utility.yul\":11891:11896   */\n      dup5\n        /* \"#utility.yul\":11888:11918   */\n      or\n        /* \"#utility.yul\":11878:11918   */\n      swap3\n      pop\n        /* \"#utility.yul\":11607:11924   */\n      pop\n      pop\n        /* \"#utility.yul\":11531:11924   */\n      swap4\n      swap3\n      pop\n      pop\n      pop\n      jump\t// out\n        /* \"#utility.yul\":11930:11990   */\n    tag_253:\n        /* \"#utility.yul\":11958:11961   */\n      0x00\n        /* \"#utility.yul\":11979:11984   */\n      dup2\n        /* \"#utility.yul\":11972:11984   */\n      swap1\n      pop\n        /* \"#utility.yul\":11930:11990   */\n      swap2\n      swap1\n      pop\n      jump\t// out\n        /* \"#utility.yul\":11996:12138   */\n    tag_254:\n        /* \"#utility.yul\":12046:12055   */\n      0x00\n        /* \"#utility.yul\":12079:12132   */\n      tag_394\n        /* \"#utility.yul\":12097:12131   */\n      tag_395\n        /* \"#utility.yul\":12106:12130   */\n      tag_396\n        /* \"#utility.yul\":12124:12129   */\n      dup5\n        /* \"#utility.yul\":12106:12130   */\n      tag_221\n      jump\t// in\n    tag_396:\n        /* \"#utility.yul\":12097:12131   */\n      tag_253\n      jump\t// in\n    tag_395:\n        /* \"#utility.yul\":12079:12132   */\n      tag_221\n      jump\t// in\n    tag_394:\n        /* \"#utility.yul\":12066:12132   */\n      swap1\n      pop\n        /* \"#utility.yul\":11996:12138   */\n      swap2\n      swap1\n      pop\n      jump\t// out\n        /* \"#utility.yul\":12144:12219   */\n    tag_255:\n        /* \"#utility.yul\":12187:12190   */\n      0x00\n        /* \"#utility.yul\":12208:12213   */\n      dup2\n        /* \"#utility.yul\":12201:12213   */\n      swap1\n      pop\n        /* \"#utility.yul\":12144:12219   */\n      swap2\n      swap1\n      pop\n      jump\t// out\n        /* \"#utility.yul\":12225:12494   */\n    tag_256:\n        /* \"#utility.yul\":12335:12374   */\n      tag_399\n        /* \"#utility.yul\":12366:12373   */\n      dup4\n        /* \"#utility.yul\":12335:12374   */\n      tag_254\n      jump\t// in\n    tag_399:\n        /* \"#utility.yul\":12396:12487   */\n      tag_400\n        /* \"#utility.yul\":12445:12486   */\n      tag_401\n        /* \"#utility.yul\":12469:12485   */\n      dup3\n        /* \"#utility.yul\":12445:12486   */\n      tag_255\n      jump\t// in\n    tag_401:\n        /* \"#utility.yul\":12437:12443   */\n      dup5\n        /* \"#utility.yul\":12430:12434   */\n      dup5\n        /* \"#utility.yul\":12424:12435   */\n      sload\n        /* \"#utility.yul\":12396:12487   */\n      tag_252\n      jump\t// in\n    tag_400:\n        /* \"#utility.yul\":12390:12394   */\n      dup3\n        /* \"#utility.yul\":12383:12488   */\n      sstore\n        /* \"#utility.yul\":12301:12494   */\n      pop\n        /* \"#utility.yul\":12225:12494   */\n      pop\n      pop\n      pop\n      jump\t// out\n        /* \"#utility.yul\":12500:12573   */\n    tag_257:\n        /* \"#utility.yul\":12545:12548   */\n      0x00\n        /* \"#utility.yul\":12500:12573   */\n      swap1\n      jump\t// out\n        /* \"#utility.yul\":12579:12768   */\n    tag_258:\n        /* \"#utility.yul\":12656:12688   */\n      tag_404\n      tag_257\n      jump\t// in\n    tag_404:\n        /* \"#utility.yul\":12697:12762   */\n      tag_405\n        /* \"#utility.yul\":12755:12761   */\n      dup2\n        /* \"#utility.yul\":12747:12753   */\n      dup5\n        /* \"#utility.yul\":12741:12745   */\n      dup5\n        /* \"#utility.yul\":12697:12762   */\n      tag_256\n      jump\t// in\n    tag_405:\n        /* \"#utility.yul\":12632:12768   */\n      pop\n        /* \"#utility.yul\":12579:12768   */\n      pop\n      pop\n      jump\t// out\n        /* \"#utility.yul\":12774:12960   */\n    tag_259:\n        /* \"#utility.yul\":12834:12954   */\n    tag_407:\n        /* \"#utility.yul\":12851:12854   */\n      dup2\n        /* \"#utility.yul\":12844:12849   */\n      dup2\n        /* \"#utility.yul\":12841:12855   */\n      lt\n        /* \"#utility.yul\":12834:12954   */\n      iszero\n      tag_409\n      jumpi\n        /* \"#utility.yul\":12905:12944   */\n      tag_410\n        /* \"#utility.yul\":12942:12943   */\n      0x00\n        /* \"#utility.yul\":12935:12940   */\n      dup3\n        /* \"#utility.yul\":12905:12944   */\n      tag_258\n      jump\t// in\n    tag_410:\n        /* \"#utility.yul\":12878:12879   */\n      0x01\n        /* \"#utility.yul\":12871:12876   */\n      dup2\n        /* \"#utility.yul\":12867:12880   */\n      add\n        /* \"#utility.yul\":12858:12880   */\n      swap1\n      pop\n        /* \"#utility.yul\":12834:12954   */\n      jump(tag_407)\n    tag_409:\n        /* \"#utility.yul\":12774:12960   */\n      pop\n      pop\n      jump\t// out\n        /* \"#utility.yul\":12966:13509   */\n    tag_260:\n        /* \"#utility.yul\":13067:13069   */\n      0x1f\n        /* \"#utility.yul\":13062:13065   */\n      dup3\n        /* \"#utility.yul\":13059:13070   */\n      gt\n        /* \"#utility.yul\":13056:13502   */\n      iszero\n      tag_412\n      jumpi\n        /* \"#utility.yul\":13101:13139   */\n      tag_413\n        /* \"#utility.yul\":13133:13138   */\n      dup2\n        /* \"#utility.yul\":13101:13139   */\n      tag_249\n      jump\t// in\n    tag_413:\n        /* \"#utility.yul\":13185:13214   */\n      tag_414\n        /* \"#utility.yul\":13203:13213   */\n      dup5\n        /* \"#utility.yul\":13185:13214   */\n      tag_250\n      jump\t// in\n    tag_414:\n        /* \"#utility.yul\":13175:13183   */\n      dup2\n        /* \"#utility.yul\":13171:13215   */\n      add\n        /* \"#utility.yul\":13368:13370   */\n      0x20\n        /* \"#utility.yul\":13356:13366   */\n      dup6\n        /* \"#utility.yul\":13353:13371   */\n      lt\n        /* \"#utility.yul\":13350:13399   */\n      iszero\n      tag_415\n      jumpi\n        /* \"#utility.yul\":13389:13397   */\n      dup2\n        /* \"#utility.yul\":13374:13397   */\n      swap1\n      pop\n        /* \"#utility.yul\":13350:13399   */\n    tag_415:\n        /* \"#utility.yul\":13412:13492   */\n      tag_416\n        /* \"#utility.yul\":13468:13490   */\n      tag_417\n        /* \"#utility.yul\":13486:13489   */\n      dup6\n        /* \"#utility.yul\":13468:13490   */\n      tag_250\n      jump\t// in\n    tag_417:\n        /* \"#utility.yul\":13458:13466   */\n      dup4\n        /* \"#utility.yul\":13454:13491   */\n      add\n        /* \"#utility.yul\":13441:13452   */\n      dup3\n        /* \"#utility.yul\":13412:13492   */\n      tag_259\n      jump\t// in\n    tag_416:\n        /* \"#utility.yul\":13071:13502   */\n      pop\n      pop\n        /* \"#utility.yul\":13056:13502   */\n    tag_412:\n        /* \"#utility.yul\":12966:13509   */\n      pop\n      pop\n      pop\n      jump\t// out\n        /* \"#utility.yul\":13515:13632   */\n    tag_261:\n        /* \"#utility.yul\":13569:13577   */\n      0x00\n        /* \"#utility.yul\":13619:13624   */\n      dup3\n        /* \"#utility.yul\":13613:13617   */\n      dup3\n        /* \"#utility.yul\":13609:13625   */\n      shr\n        /* \"#utility.yul\":13588:13625   */\n      swap1\n      pop\n        /* \"#utility.yul\":13515:13632   */\n      swap3\n      swap2\n      pop\n      pop\n      jump\t// out\n        /* \"#utility.yul\":13638:13807   */\n    tag_262:\n        /* \"#utility.yul\":13682:13688   */\n      0x00\n        /* \"#utility.yul\":13715:13766   */\n      tag_420\n        /* \"#utility.yul\":13763:13764   */\n      0x00\n        /* \"#utility.yul\":13759:13765   */\n      not\n        /* \"#utility.yul\":13751:13756   */\n      dup5\n        /* \"#utility.yul\":13748:13749   */\n      0x08\n        /* \"#utility.yul\":13744:13757   */\n      mul\n        /* \"#utility.yul\":13715:13766   */\n      tag_261\n      jump\t// in\n    tag_420:\n        /* \"#utility.yul\":13711:13767   */\n      not\n        /* \"#utility.yul\":13796:13800   */\n      dup1\n        /* \"#utility.yul\":13790:13794   */\n      dup4\n        /* \"#utility.yul\":13786:13801   */\n      and\n        /* \"#utility.yul\":13776:13801   */\n      swap2\n      pop\n        /* \"#utility.yul\":13689:13807   */\n      pop\n        /* \"#utility.yul\":13638:13807   */\n      swap3\n      swap2\n      pop\n      pop\n      jump\t// out\n        /* \"#utility.yul\":13812:14107   */\n    tag_263:\n        /* \"#utility.yul\":13888:13892   */\n      0x00\n        /* \"#utility.yul\":14034:14063   */\n      tag_422\n        /* \"#utility.yul\":14059:14062   */\n      dup4\n        /* \"#utility.yul\":14053:14057   */\n      dup4\n        /* \"#utility.yul\":14034:14063   */\n      tag_262\n      jump\t// in\n    tag_422:\n        /* \"#utility.yul\":14026:14063   */\n      swap2\n      pop\n        /* \"#utility.yul\":14096:14099   */\n      dup3\n        /* \"#utility.yul\":14093:14094   */\n      0x02\n        /* \"#utility.yul\":14089:14100   */\n      mul\n        /* \"#utility.yul\":14083:14087   */\n      dup3\n        /* \"#utility.yul\":14080:14101   */\n      or\n        /* \"#utility.yul\":14072:14101   */\n      swap1\n      pop\n        /* \"#utility.yul\":13812:14107   */\n      swap3\n      swap2\n      pop\n      pop\n      jump\t// out\n        /* \"#utility.yul\":14112:15507   */\n    tag_182:\n        /* \"#utility.yul\":14229:14266   */\n      tag_424\n        /* \"#utility.yul\":14262:14265   */\n      dup3\n        /* \"#utility.yul\":14229:14266   */\n      tag_224\n      jump\t// in\n    tag_424:\n        /* \"#utility.yul\":14331:14349   */\n      0xffffffffffffffff\n        /* \"#utility.yul\":14323:14329   */\n      dup2\n        /* \"#utility.yul\":14320:14350   */\n      gt\n        /* \"#utility.yul\":14317:14373   */\n      iszero\n      tag_425\n      jumpi\n        /* \"#utility.yul\":14353:14371   */\n      tag_426\n      tag_239\n      jump\t// in\n    tag_426:\n        /* \"#utility.yul\":14317:14373   */\n    tag_425:\n        /* \"#utility.yul\":14397:14435   */\n      tag_427\n        /* \"#utility.yul\":14429:14433   */\n      dup3\n        /* \"#utility.yul\":14423:14434   */\n      sload\n        /* \"#utility.yul\":14397:14435   */\n      tag_128\n      jump\t// in\n    tag_427:\n        /* \"#utility.yul\":14482:14549   */\n      tag_428\n        /* \"#utility.yul\":14542:14548   */\n      dup3\n        /* \"#utility.yul\":14534:14540   */\n      dup3\n        /* \"#utility.yul\":14528:14532   */\n      dup6\n        /* \"#utility.yul\":14482:14549   */\n      tag_260\n      jump\t// in\n    tag_428:\n        /* \"#utility.yul\":14576:14577   */\n      0x00\n        /* \"#utility.yul\":14600:14604   */\n      0x20\n        /* \"#utility.yul\":14587:14604   */\n      swap1\n      pop\n        /* \"#utility.yul\":14632:14634   */\n      0x1f\n        /* \"#utility.yul\":14624:14630   */\n      dup4\n        /* \"#utility.yul\":14621:14635   */\n      gt\n        /* \"#utility.yul\":14649:14650   */\n      0x01\n        /* \"#utility.yul\":14644:15262   */\n      dup2\n      eq\n      tag_430\n      jumpi\n        /* \"#utility.yul\":15306:15307   */\n      0x00\n        /* \"#utility.yul\":15323:15329   */\n      dup5\n        /* \"#utility.yul\":15320:15397   */\n      iszero\n      tag_431\n      jumpi\n        /* \"#utility.yul\":15372:15381   */\n      dup3\n        /* \"#utility.yul\":15367:15370   */\n      dup8\n        /* \"#utility.yul\":15363:15382   */\n      add\n        /* \"#utility.yul\":15357:15383   */\n      mload\n        /* \"#utility.yul\":15348:15383   */\n      swap1\n      pop\n        /* \"#utility.yul\":15320:15397   */\n    tag_431:\n        /* \"#utility.yul\":15423:15490   */\n      tag_432\n        /* \"#utility.yul\":15483:15489   */\n      dup6\n        /* \"#utility.yul\":15476:15481   */\n      dup3\n        /* \"#utility.yul\":15423:15490   */\n      tag_263\n      jump\t// in\n    tag_432:\n        /* \"#utility.yul\":15417:15421   */\n      dup7\n        /* \"#utility.yul\":15410:15491   */\n      sstore\n        /* \"#utility.yul\":15279:15501   */\n      pop\n        /* \"#utility.yul\":14614:15501   */\n      jump(tag_429)\n        /* \"#utility.yul\":14644:15262   */\n    tag_430:\n        /* \"#utility.yul\":14696:14700   */\n      0x1f\n        /* \"#utility.yul\":14692:14701   */\n      not\n        /* \"#utility.yul\":14684:14690   */\n      dup5\n        /* \"#utility.yul\":14680:14702   */\n      and\n        /* \"#utility.yul\":14730:14767   */\n      tag_433\n        /* \"#utility.yul\":14762:14766   */\n      dup7\n        /* \"#utility.yul\":14730:14767   */\n      tag_249\n      jump\t// in\n    tag_433:\n        /* \"#utility.yul\":14789:14790   */\n      0x00\n        /* \"#utility.yul\":14803:15011   */\n    tag_434:\n        /* \"#utility.yul\":14817:14824   */\n      dup3\n        /* \"#utility.yul\":14814:14815   */\n      dup2\n        /* \"#utility.yul\":14811:14825   */\n      lt\n        /* \"#utility.yul\":14803:15011   */\n      iszero\n      tag_436\n      jumpi\n        /* \"#utility.yul\":14896:14905   */\n      dup5\n        /* \"#utility.yul\":14891:14894   */\n      dup10\n        /* \"#utility.yul\":14887:14906   */\n      add\n        /* \"#utility.yul\":14881:14907   */\n      mload\n        /* \"#utility.yul\":14873:14879   */\n      dup3\n        /* \"#utility.yul\":14866:14908   */\n      sstore\n        /* \"#utility.yul\":14947:14948   */\n      0x01\n        /* \"#utility.yul\":14939:14945   */\n      dup3\n        /* \"#utility.yul\":14935:14949   */\n      add\n        /* \"#utility.yul\":14925:14949   */\n      swap2\n      pop\n        /* \"#utility.yul\":14994:14996   */\n      0x20\n        /* \"#utility.yul\":14983:14992   */\n      dup6\n        /* \"#utility.yul\":14979:14997   */\n      add\n        /* \"#utility.yul\":14966:14997   */\n      swap5\n      pop\n        /* \"#utility.yul\":14840:14844   */\n      0x20\n        /* \"#utility.yul\":14837:14838   */\n      dup2\n        /* \"#utility.yul\":14833:14845   */\n      add\n        /* \"#utility.yul\":14828:14845   */\n      swap1\n      pop\n        /* \"#utility.yul\":14803:15011   */\n      jump(tag_434)\n    tag_436:\n        /* \"#utility.yul\":15039:15045   */\n      dup7\n        /* \"#utility.yul\":15030:15037   */\n      dup4\n        /* \"#utility.yul\":15027:15046   */\n      lt\n        /* \"#utility.yul\":15024:15203   */\n      iszero\n      tag_437\n      jumpi\n        /* \"#utility.yul\":15097:15106   */\n      dup5\n        /* \"#utility.yul\":15092:15095   */\n      dup10\n        /* \"#utility.yul\":15088:15107   */\n      add\n        /* \"#utility.yul\":15082:15108   */\n      mload\n        /* \"#utility.yul\":15140:15188   */\n      tag_438\n        /* \"#utility.yul\":15182:15186   */\n      0x1f\n        /* \"#utility.yul\":15174:15180   */\n      dup10\n        /* \"#utility.yul\":15170:15187   */\n      and\n        /* \"#utility.yul\":15159:15168   */\n      dup3\n        /* \"#utility.yul\":15140:15188   */\n      tag_262\n      jump\t// in\n    tag_438:\n        /* \"#utility.yul\":15132:15138   */\n      dup4\n        /* \"#utility.yul\":15125:15189   */\n      sstore\n        /* \"#utility.yul\":15047:15203   */\n      pop\n        /* \"#utility.yul\":15024:15203   */\n    tag_437:\n        /* \"#utility.yul\":15249:15250   */\n      0x01\n        /* \"#utility.yul\":15245:15246   */\n      0x02\n        /* \"#utility.yul\":15237:15243   */\n      dup9\n        /* \"#utility.yul\":15233:15247   */\n      mul\n        /* \"#utility.yul\":15229:15251   */\n      add\n        /* \"#utility.yul\":15223:15227   */\n      dup9\n        /* \"#utility.yul\":15216:15252   */\n      sstore\n        /* \"#utility.yul\":14651:15262   */\n      pop\n      pop\n      pop\n        /* \"#utility.yul\":14614:15501   */\n    tag_429:\n      pop\n        /* \"#utility.yul\":14204:15507   */\n      pop\n      pop\n      pop\n        /* \"#utility.yul\":14112:15507   */\n      pop\n      pop\n      jump\t// out\n        /* \"#utility.yul\":15513:15689   */\n    tag_264:\n        /* \"#utility.yul\":15653:15681   */\n      0x726571756972656420616d6f756e742066756c6c66696c6c6564000000000000\n        /* \"#utility.yul\":15649:15650   */\n      0x00\n        /* \"#utility.yul\":15641:15647   */\n      dup3\n        /* \"#utility.yul\":15637:15651   */\n      add\n        /* \"#utility.yul\":15630:15682   */\n      mstore\n        /* \"#utility.yul\":15513:15689   */\n      pop\n      jump\t// out\n        /* \"#utility.yul\":15695:16061   */\n    tag_265:\n        /* \"#utility.yul\":15837:15840   */\n      0x00\n        /* \"#utility.yul\":15858:15925   */\n      tag_441\n        /* \"#utility.yul\":15922:15924   */\n      0x1a\n        /* \"#utility.yul\":15917:15920   */\n      dup4\n        /* \"#utility.yul\":15858:15925   */\n      tag_225\n      jump\t// in\n    tag_441:\n        /* \"#utility.yul\":15851:15925   */\n      swap2\n      pop\n        /* \"#utility.yul\":15934:16027   */\n      tag_442\n        /* \"#utility.yul\":16023:16026   */\n      dup3\n        /* \"#utility.yul\":15934:16027   */\n      tag_264\n      jump\t// in\n    tag_442:\n        /* \"#utility.yul\":16052:16054   */\n      0x20\n        /* \"#utility.yul\":16047:16050   */\n      dup3\n        /* \"#utility.yul\":16043:16055   */\n      add\n        /* \"#utility.yul\":16036:16055   */\n      swap1\n      pop\n        /* \"#utility.yul\":15695:16061   */\n      swap2\n      swap1\n      pop\n      jump\t// out\n        /* \"#utility.yul\":16067:16486   */\n    tag_197:\n        /* \"#utility.yul\":16233:16237   */\n      0x00\n        /* \"#utility.yul\":16271:16273   */\n      0x20\n        /* \"#utility.yul\":16260:16269   */\n      dup3\n        /* \"#utility.yul\":16256:16274   */\n      add\n        /* \"#utility.yul\":16248:16274   */\n      swap1\n      pop\n        /* \"#utility.yul\":16320:16329   */\n      dup2\n        /* \"#utility.yul\":16314:16318   */\n      dup2\n        /* \"#utility.yul\":16310:16330   */\n      sub\n        /* \"#utility.yul\":16306:16307   */\n      0x00\n        /* \"#utility.yul\":16295:16304   */\n      dup4\n        /* \"#utility.yul\":16291:16308   */\n      add\n        /* \"#utility.yul\":16284:16331   */\n      mstore\n        /* \"#utility.yul\":16348:16479   */\n      tag_444\n        /* \"#utility.yul\":16474:16478   */\n      dup2\n        /* \"#utility.yul\":16348:16479   */\n      tag_265\n      jump\t// in\n    tag_444:\n        /* \"#utility.yul\":16340:16479   */\n      swap1\n      pop\n        /* \"#utility.yul\":16067:16486   */\n      swap2\n      swap1\n      pop\n      jump\t// out\n        /* \"#utility.yul\":16492:16725   */\n    tag_200:\n        /* \"#utility.yul\":16531:16534   */\n      0x00\n        /* \"#utility.yul\":16554:16578   */\n      tag_446\n        /* \"#utility.yul\":16572:16577   */\n      dup3\n        /* \"#utility.yul\":16554:16578   */\n      tag_221\n      jump\t// in\n    tag_446:\n        /* \"#utility.yul\":16545:16578   */\n      swap2\n      pop\n        /* \"#utility.yul\":16600:16666   */\n      0xffffffffffffffffffffffffffffffffffffffffffffffffffffffffffffffff\n        /* \"#utility.yul\":16593:16598   */\n      dup3\n        /* \"#utility.yul\":16590:16667   */\n      sub\n        /* \"#utility.yul\":16587:16690   */\n      tag_447\n      jumpi\n        /* \"#utility.yul\":16670:16688   */\n      tag_448\n      tag_247\n      jump\t// in\n    tag_448:\n        /* \"#utility.yul\":16587:16690   */\n    tag_447:\n        /* \"#utility.yul\":16717:16718   */\n      0x01\n        /* \"#utility.yul\":16710:16715   */\n      dup3\n        /* \"#utility.yul\":16706:16719   */\n      add\n        /* \"#utility.yul\":16699:16719   */\n      swap1\n      pop\n        /* \"#utility.yul\":16492:16725   */\n      swap2\n      swap1\n      pop\n      jump\t// out\n        /* \"#utility.yul\":16731:16922   */\n    tag_202:\n        /* \"#utility.yul\":16771:16774   */\n      0x00\n        /* \"#utility.yul\":16790:16810   */\n      tag_450\n        /* \"#utility.yul\":16808:16809   */\n      dup3\n        /* \"#utility.yul\":16790:16810   */\n      tag_221\n      jump\t// in\n    tag_450:\n        /* \"#utility.yul\":16785:16810   */\n      swap2\n      pop\n        /* \"#utility.yul\":16824:16844   */\n      tag_451\n        /* \"#utility.yul\":16842:16843   */\n      dup4\n        /* \"#utility.yul\":16824:16844   */\n      tag_221\n      jump\t// in\n    tag_451:\n        /* \"#utility.yul\":16819:16844   */\n      swap3\n      pop\n        /* \"#utility.yul\":16867:16868   */\n      dup3\n        /* \"#utility.yul\":16864:16865   */\n      dup3\n        /* \"#utility.yul\":16860:16869   */\n      add\n        /* \"#utility.yul\":16853:16869   */\n      swap1\n      pop\n        /* \"#utility.yul\":16888:16891   */\n      dup1\n        /* \"#utility.yul\":16885:16886   */\n      dup3\n        /* \"#utility.yul\":16882:16892   */\n      gt\n        /* \"#utility.yul\":16879:16915   */\n      iszero\n      tag_452\n      jumpi\n        /* \"#utility.yul\":16895:16913   */\n      tag_453\n      tag_247\n      jump\t// in\n    tag_453:\n        /* \"#utility.yul\":16879:16915   */\n    tag_452:\n        /* \"#utility.yul\":16731:16922   */\n      swap3\n      swap2\n      pop\n      pop\n      jump\t// out\n        /* \"#utility.yul\":16928:17105   */\n    tag_266:\n        /* \"#utility.yul\":17068:17097   */\n      0x43616d706169676e2068617320616c726561647920656e6465642e0000000000\n        /* \"#utility.yul\":17064:17065   */\n      0x00\n        /* \"#utility.yul\":17056:17062   */\n      dup3\n        /* \"#utility.yul\":17052:17066   */\n      add\n        /* \"#utility.yul\":17045:17098   */\n      mstore\n        /* \"#utility.yul\":16928:17105   */\n      pop\n      jump\t// out\n        /* \"#utility.yul\":17111:17477   */\n    tag_267:\n        /* \"#utility.yul\":17253:17256   */\n      0x00\n        /* \"#utility.yul\":17274:17341   */\n      tag_456\n        /* \"#utility.yul\":17338:17340   */\n      0x1b\n        /* \"#utility.yul\":17333:17336   */\n      dup4\n        /* \"#utility.yul\":17274:17341   */\n      tag_225\n      jump\t// in\n    tag_456:\n        /* \"#utility.yul\":17267:17341   */\n      swap2\n      pop\n        /* \"#utility.yul\":17350:17443   */\n      tag_457\n        /* \"#utility.yul\":17439:17442   */\n      dup3\n        /* \"#utility.yul\":17350:17443   */\n      tag_266\n      jump\t// in\n    tag_457:\n        /* \"#utility.yul\":17468:17470   */\n      0x20\n        /* \"#utility.yul\":17463:17466   */\n      dup3\n        /* \"#utility.yul\":17459:17471   */\n      add\n        /* \"#utility.yul\":17452:17471   */\n      swap1\n      pop\n        /* \"#utility.yul\":17111:17477   */\n      swap2\n      swap1\n      pop\n      jump\t// out\n        /* \"#utility.yul\":17483:17902   */\n    tag_213:\n        /* \"#utility.yul\":17649:17653   */\n      0x00\n        /* \"#utility.yul\":17687:17689   */\n      0x20\n        /* \"#utility.yul\":17676:17685   */\n      dup3\n        /* \"#utility.yul\":17672:17690   */\n      add\n        /* \"#utility.yul\":17664:17690   */\n      swap1\n      pop\n        /* \"#utility.yul\":17736:17745   */\n      dup2\n        /* \"#utility.yul\":17730:17734   */\n      dup2\n        /* \"#utility.yul\":17726:17746   */\n      sub\n        /* \"#utility.yul\":17722:17723   */\n      0x00\n        /* \"#utility.yul\":17711:17720   */\n      dup4\n        /* \"#utility.yul\":17707:17724   */\n      add\n        /* \"#utility.yul\":17700:17747   */\n      mstore\n        /* \"#utility.yul\":17764:17895   */\n      tag_459\n        /* \"#utility.yul\":17890:17894   */\n      dup2\n        /* \"#utility.yul\":17764:17895   */\n      tag_267\n      jump\t// in\n    tag_459:\n        /* \"#utility.yul\":17756:17895   */\n      swap1\n      pop\n        /* \"#utility.yul\":17483:17902   */\n      swap2\n      swap1\n      pop\n      jump\t// out\n        /* \"#utility.yul\":17908:18102   */\n    tag_215:\n        /* \"#utility.yul\":17948:17952   */\n      0x00\n        /* \"#utility.yul\":17968:17988   */\n      tag_461\n        /* \"#utility.yul\":17986:17987   */\n      dup3\n        /* \"#utility.yul\":17968:17988   */\n      tag_221\n      jump\t// in\n    tag_461:\n        /* \"#utility.yul\":17963:17988   */\n      swap2\n      pop\n        /* \"#utility.yul\":18002:18022   */\n      tag_462\n        /* \"#utility.yul\":18020:18021   */\n      dup4\n        /* \"#utility.yul\":18002:18022   */\n      tag_221\n      jump\t// in\n    tag_462:\n        /* \"#utility.yul\":17997:18022   */\n      swap3\n      pop\n        /* \"#utility.yul\":18046:18047   */\n      dup3\n        /* \"#utility.yul\":18043:18044   */\n      dup3\n        /* \"#utility.yul\":18039:18048   */\n      sub\n        /* \"#utility.yul\":18031:18048   */\n      swap1\n      pop\n        /* \"#utility.yul\":18070:18071   */\n      dup2\n        /* \"#utility.yul\":18064:18068   */\n      dup2\n        /* \"#utility.yul\":18061:18072   */\n      gt\n        /* \"#utility.yul\":18058:18095   */\n      iszero\n      tag_463\n      jumpi\n        /* \"#utility.yul\":18075:18093   */\n      tag_464\n      tag_247\n      jump\t// in\n    tag_464:\n        /* \"#utility.yul\":18058:18095   */\n    tag_463:\n        /* \"#utility.yul\":17908:18102   */\n      swap3\n      swap2\n      pop\n      pop\n      jump\t// out\n\n    auxdata: 0xa2646970667358221220af8ffec03fc588f7ed517452b644d00b7a5a68252efdcb1716c64cd67324159864736f6c63430008170033\n}\n","bytecode":{"linkReferences":{},"object":"608060405234801562000010575f80fd5b50604051620022dd380380620022dd833981810160405281019062000036919062000312565b8760015f6101000a81548173ffffffffffffffffffffffffffffffffffffffff021916908373ffffffffffffffffffffffffffffffffffffffff1602179055508860028190555086600590816200008e9190620006b4565b508560069081620000a09190620006b4565b508460079081620000b29190620006b4565b50836008819055508260098190555081600a9081620000d29190620006b4565b5080600c9081620000e49190620006b4565b5050505050505050505062000798565b5f604051905090565b5f80fd5b5f80fd5b5f819050919050565b620001198162000105565b811462000124575f80fd5b50565b5f8151905062000137816200010e565b92915050565b5f73ffffffffffffffffffffffffffffffffffffffff82169050919050565b5f62000168826200013d565b9050919050565b6200017a816200015c565b811462000185575f80fd5b50565b5f8151905062000198816200016f565b92915050565b5f80fd5b5f80fd5b5f601f19601f8301169050919050565b7f4e487b71000000000000000000000000000000000000000000000000000000005f52604160045260245ffd5b620001ee82620001a6565b810181811067ffffffffffffffff8211171562000210576200020f620001b6565b5b80604052505050565b5f62000224620000f4565b9050620002328282620001e3565b919050565b5f67ffffffffffffffff821115620002545762000253620001b6565b5b6200025f82620001a6565b9050602081019050919050565b5f5b838110156200028b5780820151818401526020810190506200026e565b5f8484015250505050565b5f620002ac620002a68462000237565b62000219565b905082815260208101848484011115620002cb57620002ca620001a2565b5b620002d88482856200026c565b509392505050565b5f82601f830112620002f757620002f66200019e565b5b81516200030984826020860162000296565b91505092915050565b5f805f805f805f805f6101208a8c031215620003335762000332620000fd565b5b5f620003428c828d0162000127565b9950506020620003558c828d0162000188565b98505060408a015167ffffffffffffffff81111562000379576200037862000101565b5b620003878c828d01620002e0565b97505060608a015167ffffffffffffffff811115620003ab57620003aa62000101565b5b620003b98c828d01620002e0565b96505060808a015167ffffffffffffffff811115620003dd57620003dc62000101565b5b620003eb8c828d01620002e0565b95505060a0620003fe8c828d0162000127565b94505060c0620004118c828d0162000127565b93505060e08a015167ffffffffffffffff81111562000435576200043462000101565b5b620004438c828d01620002e0565b9250506101008a015167ffffffffffffffff81111562000468576200046762000101565b5b620004768c828d01620002e0565b9150509295985092959850929598565b5f81519050919050565b7f4e487b71000000000000000000000000000000000000000000000000000000005f52602260045260245ffd5b5f6002820490506001821680620004d557607f821691505b602082108103620004eb57620004ea62000490565b5b50919050565b5f819050815f5260205f209050919050565b5f6020601f8301049050919050565b5f82821b905092915050565b5f600883026200054f7fffffffffffffffffffffffffffffffffffffffffffffffffffffffffffffffff8262000512565b6200055b868362000512565b95508019841693508086168417925050509392505050565b5f819050919050565b5f6200059c62000596620005908462000105565b62000573565b62000105565b9050919050565b5f819050919050565b620005b7836200057c565b620005cf620005c682620005a3565b8484546200051e565b825550505050565b5f90565b620005e5620005d7565b620005f2818484620005ac565b505050565b5b8181101562000619576200060d5f82620005db565b600181019050620005f8565b5050565b601f82111562000668576200063281620004f1565b6200063d8462000503565b810160208510156200064d578190505b620006656200065c8562000503565b830182620005f7565b50505b505050565b5f82821c905092915050565b5f6200068a5f19846008026200066d565b1980831691505092915050565b5f620006a4838362000679565b9150826002028217905092915050565b620006bf8262000486565b67ffffffffffffffff811115620006db57620006da620001b6565b5b620006e78254620004bd565b620006f48282856200061d565b5f60209050601f8311600181146200072a575f841562000715578287015190505b62000721858262000697565b86555062000790565b601f1984166200073a86620004f1565b5f5b8281101562000763578489015182556001820191506020850194506020810190506200073c565b868310156200078357848901516200077f601f89168262000679565b8355505b6001600288020188555050505b505050505050565b611b3780620007a65f395ff3fe60806040526004361061011e575f3560e01c8063835a61721161009f578063c40bec2b11610063578063c40bec2b146103c7578063d7bb99ba146103f1578063d7d1bbdb146103fb578063ef068a7f14610423578063f26217411461044d5761011e565b8063835a6172146102f75780638a9cfd5514610321578063937e09b1146103495780639632e72014610373578063ad1d1c151461039d5761011e565b8063481c6a75116100e6578063481c6a751461020f5780636779d145146102395780637e5092201461026357806381d12c581461028d57806382fde093146102cd5761011e565b8063034410061461012257806304192ed51461014a5780630a144391146101745780633410452a146101b05780634051ddac146101da575b5f80fd5b34801561012d575f80fd5b506101486004803603810190610143919061115c565b610477565b005b348015610155575f80fd5b5061015e6105b5565b60405161016b9190611211565b60405180910390f35b34801561017f575f80fd5b5061019a6004803603810190610195919061128b565b610641565b6040516101a791906112d0565b60405180910390f35b3480156101bb575f80fd5b506101c461065e565b6040516101d191906112f8565b60405180910390f35b3480156101e5575f80fd5b506101ee610669565b6040516102069c9b9a99989796959493929190611320565b60405180910390f35b34801561021a575f80fd5b5061022361098e565b60405161023091906113fb565b60405180910390f35b348015610244575f80fd5b5061024d6109b3565b60405161025a91906112f8565b60405180910390f35b34801561026e575f80fd5b506102776109b9565b6040516102849190611211565b60405180910390f35b348015610298575f80fd5b506102b360048036038101906102ae919061115c565b610a45565b6040516102c4959493929190611414565b60405180910390f35b3480156102d8575f80fd5b506102e1610b37565b6040516102ee91906112f8565b60405180910390f35b348015610302575f80fd5b5061030b610b3d565b6040516103189190611211565b60405180910390f35b34801561032c575f80fd5b5061034760048036038101906103429190611598565b610bc9565b005b348015610354575f80fd5b5061035d610cc8565b60405161036a91906112f8565b60405180910390f35b34801561037e575f80fd5b50610387610cce565b60405161039491906112f8565b60405180910390f35b3480156103a8575f80fd5b506103b1610cd4565b6040516103be9190611211565b60405180910390f35b3480156103d2575f80fd5b506103db610d60565b6040516103e89190611211565b60405180910390f35b6103f9610dec565b005b348015610406575f80fd5b50610421600480360381019061041c919061115c565b610f59565b005b34801561042e575f80fd5b50610437611096565b60405161044491906112f8565b60405180910390f35b348015610458575f80fd5b5061046161109c565b60405161046e91906112f8565b60405180910390f35b60015f9054906101000a900473ffffffffffffffffffffffffffffffffffffffff1673ffffffffffffffffffffffffffffffffffffffff163373ffffffffffffffffffffffffffffffffffffffff16146104cf575f80fd5b5f8082815481106104e3576104e2611604565b5b905f5260205f20906005020190506002600454610500919061168b565b81600301541161050e575f80fd5b8060020160149054906101000a900460ff1615610529575f80fd5b806002015f9054906101000a900473ffffffffffffffffffffffffffffffffffffffff1673ffffffffffffffffffffffffffffffffffffffff166108fc826001015490811502906040515f60405180830381858888f19350505050158015610593573d5f803e3d5ffd5b5060018160020160146101000a81548160ff0219169083151502179055505050565b600680546105c2906116e8565b80601f01602080910402602001604051908101604052809291908181526020018280546105ee906116e8565b80156106395780601f1061061057610100808354040283529160200191610639565b820191905f5260205f20905b81548152906001019060200180831161061c57829003601f168201915b505050505081565b6003602052805f5260405f205f915054906101000a900460ff1681565b5f8080549050905090565b5f805f805f60608060605f80606080600254475f8054905060045460015f9054906101000a900473ffffffffffffffffffffffffffffffffffffffff16600560066007600854600954600a600c8680546106c2906116e8565b80601f01602080910402602001604051908101604052809291908181526020018280546106ee906116e8565b80156107395780601f1061071057610100808354040283529160200191610739565b820191905f5260205f20905b81548152906001019060200180831161071c57829003601f168201915b5050505050965085805461074c906116e8565b80601f0160208091040260200160405190810160405280929190818152602001828054610778906116e8565b80156107c35780601f1061079a576101008083540402835291602001916107c3565b820191905f5260205f20905b8154815290600101906020018083116107a657829003601f168201915b505050505095508480546107d6906116e8565b80601f0160208091040260200160405190810160405280929190818152602001828054610802906116e8565b801561084d5780601f106108245761010080835404028352916020019161084d565b820191905f5260205f20905b81548152906001019060200180831161083057829003601f168201915b50505050509450818054610860906116e8565b80601f016020809104026020016040519081016040528092919081815260200182805461088c906116e8565b80156108d75780601f106108ae576101008083540402835291602001916108d7565b820191905f5260205f20905b8154815290600101906020018083116108ba57829003601f168201915b505050505091508080546108ea906116e8565b80601f0160208091040260200160405190810160405280929190818152602001828054610916906116e8565b80156109615780601f1061093857610100808354040283529160200191610961565b820191905f5260205f20905b81548152906001019060200180831161094457829003601f168201915b505050505090509b509b509b509b509b509b509b509b509b509b509b509b50909192939495969798999a9b565b60015f9054906101000a900473ffffffffffffffffffffffffffffffffffffffff1681565b60095481565b600a80546109c6906116e8565b80601f01602080910402602001604051908101604052809291908181526020018280546109f2906116e8565b8015610a3d5780601f10610a1457610100808354040283529160200191610a3d565b820191905f5260205f20905b815481529060010190602001808311610a2057829003601f168201915b505050505081565b5f8181548110610a53575f80fd5b905f5260205f2090600502015f91509050805f018054610a72906116e8565b80601f0160208091040260200160405190810160405280929190818152602001828054610a9e906116e8565b8015610ae95780601f10610ac057610100808354040283529160200191610ae9565b820191905f5260205f20905b815481529060010190602001808311610acc57829003601f168201915b505050505090806001015490806002015f9054906101000a900473ffffffffffffffffffffffffffffffffffffffff16908060020160149054906101000a900460ff16908060030154905085565b60045481565b60058054610b4a906116e8565b80601f0160208091040260200160405190810160405280929190818152602001828054610b76906116e8565b8015610bc15780601f10610b9857610100808354040283529160200191610bc1565b820191905f5260205f20905b815481529060010190602001808311610ba457829003601f168201915b505050505081565b60015f9054906101000a900473ffffffffffffffffffffffffffffffffffffffff1673ffffffffffffffffffffffffffffffffffffffff163373ffffffffffffffffffffffffffffffffffffffff1614610c21575f80fd5b5f8060018160018154018082558091505003905f5260205f209060050201905083815f019081610c5191906118b5565b5082816001018190555081816002015f6101000a81548173ffffffffffffffffffffffffffffffffffffffff021916908373ffffffffffffffffffffffffffffffffffffffff1602179055505f8160020160146101000a81548160ff0219169083151502179055505f816003018190555050505050565b60025481565b600b5481565b60078054610ce1906116e8565b80601f0160208091040260200160405190810160405280929190818152602001828054610d0d906116e8565b8015610d585780601f10610d2f57610100808354040283529160200191610d58565b820191905f5260205f20905b815481529060010190602001808311610d3b57829003601f168201915b505050505081565b600c8054610d6d906116e8565b80601f0160208091040260200160405190810160405280929190818152602001828054610d99906116e8565b8015610de45780601f10610dbb57610100808354040283529160200191610de4565b820191905f5260205f20905b815481529060010190602001808311610dc757829003601f168201915b505050505081565b6002543411610df9575f80fd5b600b5460085411610e3f576040517f08c379a0000000000000000000000000000000000000000000000000000000008152600401610e36906119ce565b60405180910390fd5b60035f3373ffffffffffffffffffffffffffffffffffffffff1673ffffffffffffffffffffffffffffffffffffffff1681526020019081526020015f205f9054906101000a900460ff16610efa57600160035f3373ffffffffffffffffffffffffffffffffffffffff1673ffffffffffffffffffffffffffffffffffffffff1681526020019081526020015f205f6101000a81548160ff02191690831515021790555060045f815480929190610ef4906119ec565b91905055505b34600b5f828254610f0b9190611a33565b9250508190555042343373ffffffffffffffffffffffffffffffffffffffff167f377c50534b14698395ed573ff5b8d4841c6618456737de44217436ada6817cc760405160405180910390a4565b5f808281548110610f6d57610f6c611604565b5b905f5260205f209060050201905060035f3373ffffffffffffffffffffffffffffffffffffffff1673ffffffffffffffffffffffffffffffffffffffff1681526020019081526020015f205f9054906101000a900460ff16610fcd575f80fd5b806004015f3373ffffffffffffffffffffffffffffffffffffffff1673ffffffffffffffffffffffffffffffffffffffff1681526020019081526020015f205f9054906101000a900460ff1615611022575f80fd5b6001816004015f3373ffffffffffffffffffffffffffffffffffffffff1673ffffffffffffffffffffffffffffffffffffffff1681526020019081526020015f205f6101000a81548160ff021916908315150217905550806003015f81548092919061108d906119ec565b91905055505050565b60085481565b5f8042905080600954116110e5576040517f08c379a00000000000000000000000000000000000000000000000000000000081526004016110dc90611ab0565b60405180910390fd5b5f62015180826009546110f89190611ace565b611102919061168b565b90506001816111119190611a33565b9250505090565b5f604051905090565b5f80fd5b5f80fd5b5f819050919050565b61113b81611129565b8114611145575f80fd5b50565b5f8135905061115681611132565b92915050565b5f6020828403121561117157611170611121565b5b5f61117e84828501611148565b91505092915050565b5f81519050919050565b5f82825260208201905092915050565b5f5b838110156111be5780820151818401526020810190506111a3565b5f8484015250505050565b5f601f19601f8301169050919050565b5f6111e382611187565b6111ed8185611191565b93506111fd8185602086016111a1565b611206816111c9565b840191505092915050565b5f6020820190508181035f83015261122981846111d9565b905092915050565b5f73ffffffffffffffffffffffffffffffffffffffff82169050919050565b5f61125a82611231565b9050919050565b61126a81611250565b8114611274575f80fd5b50565b5f8135905061128581611261565b92915050565b5f602082840312156112a05761129f611121565b5b5f6112ad84828501611277565b91505092915050565b5f8115159050919050565b6112ca816112b6565b82525050565b5f6020820190506112e35f8301846112c1565b92915050565b6112f281611129565b82525050565b5f60208201905061130b5f8301846112e9565b92915050565b61131a81611250565b82525050565b5f610180820190506113345f83018f6112e9565b611341602083018e6112e9565b61134e604083018d6112e9565b61135b606083018c6112e9565b611368608083018b611311565b81810360a083015261137a818a6111d9565b905081810360c083015261138e81896111d9565b905081810360e08301526113a281886111d9565b90506113b26101008301876112e9565b6113c06101208301866112e9565b8181036101408301526113d381856111d9565b90508181036101608301526113e881846111d9565b90509d9c50505050505050505050505050565b5f60208201905061140e5f830184611311565b92915050565b5f60a0820190508181035f83015261142c81886111d9565b905061143b60208301876112e9565b6114486040830186611311565b61145560608301856112c1565b61146260808301846112e9565b9695505050505050565b5f80fd5b5f80fd5b7f4e487b71000000000000000000000000000000000000000000000000000000005f52604160045260245ffd5b6114aa826111c9565b810181811067ffffffffffffffff821117156114c9576114c8611474565b5b80604052505050565b5f6114db611118565b90506114e782826114a1565b919050565b5f67ffffffffffffffff82111561150657611505611474565b5b61150f826111c9565b9050602081019050919050565b828183375f83830152505050565b5f61153c611537846114ec565b6114d2565b90508281526020810184848401111561155857611557611470565b5b61156384828561151c565b509392505050565b5f82601f83011261157f5761157e61146c565b5b813561158f84826020860161152a565b91505092915050565b5f805f606084860312156115af576115ae611121565b5b5f84013567ffffffffffffffff8111156115cc576115cb611125565b5b6115d88682870161156b565b93505060206115e986828701611148565b92505060406115fa86828701611277565b9150509250925092565b7f4e487b71000000000000000000000000000000000000000000000000000000005f52603260045260245ffd5b7f4e487b71000000000000000000000000000000000000000000000000000000005f52601260045260245ffd5b7f4e487b71000000000000000000000000000000000000000000000000000000005f52601160045260245ffd5b5f61169582611129565b91506116a083611129565b9250826116b0576116af611631565b5b828204905092915050565b7f4e487b71000000000000000000000000000000000000000000000000000000005f52602260045260245ffd5b5f60028204905060018216806116ff57607f821691505b602082108103611712576117116116bb565b5b50919050565b5f819050815f5260205f209050919050565b5f6020601f8301049050919050565b5f82821b905092915050565b5f600883026117747fffffffffffffffffffffffffffffffffffffffffffffffffffffffffffffffff82611739565b61177e8683611739565b95508019841693508086168417925050509392505050565b5f819050919050565b5f6117b96117b46117af84611129565b611796565b611129565b9050919050565b5f819050919050565b6117d28361179f565b6117e66117de826117c0565b848454611745565b825550505050565b5f90565b6117fa6117ee565b6118058184846117c9565b505050565b5b818110156118285761181d5f826117f2565b60018101905061180b565b5050565b601f82111561186d5761183e81611718565b6118478461172a565b81016020851015611856578190505b61186a6118628561172a565b83018261180a565b50505b505050565b5f82821c905092915050565b5f61188d5f1984600802611872565b1980831691505092915050565b5f6118a5838361187e565b9150826002028217905092915050565b6118be82611187565b67ffffffffffffffff8111156118d7576118d6611474565b5b6118e182546116e8565b6118ec82828561182c565b5f60209050601f83116001811461191d575f841561190b578287015190505b611915858261189a565b86555061197c565b601f19841661192b86611718565b5f5b828110156119525784890151825560018201915060208501945060208101905061192d565b8683101561196f578489015161196b601f89168261187e565b8355505b6001600288020188555050505b505050505050565b7f726571756972656420616d6f756e742066756c6c66696c6c65640000000000005f82015250565b5f6119b8601a83611191565b91506119c382611984565b602082019050919050565b5f6020820190508181035f8301526119e5816119ac565b9050919050565b5f6119f682611129565b91507fffffffffffffffffffffffffffffffffffffffffffffffffffffffffffffffff8203611a2857611a2761165e565b5b600182019050919050565b5f611a3d82611129565b9150611a4883611129565b9250828201905080821115611a6057611a5f61165e565b5b92915050565b7f43616d706169676e2068617320616c726561647920656e6465642e00000000005f82015250565b5f611a9a601b83611191565b9150611aa582611a66565b602082019050919050565b5f6020820190508181035f830152611ac781611a8e565b9050919050565b5f611ad882611129565b9150611ae383611129565b9250828203905081811115611afb57611afa61165e565b5b9291505056fea2646970667358221220af8ffec03fc588f7ed517452b644d00b7a5a68252efdcb1716c64cd67324159864736f6c63430008170033","opcodes":"PUSH1 0x80 PUSH1 0x40 MSTORE CALLVALUE DUP1 ISZERO PUSH3 0x10 JUMPI PUSH0 DUP1 REVERT JUMPDEST POP PUSH1 0x40 MLOAD PUSH3 0x22DD CODESIZE SUB DUP1 PUSH3 0x22DD DUP4 CODECOPY DUP2 DUP2 ADD PUSH1 0x40 MSTORE DUP2 ADD SWAP1 PUSH3 0x36 SWAP2 SWAP1 PUSH3 0x312 JUMP JUMPDEST DUP8 PUSH1 0x1 PUSH0 PUSH2 0x100 EXP DUP2 SLOAD DUP2 PUSH20 0xFFFFFFFFFFFFFFFFFFFFFFFFFFFFFFFFFFFFFFFF MUL NOT AND SWAP1 DUP4 PUSH20 0xFFFFFFFFFFFFFFFFFFFFFFFFFFFFFFFFFFFFFFFF AND MUL OR SWAP1 SSTORE POP DUP9 PUSH1 0x2 DUP2 SWAP1 SSTORE POP DUP7 PUSH1 0x5 SWAP1 DUP2 PUSH3 0x8E SWAP2 SWAP1 PUSH3 0x6B4 JUMP JUMPDEST POP DUP6 PUSH1 0x6 SWAP1 DUP2 PUSH3 0xA0 SWAP2 SWAP1 PUSH3 0x6B4 JUMP JUMPDEST POP DUP5 PUSH1 0x7 SWAP1 DUP2 PUSH3 0xB2 SWAP2 SWAP1 PUSH3 0x6B4 JUMP JUMPDEST POP DUP4 PUSH1 0x8 DUP2 SWAP1 SSTORE POP DUP3 PUSH1 0x9 DUP2 SWAP1 SSTORE POP DUP2 PUSH1 0xA SWAP1 DUP2 PUSH3 0xD2 SWAP2 SWAP1 PUSH3 0x6B4 JUMP JUMPDEST POP DUP1 PUSH1 0xC SWAP1 DUP2 PUSH3 0xE4 SWAP2 SWAP1 PUSH3 0x6B4 JUMP JUMPDEST POP POP POP POP POP POP POP POP POP POP PUSH3 0x798 JUMP JUMPDEST PUSH0 PUSH1 0x40 MLOAD SWAP1 POP SWAP1 JUMP JUMPDEST PUSH0 DUP1 REVERT JUMPDEST PUSH0 DUP1 REVERT JUMPDEST PUSH0 DUP2 SWAP1 POP SWAP2 SWAP1 POP JUMP JUMPDEST PUSH3 0x119 DUP2 PUSH3 0x105 JUMP JUMPDEST DUP2 EQ PUSH3 0x124 JUMPI PUSH0 DUP1 REVERT JUMPDEST POP JUMP JUMPDEST PUSH0 DUP2 MLOAD SWAP1 POP PUSH3 0x137 DUP2 PUSH3 0x10E JUMP JUMPDEST SWAP3 SWAP2 POP POP JUMP JUMPDEST PUSH0 PUSH20 0xFFFFFFFFFFFFFFFFFFFFFFFFFFFFFFFFFFFFFFFF DUP3 AND SWAP1 POP SWAP2 SWAP1 POP JUMP JUMPDEST PUSH0 PUSH3 0x168 DUP3 PUSH3 0x13D JUMP JUMPDEST SWAP1 POP SWAP2 SWAP1 POP JUMP JUMPDEST PUSH3 0x17A DUP2 PUSH3 0x15C JUMP JUMPDEST DUP2 EQ PUSH3 0x185 JUMPI PUSH0 DUP1 REVERT JUMPDEST POP JUMP JUMPDEST PUSH0 DUP2 MLOAD SWAP1 POP PUSH3 0x198 DUP2 PUSH3 0x16F JUMP JUMPDEST SWAP3 SWAP2 POP POP JUMP JUMPDEST PUSH0 DUP1 REVERT JUMPDEST PUSH0 DUP1 REVERT JUMPDEST PUSH0 PUSH1 0x1F NOT PUSH1 0x1F DUP4 ADD AND SWAP1 POP SWAP2 SWAP1 POP JUMP JUMPDEST PUSH32 0x4E487B7100000000000000000000000000000000000000000000000000000000 PUSH0 MSTORE PUSH1 0x41 PUSH1 0x4 MSTORE PUSH1 0x24 PUSH0 REVERT JUMPDEST PUSH3 0x1EE DUP3 PUSH3 0x1A6 JUMP JUMPDEST DUP2 ADD DUP2 DUP2 LT PUSH8 0xFFFFFFFFFFFFFFFF DUP3 GT OR ISZERO PUSH3 0x210 JUMPI PUSH3 0x20F PUSH3 0x1B6 JUMP JUMPDEST JUMPDEST DUP1 PUSH1 0x40 MSTORE POP POP POP JUMP JUMPDEST PUSH0 PUSH3 0x224 PUSH3 0xF4 JUMP JUMPDEST SWAP1 POP PUSH3 0x232 DUP3 DUP3 PUSH3 0x1E3 JUMP JUMPDEST SWAP2 SWAP1 POP JUMP JUMPDEST PUSH0 PUSH8 0xFFFFFFFFFFFFFFFF DUP3 GT ISZERO PUSH3 0x254 JUMPI PUSH3 0x253 PUSH3 0x1B6 JUMP JUMPDEST JUMPDEST PUSH3 0x25F DUP3 PUSH3 0x1A6 JUMP JUMPDEST SWAP1 POP PUSH1 0x20 DUP2 ADD SWAP1 POP SWAP2 SWAP1 POP JUMP JUMPDEST PUSH0 JUMPDEST DUP4 DUP2 LT ISZERO PUSH3 0x28B JUMPI DUP1 DUP3 ADD MLOAD DUP2 DUP5 ADD MSTORE PUSH1 0x20 DUP2 ADD SWAP1 POP PUSH3 0x26E JUMP JUMPDEST PUSH0 DUP5 DUP5 ADD MSTORE POP POP POP POP JUMP JUMPDEST PUSH0 PUSH3 0x2AC PUSH3 0x2A6 DUP5 PUSH3 0x237 JUMP JUMPDEST PUSH3 0x219 JUMP JUMPDEST SWAP1 POP DUP3 DUP2 MSTORE PUSH1 0x20 DUP2 ADD DUP5 DUP5 DUP5 ADD GT ISZERO PUSH3 0x2CB JUMPI PUSH3 0x2CA PUSH3 0x1A2 JUMP JUMPDEST JUMPDEST PUSH3 0x2D8 DUP5 DUP3 DUP6 PUSH3 0x26C JUMP JUMPDEST POP SWAP4 SWAP3 POP POP POP JUMP JUMPDEST PUSH0 DUP3 PUSH1 0x1F DUP4 ADD SLT PUSH3 0x2F7 JUMPI PUSH3 0x2F6 PUSH3 0x19E JUMP JUMPDEST JUMPDEST DUP2 MLOAD PUSH3 0x309 DUP5 DUP3 PUSH1 0x20 DUP7 ADD PUSH3 0x296 JUMP JUMPDEST SWAP2 POP POP SWAP3 SWAP2 POP POP JUMP JUMPDEST PUSH0 DUP1 PUSH0 DUP1 PUSH0 DUP1 PUSH0 DUP1 PUSH0 PUSH2 0x120 DUP11 DUP13 SUB SLT ISZERO PUSH3 0x333 JUMPI PUSH3 0x332 PUSH3 0xFD JUMP JUMPDEST JUMPDEST PUSH0 PUSH3 0x342 DUP13 DUP3 DUP14 ADD PUSH3 0x127 JUMP JUMPDEST SWAP10 POP POP PUSH1 0x20 PUSH3 0x355 DUP13 DUP3 DUP14 ADD PUSH3 0x188 JUMP JUMPDEST SWAP9 POP POP PUSH1 0x40 DUP11 ADD MLOAD PUSH8 0xFFFFFFFFFFFFFFFF DUP2 GT ISZERO PUSH3 0x379 JUMPI PUSH3 0x378 PUSH3 0x101 JUMP JUMPDEST JUMPDEST PUSH3 0x387 DUP13 DUP3 DUP14 ADD PUSH3 0x2E0 JUMP JUMPDEST SWAP8 POP POP PUSH1 0x60 DUP11 ADD MLOAD PUSH8 0xFFFFFFFFFFFFFFFF DUP2 GT ISZERO PUSH3 0x3AB JUMPI PUSH3 0x3AA PUSH3 0x101 JUMP JUMPDEST JUMPDEST PUSH3 0x3B9 DUP13 DUP3 DUP14 ADD PUSH3 0x2E0 JUMP JUMPDEST SWAP7 POP POP PUSH1 0x80 DUP11 ADD MLOAD PUSH8 0xFFFFFFFFFFFFFFFF DUP2 GT ISZERO PUSH3 0x3DD JUMPI PUSH3 0x3DC PUSH3 0x101 JUMP JUMPDEST JUMPDEST PUSH3 0x3EB DUP13 DUP3 DUP14 ADD PUSH3 0x2E0 JUMP JUMPDEST SWAP6 POP POP PUSH1 0xA0 PUSH3 0x3FE DUP13 DUP3 DUP14 ADD PUSH3 0x127 JUMP JUMPDEST SWAP5 POP POP PUSH1 0xC0 PUSH3 0x411 DUP13 DUP3 DUP14 ADD PUSH3 0x127 JUMP JUMPDEST SWAP4 POP POP PUSH1 0xE0 DUP11 ADD MLOAD PUSH8 0xFFFFFFFFFFFFFFFF DUP2 GT ISZERO PUSH3 0x435 JUMPI PUSH3 0x434 PUSH3 0x101 JUMP JUMPDEST JUMPDEST PUSH3 0x443 DUP13 DUP3 DUP14 ADD PUSH3 0x2E0 JUMP JUMPDEST SWAP3 POP POP PUSH2 0x100 DUP11 ADD MLOAD PUSH8 0xFFFFFFFFFFFFFFFF DUP2 GT ISZERO PUSH3 0x468 JUMPI PUSH3 0x467 PUSH3 0x101 JUMP JUMPDEST JUMPDEST PUSH3 0x476 DUP13 DUP3 DUP14 ADD PUSH3 0x2E0 JUMP JUMPDEST SWAP2 POP POP SWAP3 SWAP6 SWAP9 POP SWAP3 SWAP6 SWAP9 POP SWAP3 SWAP6 SWAP9 JUMP JUMPDEST PUSH0 DUP2 MLOAD SWAP1 POP SWAP2 SWAP1 POP JUMP JUMPDEST PUSH32 0x4E487B7100000000000000000000000000000000000000000000000000000000 PUSH0 MSTORE PUSH1 0x22 PUSH1 0x4 MSTORE PUSH1 0x24 PUSH0 REVERT JUMPDEST PUSH0 PUSH1 0x2 DUP3 DIV SWAP1 POP PUSH1 0x1 DUP3 AND DUP1 PUSH3 0x4D5 JUMPI PUSH1 0x7F DUP3 AND SWAP2 POP JUMPDEST PUSH1 0x20 DUP3 LT DUP2 SUB PUSH3 0x4EB JUMPI PUSH3 0x4EA PUSH3 0x490 JUMP JUMPDEST JUMPDEST POP SWAP2 SWAP1 POP JUMP JUMPDEST PUSH0 DUP2 SWAP1 POP DUP2 PUSH0 MSTORE PUSH1 0x20 PUSH0 KECCAK256 SWAP1 POP SWAP2 SWAP1 POP JUMP JUMPDEST PUSH0 PUSH1 0x20 PUSH1 0x1F DUP4 ADD DIV SWAP1 POP SWAP2 SWAP1 POP JUMP JUMPDEST PUSH0 DUP3 DUP3 SHL SWAP1 POP SWAP3 SWAP2 POP POP JUMP JUMPDEST PUSH0 PUSH1 0x8 DUP4 MUL PUSH3 0x54F PUSH32 0xFFFFFFFFFFFFFFFFFFFFFFFFFFFFFFFFFFFFFFFFFFFFFFFFFFFFFFFFFFFFFFFF DUP3 PUSH3 0x512 JUMP JUMPDEST PUSH3 0x55B DUP7 DUP4 PUSH3 0x512 JUMP JUMPDEST SWAP6 POP DUP1 NOT DUP5 AND SWAP4 POP DUP1 DUP7 AND DUP5 OR SWAP3 POP POP POP SWAP4 SWAP3 POP POP POP JUMP JUMPDEST PUSH0 DUP2 SWAP1 POP SWAP2 SWAP1 POP JUMP JUMPDEST PUSH0 PUSH3 0x59C PUSH3 0x596 PUSH3 0x590 DUP5 PUSH3 0x105 JUMP JUMPDEST PUSH3 0x573 JUMP JUMPDEST PUSH3 0x105 JUMP JUMPDEST SWAP1 POP SWAP2 SWAP1 POP JUMP JUMPDEST PUSH0 DUP2 SWAP1 POP SWAP2 SWAP1 POP JUMP JUMPDEST PUSH3 0x5B7 DUP4 PUSH3 0x57C JUMP JUMPDEST PUSH3 0x5CF PUSH3 0x5C6 DUP3 PUSH3 0x5A3 JUMP JUMPDEST DUP5 DUP5 SLOAD PUSH3 0x51E JUMP JUMPDEST DUP3 SSTORE POP POP POP POP JUMP JUMPDEST PUSH0 SWAP1 JUMP JUMPDEST PUSH3 0x5E5 PUSH3 0x5D7 JUMP JUMPDEST PUSH3 0x5F2 DUP2 DUP5 DUP5 PUSH3 0x5AC JUMP JUMPDEST POP POP POP JUMP JUMPDEST JUMPDEST DUP2 DUP2 LT ISZERO PUSH3 0x619 JUMPI PUSH3 0x60D PUSH0 DUP3 PUSH3 0x5DB JUMP JUMPDEST PUSH1 0x1 DUP2 ADD SWAP1 POP PUSH3 0x5F8 JUMP JUMPDEST POP POP JUMP JUMPDEST PUSH1 0x1F DUP3 GT ISZERO PUSH3 0x668 JUMPI PUSH3 0x632 DUP2 PUSH3 0x4F1 JUMP JUMPDEST PUSH3 0x63D DUP5 PUSH3 0x503 JUMP JUMPDEST DUP2 ADD PUSH1 0x20 DUP6 LT ISZERO PUSH3 0x64D JUMPI DUP2 SWAP1 POP JUMPDEST PUSH3 0x665 PUSH3 0x65C DUP6 PUSH3 0x503 JUMP JUMPDEST DUP4 ADD DUP3 PUSH3 0x5F7 JUMP JUMPDEST POP POP JUMPDEST POP POP POP JUMP JUMPDEST PUSH0 DUP3 DUP3 SHR SWAP1 POP SWAP3 SWAP2 POP POP JUMP JUMPDEST PUSH0 PUSH3 0x68A PUSH0 NOT DUP5 PUSH1 0x8 MUL PUSH3 0x66D JUMP JUMPDEST NOT DUP1 DUP4 AND SWAP2 POP POP SWAP3 SWAP2 POP POP JUMP JUMPDEST PUSH0 PUSH3 0x6A4 DUP4 DUP4 PUSH3 0x679 JUMP JUMPDEST SWAP2 POP DUP3 PUSH1 0x2 MUL DUP3 OR SWAP1 POP SWAP3 SWAP2 POP POP JUMP JUMPDEST PUSH3 0x6BF DUP3 PUSH3 0x486 JUMP JUMPDEST PUSH8 0xFFFFFFFFFFFFFFFF DUP2 GT ISZERO PUSH3 0x6DB JUMPI PUSH3 0x6DA PUSH3 0x1B6 JUMP JUMPDEST JUMPDEST PUSH3 0x6E7 DUP3 SLOAD PUSH3 0x4BD JUMP JUMPDEST PUSH3 0x6F4 DUP3 DUP3 DUP6 PUSH3 0x61D JUMP JUMPDEST PUSH0 PUSH1 0x20 SWAP1 POP PUSH1 0x1F DUP4 GT PUSH1 0x1 DUP2 EQ PUSH3 0x72A JUMPI PUSH0 DUP5 ISZERO PUSH3 0x715 JUMPI DUP3 DUP8 ADD MLOAD SWAP1 POP JUMPDEST PUSH3 0x721 DUP6 DUP3 PUSH3 0x697 JUMP JUMPDEST DUP7 SSTORE POP PUSH3 0x790 JUMP JUMPDEST PUSH1 0x1F NOT DUP5 AND PUSH3 0x73A DUP7 PUSH3 0x4F1 JUMP JUMPDEST PUSH0 JUMPDEST DUP3 DUP2 LT ISZERO PUSH3 0x763 JUMPI DUP5 DUP10 ADD MLOAD DUP3 SSTORE PUSH1 0x1 DUP3 ADD SWAP2 POP PUSH1 0x20 DUP6 ADD SWAP5 POP PUSH1 0x20 DUP2 ADD SWAP1 POP PUSH3 0x73C JUMP JUMPDEST DUP7 DUP4 LT ISZERO PUSH3 0x783 JUMPI DUP5 DUP10 ADD MLOAD PUSH3 0x77F PUSH1 0x1F DUP10 AND DUP3 PUSH3 0x679 JUMP JUMPDEST DUP4 SSTORE POP JUMPDEST PUSH1 0x1 PUSH1 0x2 DUP9 MUL ADD DUP9 SSTORE POP POP POP JUMPDEST POP POP POP POP POP POP JUMP JUMPDEST PUSH2 0x1B37 DUP1 PUSH3 0x7A6 PUSH0 CODECOPY PUSH0 RETURN INVALID PUSH1 0x80 PUSH1 0x40 MSTORE PUSH1 0x4 CALLDATASIZE LT PUSH2 0x11E JUMPI PUSH0 CALLDATALOAD PUSH1 0xE0 SHR DUP1 PUSH4 0x835A6172 GT PUSH2 0x9F JUMPI DUP1 PUSH4 0xC40BEC2B GT PUSH2 0x63 JUMPI DUP1 PUSH4 0xC40BEC2B EQ PUSH2 0x3C7 JUMPI DUP1 PUSH4 0xD7BB99BA EQ PUSH2 0x3F1 JUMPI DUP1 PUSH4 0xD7D1BBDB EQ PUSH2 0x3FB JUMPI DUP1 PUSH4 0xEF068A7F EQ PUSH2 0x423 JUMPI DUP1 PUSH4 0xF2621741 EQ PUSH2 0x44D JUMPI PUSH2 0x11E JUMP JUMPDEST DUP1 PUSH4 0x835A6172 EQ PUSH2 0x2F7 JUMPI DUP1 PUSH4 0x8A9CFD55 EQ PUSH2 0x321 JUMPI DUP1 PUSH4 0x937E09B1 EQ PUSH2 0x349 JUMPI DUP1 PUSH4 0x9632E720 EQ PUSH2 0x373 JUMPI DUP1 PUSH4 0xAD1D1C15 EQ PUSH2 0x39D JUMPI PUSH2 0x11E JUMP JUMPDEST DUP1 PUSH4 0x481C6A75 GT PUSH2 0xE6 JUMPI DUP1 PUSH4 0x481C6A75 EQ PUSH2 0x20F JUMPI DUP1 PUSH4 0x6779D145 EQ PUSH2 0x239 JUMPI DUP1 PUSH4 0x7E509220 EQ PUSH2 0x263 JUMPI DUP1 PUSH4 0x81D12C58 EQ PUSH2 0x28D JUMPI DUP1 PUSH4 0x82FDE093 EQ PUSH2 0x2CD JUMPI PUSH2 0x11E JUMP JUMPDEST DUP1 PUSH4 0x3441006 EQ PUSH2 0x122 JUMPI DUP1 PUSH4 0x4192ED5 EQ PUSH2 0x14A JUMPI DUP1 PUSH4 0xA144391 EQ PUSH2 0x174 JUMPI DUP1 PUSH4 0x3410452A EQ PUSH2 0x1B0 JUMPI DUP1 PUSH4 0x4051DDAC EQ PUSH2 0x1DA JUMPI JUMPDEST PUSH0 DUP1 REVERT JUMPDEST CALLVALUE DUP1 ISZERO PUSH2 0x12D JUMPI PUSH0 DUP1 REVERT JUMPDEST POP PUSH2 0x148 PUSH1 0x4 DUP1 CALLDATASIZE SUB DUP2 ADD SWAP1 PUSH2 0x143 SWAP2 SWAP1 PUSH2 0x115C JUMP JUMPDEST PUSH2 0x477 JUMP JUMPDEST STOP JUMPDEST CALLVALUE DUP1 ISZERO PUSH2 0x155 JUMPI PUSH0 DUP1 REVERT JUMPDEST POP PUSH2 0x15E PUSH2 0x5B5 JUMP JUMPDEST PUSH1 0x40 MLOAD PUSH2 0x16B SWAP2 SWAP1 PUSH2 0x1211 JUMP JUMPDEST PUSH1 0x40 MLOAD DUP1 SWAP2 SUB SWAP1 RETURN JUMPDEST CALLVALUE DUP1 ISZERO PUSH2 0x17F JUMPI PUSH0 DUP1 REVERT JUMPDEST POP PUSH2 0x19A PUSH1 0x4 DUP1 CALLDATASIZE SUB DUP2 ADD SWAP1 PUSH2 0x195 SWAP2 SWAP1 PUSH2 0x128B JUMP JUMPDEST PUSH2 0x641 JUMP JUMPDEST PUSH1 0x40 MLOAD PUSH2 0x1A7 SWAP2 SWAP1 PUSH2 0x12D0 JUMP JUMPDEST PUSH1 0x40 MLOAD DUP1 SWAP2 SUB SWAP1 RETURN JUMPDEST CALLVALUE DUP1 ISZERO PUSH2 0x1BB JUMPI PUSH0 DUP1 REVERT JUMPDEST POP PUSH2 0x1C4 PUSH2 0x65E JUMP JUMPDEST PUSH1 0x40 MLOAD PUSH2 0x1D1 SWAP2 SWAP1 PUSH2 0x12F8 JUMP JUMPDEST PUSH1 0x40 MLOAD DUP1 SWAP2 SUB SWAP1 RETURN JUMPDEST CALLVALUE DUP1 ISZERO PUSH2 0x1E5 JUMPI PUSH0 DUP1 REVERT JUMPDEST POP PUSH2 0x1EE PUSH2 0x669 JUMP JUMPDEST PUSH1 0x40 MLOAD PUSH2 0x206 SWAP13 SWAP12 SWAP11 SWAP10 SWAP9 SWAP8 SWAP7 SWAP6 SWAP5 SWAP4 SWAP3 SWAP2 SWAP1 PUSH2 0x1320 JUMP JUMPDEST PUSH1 0x40 MLOAD DUP1 SWAP2 SUB SWAP1 RETURN JUMPDEST CALLVALUE DUP1 ISZERO PUSH2 0x21A JUMPI PUSH0 DUP1 REVERT JUMPDEST POP PUSH2 0x223 PUSH2 0x98E JUMP JUMPDEST PUSH1 0x40 MLOAD PUSH2 0x230 SWAP2 SWAP1 PUSH2 0x13FB JUMP JUMPDEST PUSH1 0x40 MLOAD DUP1 SWAP2 SUB SWAP1 RETURN JUMPDEST CALLVALUE DUP1 ISZERO PUSH2 0x244 JUMPI PUSH0 DUP1 REVERT JUMPDEST POP PUSH2 0x24D PUSH2 0x9B3 JUMP JUMPDEST PUSH1 0x40 MLOAD PUSH2 0x25A SWAP2 SWAP1 PUSH2 0x12F8 JUMP JUMPDEST PUSH1 0x40 MLOAD DUP1 SWAP2 SUB SWAP1 RETURN JUMPDEST CALLVALUE DUP1 ISZERO PUSH2 0x26E JUMPI PUSH0 DUP1 REVERT JUMPDEST POP PUSH2 0x277 PUSH2 0x9B9 JUMP JUMPDEST PUSH1 0x40 MLOAD PUSH2 0x284 SWAP2 SWAP1 PUSH2 0x1211 JUMP JUMPDEST PUSH1 0x40 MLOAD DUP1 SWAP2 SUB SWAP1 RETURN JUMPDEST CALLVALUE DUP1 ISZERO PUSH2 0x298 JUMPI PUSH0 DUP1 REVERT JUMPDEST POP PUSH2 0x2B3 PUSH1 0x4 DUP1 CALLDATASIZE SUB DUP2 ADD SWAP1 PUSH2 0x2AE SWAP2 SWAP1 PUSH2 0x115C JUMP JUMPDEST PUSH2 0xA45 JUMP JUMPDEST PUSH1 0x40 MLOAD PUSH2 0x2C4 SWAP6 SWAP5 SWAP4 SWAP3 SWAP2 SWAP1 PUSH2 0x1414 JUMP JUMPDEST PUSH1 0x40 MLOAD DUP1 SWAP2 SUB SWAP1 RETURN JUMPDEST CALLVALUE DUP1 ISZERO PUSH2 0x2D8 JUMPI PUSH0 DUP1 REVERT JUMPDEST POP PUSH2 0x2E1 PUSH2 0xB37 JUMP JUMPDEST PUSH1 0x40 MLOAD PUSH2 0x2EE SWAP2 SWAP1 PUSH2 0x12F8 JUMP JUMPDEST PUSH1 0x40 MLOAD DUP1 SWAP2 SUB SWAP1 RETURN JUMPDEST CALLVALUE DUP1 ISZERO PUSH2 0x302 JUMPI PUSH0 DUP1 REVERT JUMPDEST POP PUSH2 0x30B PUSH2 0xB3D JUMP JUMPDEST PUSH1 0x40 MLOAD PUSH2 0x318 SWAP2 SWAP1 PUSH2 0x1211 JUMP JUMPDEST PUSH1 0x40 MLOAD DUP1 SWAP2 SUB SWAP1 RETURN JUMPDEST CALLVALUE DUP1 ISZERO PUSH2 0x32C JUMPI PUSH0 DUP1 REVERT JUMPDEST POP PUSH2 0x347 PUSH1 0x4 DUP1 CALLDATASIZE SUB DUP2 ADD SWAP1 PUSH2 0x342 SWAP2 SWAP1 PUSH2 0x1598 JUMP JUMPDEST PUSH2 0xBC9 JUMP JUMPDEST STOP JUMPDEST CALLVALUE DUP1 ISZERO PUSH2 0x354 JUMPI PUSH0 DUP1 REVERT JUMPDEST POP PUSH2 0x35D PUSH2 0xCC8 JUMP JUMPDEST PUSH1 0x40 MLOAD PUSH2 0x36A SWAP2 SWAP1 PUSH2 0x12F8 JUMP JUMPDEST PUSH1 0x40 MLOAD DUP1 SWAP2 SUB SWAP1 RETURN JUMPDEST CALLVALUE DUP1 ISZERO PUSH2 0x37E JUMPI PUSH0 DUP1 REVERT JUMPDEST POP PUSH2 0x387 PUSH2 0xCCE JUMP JUMPDEST PUSH1 0x40 MLOAD PUSH2 0x394 SWAP2 SWAP1 PUSH2 0x12F8 JUMP JUMPDEST PUSH1 0x40 MLOAD DUP1 SWAP2 SUB SWAP1 RETURN JUMPDEST CALLVALUE DUP1 ISZERO PUSH2 0x3A8 JUMPI PUSH0 DUP1 REVERT JUMPDEST POP PUSH2 0x3B1 PUSH2 0xCD4 JUMP JUMPDEST PUSH1 0x40 MLOAD PUSH2 0x3BE SWAP2 SWAP1 PUSH2 0x1211 JUMP JUMPDEST PUSH1 0x40 MLOAD DUP1 SWAP2 SUB SWAP1 RETURN JUMPDEST CALLVALUE DUP1 ISZERO PUSH2 0x3D2 JUMPI PUSH0 DUP1 REVERT JUMPDEST POP PUSH2 0x3DB PUSH2 0xD60 JUMP JUMPDEST PUSH1 0x40 MLOAD PUSH2 0x3E8 SWAP2 SWAP1 PUSH2 0x1211 JUMP JUMPDEST PUSH1 0x40 MLOAD DUP1 SWAP2 SUB SWAP1 RETURN JUMPDEST PUSH2 0x3F9 PUSH2 0xDEC JUMP JUMPDEST STOP JUMPDEST CALLVALUE DUP1 ISZERO PUSH2 0x406 JUMPI PUSH0 DUP1 REVERT JUMPDEST POP PUSH2 0x421 PUSH1 0x4 DUP1 CALLDATASIZE SUB DUP2 ADD SWAP1 PUSH2 0x41C SWAP2 SWAP1 PUSH2 0x115C JUMP JUMPDEST PUSH2 0xF59 JUMP JUMPDEST STOP JUMPDEST CALLVALUE DUP1 ISZERO PUSH2 0x42E JUMPI PUSH0 DUP1 REVERT JUMPDEST POP PUSH2 0x437 PUSH2 0x1096 JUMP JUMPDEST PUSH1 0x40 MLOAD PUSH2 0x444 SWAP2 SWAP1 PUSH2 0x12F8 JUMP JUMPDEST PUSH1 0x40 MLOAD DUP1 SWAP2 SUB SWAP1 RETURN JUMPDEST CALLVALUE DUP1 ISZERO PUSH2 0x458 JUMPI PUSH0 DUP1 REVERT JUMPDEST POP PUSH2 0x461 PUSH2 0x109C JUMP JUMPDEST PUSH1 0x40 MLOAD PUSH2 0x46E SWAP2 SWAP1 PUSH2 0x12F8 JUMP JUMPDEST PUSH1 0x40 MLOAD DUP1 SWAP2 SUB SWAP1 RETURN JUMPDEST PUSH1 0x1 PUSH0 SWAP1 SLOAD SWAP1 PUSH2 0x100 EXP SWAP1 DIV PUSH20 0xFFFFFFFFFFFFFFFFFFFFFFFFFFFFFFFFFFFFFFFF AND PUSH20 0xFFFFFFFFFFFFFFFFFFFFFFFFFFFFFFFFFFFFFFFF AND CALLER PUSH20 0xFFFFFFFFFFFFFFFFFFFFFFFFFFFFFFFFFFFFFFFF AND EQ PUSH2 0x4CF JUMPI PUSH0 DUP1 REVERT JUMPDEST PUSH0 DUP1 DUP3 DUP2 SLOAD DUP2 LT PUSH2 0x4E3 JUMPI PUSH2 0x4E2 PUSH2 0x1604 JUMP JUMPDEST JUMPDEST SWAP1 PUSH0 MSTORE PUSH1 0x20 PUSH0 KECCAK256 SWAP1 PUSH1 0x5 MUL ADD SWAP1 POP PUSH1 0x2 PUSH1 0x4 SLOAD PUSH2 0x500 SWAP2 SWAP1 PUSH2 0x168B JUMP JUMPDEST DUP2 PUSH1 0x3 ADD SLOAD GT PUSH2 0x50E JUMPI PUSH0 DUP1 REVERT JUMPDEST DUP1 PUSH1 0x2 ADD PUSH1 0x14 SWAP1 SLOAD SWAP1 PUSH2 0x100 EXP SWAP1 DIV PUSH1 0xFF AND ISZERO PUSH2 0x529 JUMPI PUSH0 DUP1 REVERT JUMPDEST DUP1 PUSH1 0x2 ADD PUSH0 SWAP1 SLOAD SWAP1 PUSH2 0x100 EXP SWAP1 DIV PUSH20 0xFFFFFFFFFFFFFFFFFFFFFFFFFFFFFFFFFFFFFFFF AND PUSH20 0xFFFFFFFFFFFFFFFFFFFFFFFFFFFFFFFFFFFFFFFF AND PUSH2 0x8FC DUP3 PUSH1 0x1 ADD SLOAD SWAP1 DUP2 ISZERO MUL SWAP1 PUSH1 0x40 MLOAD PUSH0 PUSH1 0x40 MLOAD DUP1 DUP4 SUB DUP2 DUP6 DUP9 DUP9 CALL SWAP4 POP POP POP POP ISZERO DUP1 ISZERO PUSH2 0x593 JUMPI RETURNDATASIZE PUSH0 DUP1 RETURNDATACOPY RETURNDATASIZE PUSH0 REVERT JUMPDEST POP PUSH1 0x1 DUP2 PUSH1 0x2 ADD PUSH1 0x14 PUSH2 0x100 EXP DUP2 SLOAD DUP2 PUSH1 0xFF MUL NOT AND SWAP1 DUP4 ISZERO ISZERO MUL OR SWAP1 SSTORE POP POP POP JUMP JUMPDEST PUSH1 0x6 DUP1 SLOAD PUSH2 0x5C2 SWAP1 PUSH2 0x16E8 JUMP JUMPDEST DUP1 PUSH1 0x1F ADD PUSH1 0x20 DUP1 SWAP2 DIV MUL PUSH1 0x20 ADD PUSH1 0x40 MLOAD SWAP1 DUP2 ADD PUSH1 0x40 MSTORE DUP1 SWAP3 SWAP2 SWAP1 DUP2 DUP2 MSTORE PUSH1 0x20 ADD DUP3 DUP1 SLOAD PUSH2 0x5EE SWAP1 PUSH2 0x16E8 JUMP JUMPDEST DUP1 ISZERO PUSH2 0x639 JUMPI DUP1 PUSH1 0x1F LT PUSH2 0x610 JUMPI PUSH2 0x100 DUP1 DUP4 SLOAD DIV MUL DUP4 MSTORE SWAP2 PUSH1 0x20 ADD SWAP2 PUSH2 0x639 JUMP JUMPDEST DUP3 ADD SWAP2 SWAP1 PUSH0 MSTORE PUSH1 0x20 PUSH0 KECCAK256 SWAP1 JUMPDEST DUP2 SLOAD DUP2 MSTORE SWAP1 PUSH1 0x1 ADD SWAP1 PUSH1 0x20 ADD DUP1 DUP4 GT PUSH2 0x61C JUMPI DUP3 SWAP1 SUB PUSH1 0x1F AND DUP3 ADD SWAP2 JUMPDEST POP POP POP POP POP DUP2 JUMP JUMPDEST PUSH1 0x3 PUSH1 0x20 MSTORE DUP1 PUSH0 MSTORE PUSH1 0x40 PUSH0 KECCAK256 PUSH0 SWAP2 POP SLOAD SWAP1 PUSH2 0x100 EXP SWAP1 DIV PUSH1 0xFF AND DUP2 JUMP JUMPDEST PUSH0 DUP1 DUP1 SLOAD SWAP1 POP SWAP1 POP SWAP1 JUMP JUMPDEST PUSH0 DUP1 PUSH0 DUP1 PUSH0 PUSH1 0x60 DUP1 PUSH1 0x60 PUSH0 DUP1 PUSH1 0x60 DUP1 PUSH1 0x2 SLOAD SELFBALANCE PUSH0 DUP1 SLOAD SWAP1 POP PUSH1 0x4 SLOAD PUSH1 0x1 PUSH0 SWAP1 SLOAD SWAP1 PUSH2 0x100 EXP SWAP1 DIV PUSH20 0xFFFFFFFFFFFFFFFFFFFFFFFFFFFFFFFFFFFFFFFF AND PUSH1 0x5 PUSH1 0x6 PUSH1 0x7 PUSH1 0x8 SLOAD PUSH1 0x9 SLOAD PUSH1 0xA PUSH1 0xC DUP7 DUP1 SLOAD PUSH2 0x6C2 SWAP1 PUSH2 0x16E8 JUMP JUMPDEST DUP1 PUSH1 0x1F ADD PUSH1 0x20 DUP1 SWAP2 DIV MUL PUSH1 0x20 ADD PUSH1 0x40 MLOAD SWAP1 DUP2 ADD PUSH1 0x40 MSTORE DUP1 SWAP3 SWAP2 SWAP1 DUP2 DUP2 MSTORE PUSH1 0x20 ADD DUP3 DUP1 SLOAD PUSH2 0x6EE SWAP1 PUSH2 0x16E8 JUMP JUMPDEST DUP1 ISZERO PUSH2 0x739 JUMPI DUP1 PUSH1 0x1F LT PUSH2 0x710 JUMPI PUSH2 0x100 DUP1 DUP4 SLOAD DIV MUL DUP4 MSTORE SWAP2 PUSH1 0x20 ADD SWAP2 PUSH2 0x739 JUMP JUMPDEST DUP3 ADD SWAP2 SWAP1 PUSH0 MSTORE PUSH1 0x20 PUSH0 KECCAK256 SWAP1 JUMPDEST DUP2 SLOAD DUP2 MSTORE SWAP1 PUSH1 0x1 ADD SWAP1 PUSH1 0x20 ADD DUP1 DUP4 GT PUSH2 0x71C JUMPI DUP3 SWAP1 SUB PUSH1 0x1F AND DUP3 ADD SWAP2 JUMPDEST POP POP POP POP POP SWAP7 POP DUP6 DUP1 SLOAD PUSH2 0x74C SWAP1 PUSH2 0x16E8 JUMP JUMPDEST DUP1 PUSH1 0x1F ADD PUSH1 0x20 DUP1 SWAP2 DIV MUL PUSH1 0x20 ADD PUSH1 0x40 MLOAD SWAP1 DUP2 ADD PUSH1 0x40 MSTORE DUP1 SWAP3 SWAP2 SWAP1 DUP2 DUP2 MSTORE PUSH1 0x20 ADD DUP3 DUP1 SLOAD PUSH2 0x778 SWAP1 PUSH2 0x16E8 JUMP JUMPDEST DUP1 ISZERO PUSH2 0x7C3 JUMPI DUP1 PUSH1 0x1F LT PUSH2 0x79A JUMPI PUSH2 0x100 DUP1 DUP4 SLOAD DIV MUL DUP4 MSTORE SWAP2 PUSH1 0x20 ADD SWAP2 PUSH2 0x7C3 JUMP JUMPDEST DUP3 ADD SWAP2 SWAP1 PUSH0 MSTORE PUSH1 0x20 PUSH0 KECCAK256 SWAP1 JUMPDEST DUP2 SLOAD DUP2 MSTORE SWAP1 PUSH1 0x1 ADD SWAP1 PUSH1 0x20 ADD DUP1 DUP4 GT PUSH2 0x7A6 JUMPI DUP3 SWAP1 SUB PUSH1 0x1F AND DUP3 ADD SWAP2 JUMPDEST POP POP POP POP POP SWAP6 POP DUP5 DUP1 SLOAD PUSH2 0x7D6 SWAP1 PUSH2 0x16E8 JUMP JUMPDEST DUP1 PUSH1 0x1F ADD PUSH1 0x20 DUP1 SWAP2 DIV MUL PUSH1 0x20 ADD PUSH1 0x40 MLOAD SWAP1 DUP2 ADD PUSH1 0x40 MSTORE DUP1 SWAP3 SWAP2 SWAP1 DUP2 DUP2 MSTORE PUSH1 0x20 ADD DUP3 DUP1 SLOAD PUSH2 0x802 SWAP1 PUSH2 0x16E8 JUMP JUMPDEST DUP1 ISZERO PUSH2 0x84D JUMPI DUP1 PUSH1 0x1F LT PUSH2 0x824 JUMPI PUSH2 0x100 DUP1 DUP4 SLOAD DIV MUL DUP4 MSTORE SWAP2 PUSH1 0x20 ADD SWAP2 PUSH2 0x84D JUMP JUMPDEST DUP3 ADD SWAP2 SWAP1 PUSH0 MSTORE PUSH1 0x20 PUSH0 KECCAK256 SWAP1 JUMPDEST DUP2 SLOAD DUP2 MSTORE SWAP1 PUSH1 0x1 ADD SWAP1 PUSH1 0x20 ADD DUP1 DUP4 GT PUSH2 0x830 JUMPI DUP3 SWAP1 SUB PUSH1 0x1F AND DUP3 ADD SWAP2 JUMPDEST POP POP POP POP POP SWAP5 POP DUP2 DUP1 SLOAD PUSH2 0x860 SWAP1 PUSH2 0x16E8 JUMP JUMPDEST DUP1 PUSH1 0x1F ADD PUSH1 0x20 DUP1 SWAP2 DIV MUL PUSH1 0x20 ADD PUSH1 0x40 MLOAD SWAP1 DUP2 ADD PUSH1 0x40 MSTORE DUP1 SWAP3 SWAP2 SWAP1 DUP2 DUP2 MSTORE PUSH1 0x20 ADD DUP3 DUP1 SLOAD PUSH2 0x88C SWAP1 PUSH2 0x16E8 JUMP JUMPDEST DUP1 ISZERO PUSH2 0x8D7 JUMPI DUP1 PUSH1 0x1F LT PUSH2 0x8AE JUMPI PUSH2 0x100 DUP1 DUP4 SLOAD DIV MUL DUP4 MSTORE SWAP2 PUSH1 0x20 ADD SWAP2 PUSH2 0x8D7 JUMP JUMPDEST DUP3 ADD SWAP2 SWAP1 PUSH0 MSTORE PUSH1 0x20 PUSH0 KECCAK256 SWAP1 JUMPDEST DUP2 SLOAD DUP2 MSTORE SWAP1 PUSH1 0x1 ADD SWAP1 PUSH1 0x20 ADD DUP1 DUP4 GT PUSH2 0x8BA JUMPI DUP3 SWAP1 SUB PUSH1 0x1F AND DUP3 ADD SWAP2 JUMPDEST POP POP POP POP POP SWAP2 POP DUP1 DUP1 SLOAD PUSH2 0x8EA SWAP1 PUSH2 0x16E8 JUMP JUMPDEST DUP1 PUSH1 0x1F ADD PUSH1 0x20 DUP1 SWAP2 DIV MUL PUSH1 0x20 ADD PUSH1 0x40 MLOAD SWAP1 DUP2 ADD PUSH1 0x40 MSTORE DUP1 SWAP3 SWAP2 SWAP1 DUP2 DUP2 MSTORE PUSH1 0x20 ADD DUP3 DUP1 SLOAD PUSH2 0x916 SWAP1 PUSH2 0x16E8 JUMP JUMPDEST DUP1 ISZERO PUSH2 0x961 JUMPI DUP1 PUSH1 0x1F LT PUSH2 0x938 JUMPI PUSH2 0x100 DUP1 DUP4 SLOAD DIV MUL DUP4 MSTORE SWAP2 PUSH1 0x20 ADD SWAP2 PUSH2 0x961 JUMP JUMPDEST DUP3 ADD SWAP2 SWAP1 PUSH0 MSTORE PUSH1 0x20 PUSH0 KECCAK256 SWAP1 JUMPDEST DUP2 SLOAD DUP2 MSTORE SWAP1 PUSH1 0x1 ADD SWAP1 PUSH1 0x20 ADD DUP1 DUP4 GT PUSH2 0x944 JUMPI DUP3 SWAP1 SUB PUSH1 0x1F AND DUP3 ADD SWAP2 JUMPDEST POP POP POP POP POP SWAP1 POP SWAP12 POP SWAP12 POP SWAP12 POP SWAP12 POP SWAP12 POP SWAP12 POP SWAP12 POP SWAP12 POP SWAP12 POP SWAP12 POP SWAP12 POP SWAP12 POP SWAP1 SWAP2 SWAP3 SWAP4 SWAP5 SWAP6 SWAP7 SWAP8 SWAP9 SWAP10 SWAP11 SWAP12 JUMP JUMPDEST PUSH1 0x1 PUSH0 SWAP1 SLOAD SWAP1 PUSH2 0x100 EXP SWAP1 DIV PUSH20 0xFFFFFFFFFFFFFFFFFFFFFFFFFFFFFFFFFFFFFFFF AND DUP2 JUMP JUMPDEST PUSH1 0x9 SLOAD DUP2 JUMP JUMPDEST PUSH1 0xA DUP1 SLOAD PUSH2 0x9C6 SWAP1 PUSH2 0x16E8 JUMP JUMPDEST DUP1 PUSH1 0x1F ADD PUSH1 0x20 DUP1 SWAP2 DIV MUL PUSH1 0x20 ADD PUSH1 0x40 MLOAD SWAP1 DUP2 ADD PUSH1 0x40 MSTORE DUP1 SWAP3 SWAP2 SWAP1 DUP2 DUP2 MSTORE PUSH1 0x20 ADD DUP3 DUP1 SLOAD PUSH2 0x9F2 SWAP1 PUSH2 0x16E8 JUMP JUMPDEST DUP1 ISZERO PUSH2 0xA3D JUMPI DUP1 PUSH1 0x1F LT PUSH2 0xA14 JUMPI PUSH2 0x100 DUP1 DUP4 SLOAD DIV MUL DUP4 MSTORE SWAP2 PUSH1 0x20 ADD SWAP2 PUSH2 0xA3D JUMP JUMPDEST DUP3 ADD SWAP2 SWAP1 PUSH0 MSTORE PUSH1 0x20 PUSH0 KECCAK256 SWAP1 JUMPDEST DUP2 SLOAD DUP2 MSTORE SWAP1 PUSH1 0x1 ADD SWAP1 PUSH1 0x20 ADD DUP1 DUP4 GT PUSH2 0xA20 JUMPI DUP3 SWAP1 SUB PUSH1 0x1F AND DUP3 ADD SWAP2 JUMPDEST POP POP POP POP POP DUP2 JUMP JUMPDEST PUSH0 DUP2 DUP2 SLOAD DUP2 LT PUSH2 0xA53 JUMPI PUSH0 DUP1 REVERT JUMPDEST SWAP1 PUSH0 MSTORE PUSH1 0x20 PUSH0 KECCAK256 SWAP1 PUSH1 0x5 MUL ADD PUSH0 SWAP2 POP SWAP1 POP DUP1 PUSH0 ADD DUP1 SLOAD PUSH2 0xA72 SWAP1 PUSH2 0x16E8 JUMP JUMPDEST DUP1 PUSH1 0x1F ADD PUSH1 0x20 DUP1 SWAP2 DIV MUL PUSH1 0x20 ADD PUSH1 0x40 MLOAD SWAP1 DUP2 ADD PUSH1 0x40 MSTORE DUP1 SWAP3 SWAP2 SWAP1 DUP2 DUP2 MSTORE PUSH1 0x20 ADD DUP3 DUP1 SLOAD PUSH2 0xA9E SWAP1 PUSH2 0x16E8 JUMP JUMPDEST DUP1 ISZERO PUSH2 0xAE9 JUMPI DUP1 PUSH1 0x1F LT PUSH2 0xAC0 JUMPI PUSH2 0x100 DUP1 DUP4 SLOAD DIV MUL DUP4 MSTORE SWAP2 PUSH1 0x20 ADD SWAP2 PUSH2 0xAE9 JUMP JUMPDEST DUP3 ADD SWAP2 SWAP1 PUSH0 MSTORE PUSH1 0x20 PUSH0 KECCAK256 SWAP1 JUMPDEST DUP2 SLOAD DUP2 MSTORE SWAP1 PUSH1 0x1 ADD SWAP1 PUSH1 0x20 ADD DUP1 DUP4 GT PUSH2 0xACC JUMPI DUP3 SWAP1 SUB PUSH1 0x1F AND DUP3 ADD SWAP2 JUMPDEST POP POP POP POP POP SWAP1 DUP1 PUSH1 0x1 ADD SLOAD SWAP1 DUP1 PUSH1 0x2 ADD PUSH0 SWAP1 SLOAD SWAP1 PUSH2 0x100 EXP SWAP1 DIV PUSH20 0xFFFFFFFFFFFFFFFFFFFFFFFFFFFFFFFFFFFFFFFF AND SWAP1 DUP1 PUSH1 0x2 ADD PUSH1 0x14 SWAP1 SLOAD SWAP1 PUSH2 0x100 EXP SWAP1 DIV PUSH1 0xFF AND SWAP1 DUP1 PUSH1 0x3 ADD SLOAD SWAP1 POP DUP6 JUMP JUMPDEST PUSH1 0x4 SLOAD DUP2 JUMP JUMPDEST PUSH1 0x5 DUP1 SLOAD PUSH2 0xB4A SWAP1 PUSH2 0x16E8 JUMP JUMPDEST DUP1 PUSH1 0x1F ADD PUSH1 0x20 DUP1 SWAP2 DIV MUL PUSH1 0x20 ADD PUSH1 0x40 MLOAD SWAP1 DUP2 ADD PUSH1 0x40 MSTORE DUP1 SWAP3 SWAP2 SWAP1 DUP2 DUP2 MSTORE PUSH1 0x20 ADD DUP3 DUP1 SLOAD PUSH2 0xB76 SWAP1 PUSH2 0x16E8 JUMP JUMPDEST DUP1 ISZERO PUSH2 0xBC1 JUMPI DUP1 PUSH1 0x1F LT PUSH2 0xB98 JUMPI PUSH2 0x100 DUP1 DUP4 SLOAD DIV MUL DUP4 MSTORE SWAP2 PUSH1 0x20 ADD SWAP2 PUSH2 0xBC1 JUMP JUMPDEST DUP3 ADD SWAP2 SWAP1 PUSH0 MSTORE PUSH1 0x20 PUSH0 KECCAK256 SWAP1 JUMPDEST DUP2 SLOAD DUP2 MSTORE SWAP1 PUSH1 0x1 ADD SWAP1 PUSH1 0x20 ADD DUP1 DUP4 GT PUSH2 0xBA4 JUMPI DUP3 SWAP1 SUB PUSH1 0x1F AND DUP3 ADD SWAP2 JUMPDEST POP POP POP POP POP DUP2 JUMP JUMPDEST PUSH1 0x1 PUSH0 SWAP1 SLOAD SWAP1 PUSH2 0x100 EXP SWAP1 DIV PUSH20 0xFFFFFFFFFFFFFFFFFFFFFFFFFFFFFFFFFFFFFFFF AND PUSH20 0xFFFFFFFFFFFFFFFFFFFFFFFFFFFFFFFFFFFFFFFF AND CALLER PUSH20 0xFFFFFFFFFFFFFFFFFFFFFFFFFFFFFFFFFFFFFFFF AND EQ PUSH2 0xC21 JUMPI PUSH0 DUP1 REVERT JUMPDEST PUSH0 DUP1 PUSH1 0x1 DUP2 PUSH1 0x1 DUP2 SLOAD ADD DUP1 DUP3 SSTORE DUP1 SWAP2 POP POP SUB SWAP1 PUSH0 MSTORE PUSH1 0x20 PUSH0 KECCAK256 SWAP1 PUSH1 0x5 MUL ADD SWAP1 POP DUP4 DUP2 PUSH0 ADD SWAP1 DUP2 PUSH2 0xC51 SWAP2 SWAP1 PUSH2 0x18B5 JUMP JUMPDEST POP DUP3 DUP2 PUSH1 0x1 ADD DUP2 SWAP1 SSTORE POP DUP2 DUP2 PUSH1 0x2 ADD PUSH0 PUSH2 0x100 EXP DUP2 SLOAD DUP2 PUSH20 0xFFFFFFFFFFFFFFFFFFFFFFFFFFFFFFFFFFFFFFFF MUL NOT AND SWAP1 DUP4 PUSH20 0xFFFFFFFFFFFFFFFFFFFFFFFFFFFFFFFFFFFFFFFF AND MUL OR SWAP1 SSTORE POP PUSH0 DUP2 PUSH1 0x2 ADD PUSH1 0x14 PUSH2 0x100 EXP DUP2 SLOAD DUP2 PUSH1 0xFF MUL NOT AND SWAP1 DUP4 ISZERO ISZERO MUL OR SWAP1 SSTORE POP PUSH0 DUP2 PUSH1 0x3 ADD DUP2 SWAP1 SSTORE POP POP POP POP POP JUMP JUMPDEST PUSH1 0x2 SLOAD DUP2 JUMP JUMPDEST PUSH1 0xB SLOAD DUP2 JUMP JUMPDEST PUSH1 0x7 DUP1 SLOAD PUSH2 0xCE1 SWAP1 PUSH2 0x16E8 JUMP JUMPDEST DUP1 PUSH1 0x1F ADD PUSH1 0x20 DUP1 SWAP2 DIV MUL PUSH1 0x20 ADD PUSH1 0x40 MLOAD SWAP1 DUP2 ADD PUSH1 0x40 MSTORE DUP1 SWAP3 SWAP2 SWAP1 DUP2 DUP2 MSTORE PUSH1 0x20 ADD DUP3 DUP1 SLOAD PUSH2 0xD0D SWAP1 PUSH2 0x16E8 JUMP JUMPDEST DUP1 ISZERO PUSH2 0xD58 JUMPI DUP1 PUSH1 0x1F LT PUSH2 0xD2F JUMPI PUSH2 0x100 DUP1 DUP4 SLOAD DIV MUL DUP4 MSTORE SWAP2 PUSH1 0x20 ADD SWAP2 PUSH2 0xD58 JUMP JUMPDEST DUP3 ADD SWAP2 SWAP1 PUSH0 MSTORE PUSH1 0x20 PUSH0 KECCAK256 SWAP1 JUMPDEST DUP2 SLOAD DUP2 MSTORE SWAP1 PUSH1 0x1 ADD SWAP1 PUSH1 0x20 ADD DUP1 DUP4 GT PUSH2 0xD3B JUMPI DUP3 SWAP1 SUB PUSH1 0x1F AND DUP3 ADD SWAP2 JUMPDEST POP POP POP POP POP DUP2 JUMP JUMPDEST PUSH1 0xC DUP1 SLOAD PUSH2 0xD6D SWAP1 PUSH2 0x16E8 JUMP JUMPDEST DUP1 PUSH1 0x1F ADD PUSH1 0x20 DUP1 SWAP2 DIV MUL PUSH1 0x20 ADD PUSH1 0x40 MLOAD SWAP1 DUP2 ADD PUSH1 0x40 MSTORE DUP1 SWAP3 SWAP2 SWAP1 DUP2 DUP2 MSTORE PUSH1 0x20 ADD DUP3 DUP1 SLOAD PUSH2 0xD99 SWAP1 PUSH2 0x16E8 JUMP JUMPDEST DUP1 ISZERO PUSH2 0xDE4 JUMPI DUP1 PUSH1 0x1F LT PUSH2 0xDBB JUMPI PUSH2 0x100 DUP1 DUP4 SLOAD DIV MUL DUP4 MSTORE SWAP2 PUSH1 0x20 ADD SWAP2 PUSH2 0xDE4 JUMP JUMPDEST DUP3 ADD SWAP2 SWAP1 PUSH0 MSTORE PUSH1 0x20 PUSH0 KECCAK256 SWAP1 JUMPDEST DUP2 SLOAD DUP2 MSTORE SWAP1 PUSH1 0x1 ADD SWAP1 PUSH1 0x20 ADD DUP1 DUP4 GT PUSH2 0xDC7 JUMPI DUP3 SWAP1 SUB PUSH1 0x1F AND DUP3 ADD SWAP2 JUMPDEST POP POP POP POP POP DUP2 JUMP JUMPDEST PUSH1 0x2 SLOAD CALLVALUE GT PUSH2 0xDF9 JUMPI PUSH0 DUP1 REVERT JUMPDEST PUSH1 0xB SLOAD PUSH1 0x8 SLOAD GT PUSH2 0xE3F JUMPI PUSH1 0x40 MLOAD PUSH32 0x8C379A000000000000000000000000000000000000000000000000000000000 DUP2 MSTORE PUSH1 0x4 ADD PUSH2 0xE36 SWAP1 PUSH2 0x19CE JUMP JUMPDEST PUSH1 0x40 MLOAD DUP1 SWAP2 SUB SWAP1 REVERT JUMPDEST PUSH1 0x3 PUSH0 CALLER PUSH20 0xFFFFFFFFFFFFFFFFFFFFFFFFFFFFFFFFFFFFFFFF AND PUSH20 0xFFFFFFFFFFFFFFFFFFFFFFFFFFFFFFFFFFFFFFFF AND DUP2 MSTORE PUSH1 0x20 ADD SWAP1 DUP2 MSTORE PUSH1 0x20 ADD PUSH0 KECCAK256 PUSH0 SWAP1 SLOAD SWAP1 PUSH2 0x100 EXP SWAP1 DIV PUSH1 0xFF AND PUSH2 0xEFA JUMPI PUSH1 0x1 PUSH1 0x3 PUSH0 CALLER PUSH20 0xFFFFFFFFFFFFFFFFFFFFFFFFFFFFFFFFFFFFFFFF AND PUSH20 0xFFFFFFFFFFFFFFFFFFFFFFFFFFFFFFFFFFFFFFFF AND DUP2 MSTORE PUSH1 0x20 ADD SWAP1 DUP2 MSTORE PUSH1 0x20 ADD PUSH0 KECCAK256 PUSH0 PUSH2 0x100 EXP DUP2 SLOAD DUP2 PUSH1 0xFF MUL NOT AND SWAP1 DUP4 ISZERO ISZERO MUL OR SWAP1 SSTORE POP PUSH1 0x4 PUSH0 DUP2 SLOAD DUP1 SWAP3 SWAP2 SWAP1 PUSH2 0xEF4 SWAP1 PUSH2 0x19EC JUMP JUMPDEST SWAP2 SWAP1 POP SSTORE POP JUMPDEST CALLVALUE PUSH1 0xB PUSH0 DUP3 DUP3 SLOAD PUSH2 0xF0B SWAP2 SWAP1 PUSH2 0x1A33 JUMP JUMPDEST SWAP3 POP POP DUP2 SWAP1 SSTORE POP TIMESTAMP CALLVALUE CALLER PUSH20 0xFFFFFFFFFFFFFFFFFFFFFFFFFFFFFFFFFFFFFFFF AND PUSH32 0x377C50534B14698395ED573FF5B8D4841C6618456737DE44217436ADA6817CC7 PUSH1 0x40 MLOAD PUSH1 0x40 MLOAD DUP1 SWAP2 SUB SWAP1 LOG4 JUMP JUMPDEST PUSH0 DUP1 DUP3 DUP2 SLOAD DUP2 LT PUSH2 0xF6D JUMPI PUSH2 0xF6C PUSH2 0x1604 JUMP JUMPDEST JUMPDEST SWAP1 PUSH0 MSTORE PUSH1 0x20 PUSH0 KECCAK256 SWAP1 PUSH1 0x5 MUL ADD SWAP1 POP PUSH1 0x3 PUSH0 CALLER PUSH20 0xFFFFFFFFFFFFFFFFFFFFFFFFFFFFFFFFFFFFFFFF AND PUSH20 0xFFFFFFFFFFFFFFFFFFFFFFFFFFFFFFFFFFFFFFFF AND DUP2 MSTORE PUSH1 0x20 ADD SWAP1 DUP2 MSTORE PUSH1 0x20 ADD PUSH0 KECCAK256 PUSH0 SWAP1 SLOAD SWAP1 PUSH2 0x100 EXP SWAP1 DIV PUSH1 0xFF AND PUSH2 0xFCD JUMPI PUSH0 DUP1 REVERT JUMPDEST DUP1 PUSH1 0x4 ADD PUSH0 CALLER PUSH20 0xFFFFFFFFFFFFFFFFFFFFFFFFFFFFFFFFFFFFFFFF AND PUSH20 0xFFFFFFFFFFFFFFFFFFFFFFFFFFFFFFFFFFFFFFFF AND DUP2 MSTORE PUSH1 0x20 ADD SWAP1 DUP2 MSTORE PUSH1 0x20 ADD PUSH0 KECCAK256 PUSH0 SWAP1 SLOAD SWAP1 PUSH2 0x100 EXP SWAP1 DIV PUSH1 0xFF AND ISZERO PUSH2 0x1022 JUMPI PUSH0 DUP1 REVERT JUMPDEST PUSH1 0x1 DUP2 PUSH1 0x4 ADD PUSH0 CALLER PUSH20 0xFFFFFFFFFFFFFFFFFFFFFFFFFFFFFFFFFFFFFFFF AND PUSH20 0xFFFFFFFFFFFFFFFFFFFFFFFFFFFFFFFFFFFFFFFF AND DUP2 MSTORE PUSH1 0x20 ADD SWAP1 DUP2 MSTORE PUSH1 0x20 ADD PUSH0 KECCAK256 PUSH0 PUSH2 0x100 EXP DUP2 SLOAD DUP2 PUSH1 0xFF MUL NOT AND SWAP1 DUP4 ISZERO ISZERO MUL OR SWAP1 SSTORE POP DUP1 PUSH1 0x3 ADD PUSH0 DUP2 SLOAD DUP1 SWAP3 SWAP2 SWAP1 PUSH2 0x108D SWAP1 PUSH2 0x19EC JUMP JUMPDEST SWAP2 SWAP1 POP SSTORE POP POP POP JUMP JUMPDEST PUSH1 0x8 SLOAD DUP2 JUMP JUMPDEST PUSH0 DUP1 TIMESTAMP SWAP1 POP DUP1 PUSH1 0x9 SLOAD GT PUSH2 0x10E5 JUMPI PUSH1 0x40 MLOAD PUSH32 0x8C379A000000000000000000000000000000000000000000000000000000000 DUP2 MSTORE PUSH1 0x4 ADD PUSH2 0x10DC SWAP1 PUSH2 0x1AB0 JUMP JUMPDEST PUSH1 0x40 MLOAD DUP1 SWAP2 SUB SWAP1 REVERT JUMPDEST PUSH0 PUSH3 0x15180 DUP3 PUSH1 0x9 SLOAD PUSH2 0x10F8 SWAP2 SWAP1 PUSH2 0x1ACE JUMP JUMPDEST PUSH2 0x1102 SWAP2 SWAP1 PUSH2 0x168B JUMP JUMPDEST SWAP1 POP PUSH1 0x1 DUP2 PUSH2 0x1111 SWAP2 SWAP1 PUSH2 0x1A33 JUMP JUMPDEST SWAP3 POP POP POP SWAP1 JUMP JUMPDEST PUSH0 PUSH1 0x40 MLOAD SWAP1 POP SWAP1 JUMP JUMPDEST PUSH0 DUP1 REVERT JUMPDEST PUSH0 DUP1 REVERT JUMPDEST PUSH0 DUP2 SWAP1 POP SWAP2 SWAP1 POP JUMP JUMPDEST PUSH2 0x113B DUP2 PUSH2 0x1129 JUMP JUMPDEST DUP2 EQ PUSH2 0x1145 JUMPI PUSH0 DUP1 REVERT JUMPDEST POP JUMP JUMPDEST PUSH0 DUP2 CALLDATALOAD SWAP1 POP PUSH2 0x1156 DUP2 PUSH2 0x1132 JUMP JUMPDEST SWAP3 SWAP2 POP POP JUMP JUMPDEST PUSH0 PUSH1 0x20 DUP3 DUP5 SUB SLT ISZERO PUSH2 0x1171 JUMPI PUSH2 0x1170 PUSH2 0x1121 JUMP JUMPDEST JUMPDEST PUSH0 PUSH2 0x117E DUP5 DUP3 DUP6 ADD PUSH2 0x1148 JUMP JUMPDEST SWAP2 POP POP SWAP3 SWAP2 POP POP JUMP JUMPDEST PUSH0 DUP2 MLOAD SWAP1 POP SWAP2 SWAP1 POP JUMP JUMPDEST PUSH0 DUP3 DUP3 MSTORE PUSH1 0x20 DUP3 ADD SWAP1 POP SWAP3 SWAP2 POP POP JUMP JUMPDEST PUSH0 JUMPDEST DUP4 DUP2 LT ISZERO PUSH2 0x11BE JUMPI DUP1 DUP3 ADD MLOAD DUP2 DUP5 ADD MSTORE PUSH1 0x20 DUP2 ADD SWAP1 POP PUSH2 0x11A3 JUMP JUMPDEST PUSH0 DUP5 DUP5 ADD MSTORE POP POP POP POP JUMP JUMPDEST PUSH0 PUSH1 0x1F NOT PUSH1 0x1F DUP4 ADD AND SWAP1 POP SWAP2 SWAP1 POP JUMP JUMPDEST PUSH0 PUSH2 0x11E3 DUP3 PUSH2 0x1187 JUMP JUMPDEST PUSH2 0x11ED DUP2 DUP6 PUSH2 0x1191 JUMP JUMPDEST SWAP4 POP PUSH2 0x11FD DUP2 DUP6 PUSH1 0x20 DUP7 ADD PUSH2 0x11A1 JUMP JUMPDEST PUSH2 0x1206 DUP2 PUSH2 0x11C9 JUMP JUMPDEST DUP5 ADD SWAP2 POP POP SWAP3 SWAP2 POP POP JUMP JUMPDEST PUSH0 PUSH1 0x20 DUP3 ADD SWAP1 POP DUP2 DUP2 SUB PUSH0 DUP4 ADD MSTORE PUSH2 0x1229 DUP2 DUP5 PUSH2 0x11D9 JUMP JUMPDEST SWAP1 POP SWAP3 SWAP2 POP POP JUMP JUMPDEST PUSH0 PUSH20 0xFFFFFFFFFFFFFFFFFFFFFFFFFFFFFFFFFFFFFFFF DUP3 AND SWAP1 POP SWAP2 SWAP1 POP JUMP JUMPDEST PUSH0 PUSH2 0x125A DUP3 PUSH2 0x1231 JUMP JUMPDEST SWAP1 POP SWAP2 SWAP1 POP JUMP JUMPDEST PUSH2 0x126A DUP2 PUSH2 0x1250 JUMP JUMPDEST DUP2 EQ PUSH2 0x1274 JUMPI PUSH0 DUP1 REVERT JUMPDEST POP JUMP JUMPDEST PUSH0 DUP2 CALLDATALOAD SWAP1 POP PUSH2 0x1285 DUP2 PUSH2 0x1261 JUMP JUMPDEST SWAP3 SWAP2 POP POP JUMP JUMPDEST PUSH0 PUSH1 0x20 DUP3 DUP5 SUB SLT ISZERO PUSH2 0x12A0 JUMPI PUSH2 0x129F PUSH2 0x1121 JUMP JUMPDEST JUMPDEST PUSH0 PUSH2 0x12AD DUP5 DUP3 DUP6 ADD PUSH2 0x1277 JUMP JUMPDEST SWAP2 POP POP SWAP3 SWAP2 POP POP JUMP JUMPDEST PUSH0 DUP2 ISZERO ISZERO SWAP1 POP SWAP2 SWAP1 POP JUMP JUMPDEST PUSH2 0x12CA DUP2 PUSH2 0x12B6 JUMP JUMPDEST DUP3 MSTORE POP POP JUMP JUMPDEST PUSH0 PUSH1 0x20 DUP3 ADD SWAP1 POP PUSH2 0x12E3 PUSH0 DUP4 ADD DUP5 PUSH2 0x12C1 JUMP JUMPDEST SWAP3 SWAP2 POP POP JUMP JUMPDEST PUSH2 0x12F2 DUP2 PUSH2 0x1129 JUMP JUMPDEST DUP3 MSTORE POP POP JUMP JUMPDEST PUSH0 PUSH1 0x20 DUP3 ADD SWAP1 POP PUSH2 0x130B PUSH0 DUP4 ADD DUP5 PUSH2 0x12E9 JUMP JUMPDEST SWAP3 SWAP2 POP POP JUMP JUMPDEST PUSH2 0x131A DUP2 PUSH2 0x1250 JUMP JUMPDEST DUP3 MSTORE POP POP JUMP JUMPDEST PUSH0 PUSH2 0x180 DUP3 ADD SWAP1 POP PUSH2 0x1334 PUSH0 DUP4 ADD DUP16 PUSH2 0x12E9 JUMP JUMPDEST PUSH2 0x1341 PUSH1 0x20 DUP4 ADD DUP15 PUSH2 0x12E9 JUMP JUMPDEST PUSH2 0x134E PUSH1 0x40 DUP4 ADD DUP14 PUSH2 0x12E9 JUMP JUMPDEST PUSH2 0x135B PUSH1 0x60 DUP4 ADD DUP13 PUSH2 0x12E9 JUMP JUMPDEST PUSH2 0x1368 PUSH1 0x80 DUP4 ADD DUP12 PUSH2 0x1311 JUMP JUMPDEST DUP2 DUP2 SUB PUSH1 0xA0 DUP4 ADD MSTORE PUSH2 0x137A DUP2 DUP11 PUSH2 0x11D9 JUMP JUMPDEST SWAP1 POP DUP2 DUP2 SUB PUSH1 0xC0 DUP4 ADD MSTORE PUSH2 0x138E DUP2 DUP10 PUSH2 0x11D9 JUMP JUMPDEST SWAP1 POP DUP2 DUP2 SUB PUSH1 0xE0 DUP4 ADD MSTORE PUSH2 0x13A2 DUP2 DUP9 PUSH2 0x11D9 JUMP JUMPDEST SWAP1 POP PUSH2 0x13B2 PUSH2 0x100 DUP4 ADD DUP8 PUSH2 0x12E9 JUMP JUMPDEST PUSH2 0x13C0 PUSH2 0x120 DUP4 ADD DUP7 PUSH2 0x12E9 JUMP JUMPDEST DUP2 DUP2 SUB PUSH2 0x140 DUP4 ADD MSTORE PUSH2 0x13D3 DUP2 DUP6 PUSH2 0x11D9 JUMP JUMPDEST SWAP1 POP DUP2 DUP2 SUB PUSH2 0x160 DUP4 ADD MSTORE PUSH2 0x13E8 DUP2 DUP5 PUSH2 0x11D9 JUMP JUMPDEST SWAP1 POP SWAP14 SWAP13 POP POP POP POP POP POP POP POP POP POP POP POP POP JUMP JUMPDEST PUSH0 PUSH1 0x20 DUP3 ADD SWAP1 POP PUSH2 0x140E PUSH0 DUP4 ADD DUP5 PUSH2 0x1311 JUMP JUMPDEST SWAP3 SWAP2 POP POP JUMP JUMPDEST PUSH0 PUSH1 0xA0 DUP3 ADD SWAP1 POP DUP2 DUP2 SUB PUSH0 DUP4 ADD MSTORE PUSH2 0x142C DUP2 DUP9 PUSH2 0x11D9 JUMP JUMPDEST SWAP1 POP PUSH2 0x143B PUSH1 0x20 DUP4 ADD DUP8 PUSH2 0x12E9 JUMP JUMPDEST PUSH2 0x1448 PUSH1 0x40 DUP4 ADD DUP7 PUSH2 0x1311 JUMP JUMPDEST PUSH2 0x1455 PUSH1 0x60 DUP4 ADD DUP6 PUSH2 0x12C1 JUMP JUMPDEST PUSH2 0x1462 PUSH1 0x80 DUP4 ADD DUP5 PUSH2 0x12E9 JUMP JUMPDEST SWAP7 SWAP6 POP POP POP POP POP POP JUMP JUMPDEST PUSH0 DUP1 REVERT JUMPDEST PUSH0 DUP1 REVERT JUMPDEST PUSH32 0x4E487B7100000000000000000000000000000000000000000000000000000000 PUSH0 MSTORE PUSH1 0x41 PUSH1 0x4 MSTORE PUSH1 0x24 PUSH0 REVERT JUMPDEST PUSH2 0x14AA DUP3 PUSH2 0x11C9 JUMP JUMPDEST DUP2 ADD DUP2 DUP2 LT PUSH8 0xFFFFFFFFFFFFFFFF DUP3 GT OR ISZERO PUSH2 0x14C9 JUMPI PUSH2 0x14C8 PUSH2 0x1474 JUMP JUMPDEST JUMPDEST DUP1 PUSH1 0x40 MSTORE POP POP POP JUMP JUMPDEST PUSH0 PUSH2 0x14DB PUSH2 0x1118 JUMP JUMPDEST SWAP1 POP PUSH2 0x14E7 DUP3 DUP3 PUSH2 0x14A1 JUMP JUMPDEST SWAP2 SWAP1 POP JUMP JUMPDEST PUSH0 PUSH8 0xFFFFFFFFFFFFFFFF DUP3 GT ISZERO PUSH2 0x1506 JUMPI PUSH2 0x1505 PUSH2 0x1474 JUMP JUMPDEST JUMPDEST PUSH2 0x150F DUP3 PUSH2 0x11C9 JUMP JUMPDEST SWAP1 POP PUSH1 0x20 DUP2 ADD SWAP1 POP SWAP2 SWAP1 POP JUMP JUMPDEST DUP3 DUP2 DUP4 CALLDATACOPY PUSH0 DUP4 DUP4 ADD MSTORE POP POP POP JUMP JUMPDEST PUSH0 PUSH2 0x153C PUSH2 0x1537 DUP5 PUSH2 0x14EC JUMP JUMPDEST PUSH2 0x14D2 JUMP JUMPDEST SWAP1 POP DUP3 DUP2 MSTORE PUSH1 0x20 DUP2 ADD DUP5 DUP5 DUP5 ADD GT ISZERO PUSH2 0x1558 JUMPI PUSH2 0x1557 PUSH2 0x1470 JUMP JUMPDEST JUMPDEST PUSH2 0x1563 DUP5 DUP3 DUP6 PUSH2 0x151C JUMP JUMPDEST POP SWAP4 SWAP3 POP POP POP JUMP JUMPDEST PUSH0 DUP3 PUSH1 0x1F DUP4 ADD SLT PUSH2 0x157F JUMPI PUSH2 0x157E PUSH2 0x146C JUMP JUMPDEST JUMPDEST DUP2 CALLDATALOAD PUSH2 0x158F DUP5 DUP3 PUSH1 0x20 DUP7 ADD PUSH2 0x152A JUMP JUMPDEST SWAP2 POP POP SWAP3 SWAP2 POP POP JUMP JUMPDEST PUSH0 DUP1 PUSH0 PUSH1 0x60 DUP5 DUP7 SUB SLT ISZERO PUSH2 0x15AF JUMPI PUSH2 0x15AE PUSH2 0x1121 JUMP JUMPDEST JUMPDEST PUSH0 DUP5 ADD CALLDATALOAD PUSH8 0xFFFFFFFFFFFFFFFF DUP2 GT ISZERO PUSH2 0x15CC JUMPI PUSH2 0x15CB PUSH2 0x1125 JUMP JUMPDEST JUMPDEST PUSH2 0x15D8 DUP7 DUP3 DUP8 ADD PUSH2 0x156B JUMP JUMPDEST SWAP4 POP POP PUSH1 0x20 PUSH2 0x15E9 DUP7 DUP3 DUP8 ADD PUSH2 0x1148 JUMP JUMPDEST SWAP3 POP POP PUSH1 0x40 PUSH2 0x15FA DUP7 DUP3 DUP8 ADD PUSH2 0x1277 JUMP JUMPDEST SWAP2 POP POP SWAP3 POP SWAP3 POP SWAP3 JUMP JUMPDEST PUSH32 0x4E487B7100000000000000000000000000000000000000000000000000000000 PUSH0 MSTORE PUSH1 0x32 PUSH1 0x4 MSTORE PUSH1 0x24 PUSH0 REVERT JUMPDEST PUSH32 0x4E487B7100000000000000000000000000000000000000000000000000000000 PUSH0 MSTORE PUSH1 0x12 PUSH1 0x4 MSTORE PUSH1 0x24 PUSH0 REVERT JUMPDEST PUSH32 0x4E487B7100000000000000000000000000000000000000000000000000000000 PUSH0 MSTORE PUSH1 0x11 PUSH1 0x4 MSTORE PUSH1 0x24 PUSH0 REVERT JUMPDEST PUSH0 PUSH2 0x1695 DUP3 PUSH2 0x1129 JUMP JUMPDEST SWAP2 POP PUSH2 0x16A0 DUP4 PUSH2 0x1129 JUMP JUMPDEST SWAP3 POP DUP3 PUSH2 0x16B0 JUMPI PUSH2 0x16AF PUSH2 0x1631 JUMP JUMPDEST JUMPDEST DUP3 DUP3 DIV SWAP1 POP SWAP3 SWAP2 POP POP JUMP JUMPDEST PUSH32 0x4E487B7100000000000000000000000000000000000000000000000000000000 PUSH0 MSTORE PUSH1 0x22 PUSH1 0x4 MSTORE PUSH1 0x24 PUSH0 REVERT JUMPDEST PUSH0 PUSH1 0x2 DUP3 DIV SWAP1 POP PUSH1 0x1 DUP3 AND DUP1 PUSH2 0x16FF JUMPI PUSH1 0x7F DUP3 AND SWAP2 POP JUMPDEST PUSH1 0x20 DUP3 LT DUP2 SUB PUSH2 0x1712 JUMPI PUSH2 0x1711 PUSH2 0x16BB JUMP JUMPDEST JUMPDEST POP SWAP2 SWAP1 POP JUMP JUMPDEST PUSH0 DUP2 SWAP1 POP DUP2 PUSH0 MSTORE PUSH1 0x20 PUSH0 KECCAK256 SWAP1 POP SWAP2 SWAP1 POP JUMP JUMPDEST PUSH0 PUSH1 0x20 PUSH1 0x1F DUP4 ADD DIV SWAP1 POP SWAP2 SWAP1 POP JUMP JUMPDEST PUSH0 DUP3 DUP3 SHL SWAP1 POP SWAP3 SWAP2 POP POP JUMP JUMPDEST PUSH0 PUSH1 0x8 DUP4 MUL PUSH2 0x1774 PUSH32 0xFFFFFFFFFFFFFFFFFFFFFFFFFFFFFFFFFFFFFFFFFFFFFFFFFFFFFFFFFFFFFFFF DUP3 PUSH2 0x1739 JUMP JUMPDEST PUSH2 0x177E DUP7 DUP4 PUSH2 0x1739 JUMP JUMPDEST SWAP6 POP DUP1 NOT DUP5 AND SWAP4 POP DUP1 DUP7 AND DUP5 OR SWAP3 POP POP POP SWAP4 SWAP3 POP POP POP JUMP JUMPDEST PUSH0 DUP2 SWAP1 POP SWAP2 SWAP1 POP JUMP JUMPDEST PUSH0 PUSH2 0x17B9 PUSH2 0x17B4 PUSH2 0x17AF DUP5 PUSH2 0x1129 JUMP JUMPDEST PUSH2 0x1796 JUMP JUMPDEST PUSH2 0x1129 JUMP JUMPDEST SWAP1 POP SWAP2 SWAP1 POP JUMP JUMPDEST PUSH0 DUP2 SWAP1 POP SWAP2 SWAP1 POP JUMP JUMPDEST PUSH2 0x17D2 DUP4 PUSH2 0x179F JUMP JUMPDEST PUSH2 0x17E6 PUSH2 0x17DE DUP3 PUSH2 0x17C0 JUMP JUMPDEST DUP5 DUP5 SLOAD PUSH2 0x1745 JUMP JUMPDEST DUP3 SSTORE POP POP POP POP JUMP JUMPDEST PUSH0 SWAP1 JUMP JUMPDEST PUSH2 0x17FA PUSH2 0x17EE JUMP JUMPDEST PUSH2 0x1805 DUP2 DUP5 DUP5 PUSH2 0x17C9 JUMP JUMPDEST POP POP POP JUMP JUMPDEST JUMPDEST DUP2 DUP2 LT ISZERO PUSH2 0x1828 JUMPI PUSH2 0x181D PUSH0 DUP3 PUSH2 0x17F2 JUMP JUMPDEST PUSH1 0x1 DUP2 ADD SWAP1 POP PUSH2 0x180B JUMP JUMPDEST POP POP JUMP JUMPDEST PUSH1 0x1F DUP3 GT ISZERO PUSH2 0x186D JUMPI PUSH2 0x183E DUP2 PUSH2 0x1718 JUMP JUMPDEST PUSH2 0x1847 DUP5 PUSH2 0x172A JUMP JUMPDEST DUP2 ADD PUSH1 0x20 DUP6 LT ISZERO PUSH2 0x1856 JUMPI DUP2 SWAP1 POP JUMPDEST PUSH2 0x186A PUSH2 0x1862 DUP6 PUSH2 0x172A JUMP JUMPDEST DUP4 ADD DUP3 PUSH2 0x180A JUMP JUMPDEST POP POP JUMPDEST POP POP POP JUMP JUMPDEST PUSH0 DUP3 DUP3 SHR SWAP1 POP SWAP3 SWAP2 POP POP JUMP JUMPDEST PUSH0 PUSH2 0x188D PUSH0 NOT DUP5 PUSH1 0x8 MUL PUSH2 0x1872 JUMP JUMPDEST NOT DUP1 DUP4 AND SWAP2 POP POP SWAP3 SWAP2 POP POP JUMP JUMPDEST PUSH0 PUSH2 0x18A5 DUP4 DUP4 PUSH2 0x187E JUMP JUMPDEST SWAP2 POP DUP3 PUSH1 0x2 MUL DUP3 OR SWAP1 POP SWAP3 SWAP2 POP POP JUMP JUMPDEST PUSH2 0x18BE DUP3 PUSH2 0x1187 JUMP JUMPDEST PUSH8 0xFFFFFFFFFFFFFFFF DUP2 GT ISZERO PUSH2 0x18D7 JUMPI PUSH2 0x18D6 PUSH2 0x1474 JUMP JUMPDEST JUMPDEST PUSH2 0x18E1 DUP3 SLOAD PUSH2 0x16E8 JUMP JUMPDEST PUSH2 0x18EC DUP3 DUP3 DUP6 PUSH2 0x182C JUMP JUMPDEST PUSH0 PUSH1 0x20 SWAP1 POP PUSH1 0x1F DUP4 GT PUSH1 0x1 DUP2 EQ PUSH2 0x191D JUMPI PUSH0 DUP5 ISZERO PUSH2 0x190B JUMPI DUP3 DUP8 ADD MLOAD SWAP1 POP JUMPDEST PUSH2 0x1915 DUP6 DUP3 PUSH2 0x189A JUMP JUMPDEST DUP7 SSTORE POP PUSH2 0x197C JUMP JUMPDEST PUSH1 0x1F NOT DUP5 AND PUSH2 0x192B DUP7 PUSH2 0x1718 JUMP JUMPDEST PUSH0 JUMPDEST DUP3 DUP2 LT ISZERO PUSH2 0x1952 JUMPI DUP5 DUP10 ADD MLOAD DUP3 SSTORE PUSH1 0x1 DUP3 ADD SWAP2 POP PUSH1 0x20 DUP6 ADD SWAP5 POP PUSH1 0x20 DUP2 ADD SWAP1 POP PUSH2 0x192D JUMP JUMPDEST DUP7 DUP4 LT ISZERO PUSH2 0x196F JUMPI DUP5 DUP10 ADD MLOAD PUSH2 0x196B PUSH1 0x1F DUP10 AND DUP3 PUSH2 0x187E JUMP JUMPDEST DUP4 SSTORE POP JUMPDEST PUSH1 0x1 PUSH1 0x2 DUP9 MUL ADD DUP9 SSTORE POP POP POP JUMPDEST POP POP POP POP POP POP JUMP JUMPDEST PUSH32 0x726571756972656420616D6F756E742066756C6C66696C6C6564000000000000 PUSH0 DUP3 ADD MSTORE POP JUMP JUMPDEST PUSH0 PUSH2 0x19B8 PUSH1 0x1A DUP4 PUSH2 0x1191 JUMP JUMPDEST SWAP2 POP PUSH2 0x19C3 DUP3 PUSH2 0x1984 JUMP JUMPDEST PUSH1 0x20 DUP3 ADD SWAP1 POP SWAP2 SWAP1 POP JUMP JUMPDEST PUSH0 PUSH1 0x20 DUP3 ADD SWAP1 POP DUP2 DUP2 SUB PUSH0 DUP4 ADD MSTORE PUSH2 0x19E5 DUP2 PUSH2 0x19AC JUMP JUMPDEST SWAP1 POP SWAP2 SWAP1 POP JUMP JUMPDEST PUSH0 PUSH2 0x19F6 DUP3 PUSH2 0x1129 JUMP JUMPDEST SWAP2 POP PUSH32 0xFFFFFFFFFFFFFFFFFFFFFFFFFFFFFFFFFFFFFFFFFFFFFFFFFFFFFFFFFFFFFFFF DUP3 SUB PUSH2 0x1A28 JUMPI PUSH2 0x1A27 PUSH2 0x165E JUMP JUMPDEST JUMPDEST PUSH1 0x1 DUP3 ADD SWAP1 POP SWAP2 SWAP1 POP JUMP JUMPDEST PUSH0 PUSH2 0x1A3D DUP3 PUSH2 0x1129 JUMP JUMPDEST SWAP2 POP PUSH2 0x1A48 DUP4 PUSH2 0x1129 JUMP JUMPDEST SWAP3 POP DUP3 DUP3 ADD SWAP1 POP DUP1 DUP3 GT ISZERO PUSH2 0x1A60 JUMPI PUSH2 0x1A5F PUSH2 0x165E JUMP JUMPDEST JUMPDEST SWAP3 SWAP2 POP POP JUMP JUMPDEST PUSH32 0x43616D706169676E2068617320616C726561647920656E6465642E0000000000 PUSH0 DUP3 ADD MSTORE POP JUMP JUMPDEST PUSH0 PUSH2 0x1A9A PUSH1 0x1B DUP4 PUSH2 0x1191 JUMP JUMPDEST SWAP2 POP PUSH2 0x1AA5 DUP3 PUSH2 0x1A66 JUMP JUMPDEST PUSH1 0x20 DUP3 ADD SWAP1 POP SWAP2 SWAP1 POP JUMP JUMPDEST PUSH0 PUSH1 0x20 DUP3 ADD SWAP1 POP DUP2 DUP2 SUB PUSH0 DUP4 ADD MSTORE PUSH2 0x1AC7 DUP2 PUSH2 0x1A8E JUMP JUMPDEST SWAP1 POP SWAP2 SWAP1 POP JUMP JUMPDEST PUSH0 PUSH2 0x1AD8 DUP3 PUSH2 0x1129 JUMP JUMPDEST SWAP2 POP PUSH2 0x1AE3 DUP4 PUSH2 0x1129 JUMP JUMPDEST SWAP3 POP DUP3 DUP3 SUB SWAP1 POP DUP2 DUP2 GT ISZERO PUSH2 0x1AFB JUMPI PUSH2 0x1AFA PUSH2 0x165E JUMP JUMPDEST JUMPDEST SWAP3 SWAP2 POP POP JUMP INVALID LOG2 PUSH5 0x6970667358 0x22 SLT KECCAK256 0xAF DUP16 INVALID 0xC0 EXTCODEHASH 0xC5 DUP9 0xF7 0xED MLOAD PUSH21 0x52B644D00B7A5A68252EFDCB1716C64CD673241598 PUSH5 0x736F6C6343 STOP ADDMOD OR STOP CALLER "},"gasEstimates":{"creation":{"codeDepositCost":"1393400","executionCost":"infinite","totalCost":"infinite"},"external":{"approveRequest(uint256)":"infinite","approvers(address)":"2901","approversCount()":"2536","campaignCategory()":"infinite","campaignCreatorName()":"infinite","campaignEndDate()":"2470","campaignGoal()":"2513","campaignImage()":"infinite","campaignStory()":"infinite","campaignTitle()":"infinite","contribute()":"infinite","createRequest(string,uint256,address)":"infinite","finalizeRequest(uint256)":"infinite","getDaysRemaining()":"infinite","getRequestsCount()":"2530","getSummary()":"infinite","manager()":"2531","minimumContribution()":"2492","receivedAmount()":"2514","requests(uint256)":"infinite"}},"methodIdentifiers":{"approveRequest(uint256)":"d7d1bbdb","approvers(address)":"0a144391","approversCount()":"82fde093","campaignCategory()":"c40bec2b","campaignCreatorName()":"04192ed5","campaignEndDate()":"6779d145","campaignGoal()":"ef068a7f","campaignImage()":"7e509220","campaignStory()":"ad1d1c15","campaignTitle()":"835a6172","contribute()":"d7bb99ba","createRequest(string,uint256,address)":"8a9cfd55","finalizeRequest(uint256)":"03441006","getDaysRemaining()":"f2621741","getRequestsCount()":"3410452a","getSummary()":"4051ddac","manager()":"481c6a75","minimumContribution()":"937e09b1","receivedAmount()":"9632e720","requests(uint256)":"81d12c58"}},"storageLayout":{"storage":[{"astId":109,"contract":"Campaign.sol:Campaign","label":"requests","offset":0,"slot":"0","type":"t_array(t_struct(Request)105_storage)dyn_storage"},{"astId":111,"contract":"Campaign.sol:Campaign","label":"manager","offset":0,"slot":"1","type":"t_address"},{"astId":113,"contract":"Campaign.sol:Campaign","label":"minimumContribution","offset":0,"slot":"2","type":"t_uint256"},{"astId":117,"contract":"Campaign.sol:Campaign","label":"approvers","offset":0,"slot":"3","type":"t_mapping(t_address,t_bool)"},{"astId":119,"contract":"Campaign.sol:Campaign","label":"approversCount","offset":0,"slot":"4","type":"t_uint256"},{"astId":121,"contract":"Campaign.sol:Campaign","label":"campaignTitle","offset":0,"slot":"5","type":"t_string_storage"},{"astId":123,"contract":"Campaign.sol:Campaign","label":"campaignCreatorName","offset":0,"slot":"6","type":"t_string_storage"},{"astId":125,"contract":"Campaign.sol:Campaign","label":"campaignStory","offset":0,"slot":"7","type":"t_string_storage"},{"astId":127,"contract":"Campaign.sol:Campaign","label":"campaignGoal","offset":0,"slot":"8","type":"t_uint256"},{"astId":129,"contract":"Campaign.sol:Campaign","label":"campaignEndDate","offset":0,"slot":"9","type":"t_uint256"},{"astId":131,"contract":"Campaign.sol:Campaign","label":"campaignImage","offset":0,"slot":"10","type":"t_string_storage"},{"astId":133,"contract":"Campaign.sol:Campaign","label":"receivedAmount","offset":0,"slot":"11","type":"t_uint256"},{"astId":135,"contract":"Campaign.sol:Campaign","label":"campaignCategory","offset":0,"slot":"12","type":"t_string_storage"}],"types":{"t_address":{"encoding":"inplace","label":"address","numberOfBytes":"20"},"t_array(t_struct(Request)105_storage)dyn_storage":{"base":"t_struct(Request)105_storage","encoding":"dynamic_array","label":"struct Campaign.Request[]","numberOfBytes":"32"},"t_bool":{"encoding":"inplace","label":"bool","numberOfBytes":"1"},"t_mapping(t_address,t_bool)":{"encoding":"mapping","key":"t_address","label":"mapping(address => bool)","numberOfBytes":"32","value":"t_bool"},"t_string_storage":{"encoding":"bytes","label":"string","numberOfBytes":"32"},"t_struct(Request)105_storage":{"encoding":"inplace","label":"struct Campaign.Request","members":[{"astId":92,"contract":"Campaign.sol:Campaign","label":"description","offset":0,"slot":"0","type":"t_string_storage"},{"astId":94,"contract":"Campaign.sol:Campaign","label":"value","offset":0,"slot":"1","type":"t_uint256"},{"astId":96,"contract":"Campaign.sol:Campaign","label":"recipient","offset":0,"slot":"2","type":"t_address"},{"astId":98,"contract":"Campaign.sol:Campaign","label":"complete","offset":20,"slot":"2","type":"t_bool"},{"astId":100,"contract":"Campaign.sol:Campaign","label":"approvalCount","offset":0,"slot":"3","type":"t_uint256"},{"astId":104,"contract":"Campaign.sol:Campaign","label":"approvals","offset":0,"slot":"4","type":"t_mapping(t_address,t_bool)"}],"numberOfBytes":"160"},"t_uint256":{"encoding":"inplace","label":"uint256","numberOfBytes":"32"}}},"userdoc":{"kind":"user","methods":{},"version":1}}